{
	"compilerInput": "{\"language\":\"Solidity\",\"sources\":{\"contracts/OpinioNect.sol\":{\"content\":\"// Layout of Contract:\\r\\n// SPDX-License-Identifier: MIT\\r\\n\\r\\n// version\\r\\npragma solidity >=0.7.0 <0.8.9;\\r\\n\\r\\n// imports\\r\\n\\r\\n// errors\\r\\n\\r\\n// interfaces, libraries, contracts\\r\\n// error FundMe__NotOwner();\\r\\n\\r\\n/**\\r\\n * @title OpinioNect Smart Contract\\r\\n * @author Jaskirat Singh\\r\\n * @notice This contract is for giving your comments/opinions on an article\\r\\n * @dev Does not implement anything\\r\\n */\\r\\ncontract OpinioNect{\\r\\n    // Type declarations\\r\\n    // mapping(address => mapping(uint256 => uint256)) public outerMappings;\\r\\n    // State variables\\r\\n    address private immutable i_owner;\\r\\n    string[] public articleHash;\\r\\n    struct UserComment{\\r\\n        // mapping(address => string) userToarticleHash;\\r\\n        address userAddress;\\r\\n        string comment;\\r\\n    }\\r\\n    \\r\\n    mapping(string => UserComment[]) public articleToUserComments;\\r\\n\\r\\n    // Events\\r\\n    // Modifiers\\r\\n    modifier onlyOwner() {\\r\\n        require(msg.sender == i_owner, \\\"Only Owner Action!\\\");\\r\\n        // if (msg.sender != i_owner) revert FundMe__NotOwner();\\r\\n        _;\\r\\n    }\\r\\n    // modifier oneUserOneComment(string memory _articleHash) {\\r\\n    //     if(articleToUserComments[_articleHash].userAddress){\\r\\n    //         _;\\r\\n    //     }\\r\\n    // }\\r\\n    modifier oneUserOneComment(string memory _articleHash) {\\r\\n    bool hasCommented = false;\\r\\n    \\r\\n    // Iterate through existing comments for the article\\r\\n    UserComment[] memory comments = articleToUserComments[_articleHash];\\r\\n    for (uint256 i = 0; i < comments.length; i++) {\\r\\n        if (comments[i].userAddress == msg.sender) {\\r\\n            hasCommented = true;\\r\\n            break;\\r\\n        }\\r\\n    }\\r\\n\\r\\n    require(!hasCommented, \\\"You have already commented on this article.\\\");\\r\\n    _;\\r\\n    }\\r\\n\\r\\n\\r\\n    // Functions\\r\\n    // Layout of Functions:\\r\\n    // constructor\\r\\n    constructor() {\\r\\n        i_owner = msg.sender;\\r\\n    }\\r\\n\\r\\n    // receive function (if exists)\\r\\n    // fallback function (if exists)\\r\\n    // external\\r\\n    // public\\r\\n    function addArticle(string calldata _articleHash) public onlyOwner {\\r\\n        articleHash.push(_articleHash);\\r\\n    }\\r\\n\\r\\n    function addComment(string calldata _articleHash, string calldata _userComment) public {\\r\\n        UserComment memory userComment = UserComment(msg.sender, _userComment);\\r\\n        articleToUserComments[_articleHash].push(userComment);\\r\\n    }\\r\\n\\r\\n    function getCommentsOnArticle(string calldata _articleHash) view public returns (string[] memory) {\\r\\n    UserComment[] memory comments = articleToUserComments[_articleHash];\\r\\n    string[] memory commentsArray = new string[](comments.length);\\r\\n\\r\\n    for (uint256 i = 0; i < comments.length; i++) {\\r\\n        commentsArray[i] = comments[i].comment;\\r\\n    }\\r\\n\\r\\n    return commentsArray;\\r\\n    }\\r\\n\\r\\n    function articleHashLength() view public returns (uint256) {\\r\\n        uint256 length = articleHash.length;\\r\\n        return length;\\r\\n    }\\r\\n\\r\\n    // internal\\r\\n    // private\\r\\n    // view & pure functions\\r\\n\\r\\n}\\r\\n\"}},\"settings\":{\"optimizer\":{\"enabled\":false,\"runs\":200},\"outputSelection\":{\"*\":{\"\":[\"ast\"],\"*\":[\"abi\",\"metadata\",\"devdoc\",\"userdoc\",\"storageLayout\",\"evm.legacyAssembly\",\"evm.bytecode\",\"evm.deployedBytecode\",\"evm.methodIdentifiers\",\"evm.gasEstimates\",\"evm.assembly\"]}}}}",
	"name": "OpinioNect",
	"bytecode": {
		"linkReferences": {},
		"object": "60a060405234801561001057600080fd5b503373ffffffffffffffffffffffffffffffffffffffff1660808173ffffffffffffffffffffffffffffffffffffffff1660601b8152505060805160601c610ffa61006660003960006101500152610ffa6000f3fe608060405234801561001057600080fd5b50600436106100625760003560e01c80630c971a46146100675780630f4a52c7146100835780635ec30d25146100b3578063623ad5ba146100e45780636b76dba114610102578063ae5ff90514610132575b600080fd5b610081600480360381019061007c91906108c6565b61014e565b005b61009d60048036038101906100989190610949565b61021e565b6040516100aa9190610a0f565b60405180910390f35b6100cd60048036038101906100c89190610b61565b6102ca565b6040516100db929190610bfe565b60405180910390f35b6100ec6103c9565b6040516100f99190610c3d565b60405180910390f35b61011c600480360381019061011791906108c6565b6103db565b6040516101299190610d64565b60405180910390f35b61014c60048036038101906101479190610d86565b6105fa565b005b7f000000000000000000000000000000000000000000000000000000000000000073ffffffffffffffffffffffffffffffffffffffff163373ffffffffffffffffffffffffffffffffffffffff16146101dc576040517f08c379a00000000000000000000000000000000000000000000000000000000081526004016101d390610e53565b60405180910390fd5b6000828290918060018154018082558091505060019003906000526020600020016000909192909192909192909192509190610219929190610724565b505050565b6000818154811061022e57600080fd5b90600052602060002001600091509050805461024990610ea2565b80601f016020809104026020016040519081016040528092919081815260200182805461027590610ea2565b80156102c25780601f10610297576101008083540402835291602001916102c2565b820191906000526020600020905b8154815290600101906020018083116102a557829003601f168201915b505050505081565b60018280516020810182018051848252602083016020850120818352809550505050505081815481106102fc57600080fd5b9060005260206000209060020201600091509150508060000160009054906101000a900473ffffffffffffffffffffffffffffffffffffffff169080600101805461034690610ea2565b80601f016020809104026020016040519081016040528092919081815260200182805461037290610ea2565b80156103bf5780601f10610394576101008083540402835291602001916103bf565b820191906000526020600020905b8154815290600101906020018083116103a257829003601f168201915b5050505050905082565b60008060008054905090508091505090565b60606000600184846040516103f1929190610f04565b9081526020016040518091039020805480602002602001604051908101604052809291908181526020016000905b8282101561053957838290600052602060002090600202016040518060400160405290816000820160009054906101000a900473ffffffffffffffffffffffffffffffffffffffff1673ffffffffffffffffffffffffffffffffffffffff1673ffffffffffffffffffffffffffffffffffffffff1681526020016001820180546104a890610ea2565b80601f01602080910402602001604051908101604052809291908181526020018280546104d490610ea2565b80156105215780601f106104f657610100808354040283529160200191610521565b820191906000526020600020905b81548152906001019060200180831161050457829003601f168201915b5050505050815250508152602001906001019061041f565b5050505090506000815167ffffffffffffffff81111561055c5761055b610a36565b5b60405190808252806020026020018201604052801561058f57816020015b606081526020019060019003908161057a5790505b50905060005b82518110156105ee578281815181106105b1576105b0610f1d565b5b6020026020010151602001518282815181106105d0576105cf610f1d565b5b602002602001018190525080806105e690610f7b565b915050610595565b50809250505092915050565b600060405180604001604052803373ffffffffffffffffffffffffffffffffffffffff16815260200184848080601f016020809104026020016040519081016040528093929190818152602001838380828437600081840152601f19601f8201169050808301925050505050505081525090506001858560405161067f929190610f04565b908152602001604051809103902081908060018154018082558091505060019003906000526020600020906002020160009091909190915060008201518160000160006101000a81548173ffffffffffffffffffffffffffffffffffffffff021916908373ffffffffffffffffffffffffffffffffffffffff160217905550602082015181600101908051906020019061071a9291906107aa565b5050505050505050565b82805461073090610ea2565b90600052602060002090601f0160209004810192826107525760008555610799565b82601f1061076b57803560ff1916838001178555610799565b82800160010185558215610799579182015b8281111561079857823582559160200191906001019061077d565b5b5090506107a69190610830565b5090565b8280546107b690610ea2565b90600052602060002090601f0160209004810192826107d8576000855561081f565b82601f106107f157805160ff191683800117855561081f565b8280016001018555821561081f579182015b8281111561081e578251825591602001919060010190610803565b5b50905061082c9190610830565b5090565b5b80821115610849576000816000905550600101610831565b5090565b6000604051905090565b600080fd5b600080fd5b600080fd5b600080fd5b600080fd5b60008083601f84011261088657610885610861565b5b8235905067ffffffffffffffff8111156108a3576108a2610866565b5b6020830191508360018202830111156108bf576108be61086b565b5b9250929050565b600080602083850312156108dd576108dc610857565b5b600083013567ffffffffffffffff8111156108fb576108fa61085c565b5b61090785828601610870565b92509250509250929050565b6000819050919050565b61092681610913565b811461093157600080fd5b50565b6000813590506109438161091d565b92915050565b60006020828403121561095f5761095e610857565b5b600061096d84828501610934565b91505092915050565b600081519050919050565b600082825260208201905092915050565b60005b838110156109b0578082015181840152602081019050610995565b838111156109bf576000848401525b50505050565b6000601f19601f8301169050919050565b60006109e182610976565b6109eb8185610981565b93506109fb818560208601610992565b610a04816109c5565b840191505092915050565b60006020820190508181036000830152610a2981846109d6565b905092915050565b600080fd5b7f4e487b7100000000000000000000000000000000000000000000000000000000600052604160045260246000fd5b610a6e826109c5565b810181811067ffffffffffffffff82111715610a8d57610a8c610a36565b5b80604052505050565b6000610aa061084d565b9050610aac8282610a65565b919050565b600067ffffffffffffffff821115610acc57610acb610a36565b5b610ad5826109c5565b9050602081019050919050565b82818337600083830152505050565b6000610b04610aff84610ab1565b610a96565b905082815260208101848484011115610b2057610b1f610a31565b5b610b2b848285610ae2565b509392505050565b600082601f830112610b4857610b47610861565b5b8135610b58848260208601610af1565b91505092915050565b60008060408385031215610b7857610b77610857565b5b600083013567ffffffffffffffff811115610b9657610b9561085c565b5b610ba285828601610b33565b9250506020610bb385828601610934565b9150509250929050565b600073ffffffffffffffffffffffffffffffffffffffff82169050919050565b6000610be882610bbd565b9050919050565b610bf881610bdd565b82525050565b6000604082019050610c136000830185610bef565b8181036020830152610c2581846109d6565b90509392505050565b610c3781610913565b82525050565b6000602082019050610c526000830184610c2e565b92915050565b600081519050919050565b600082825260208201905092915050565b6000819050602082019050919050565b600082825260208201905092915050565b6000610ca082610976565b610caa8185610c84565b9350610cba818560208601610992565b610cc3816109c5565b840191505092915050565b6000610cda8383610c95565b905092915050565b6000602082019050919050565b6000610cfa82610c58565b610d048185610c63565b935083602082028501610d1685610c74565b8060005b85811015610d525784840389528151610d338582610cce565b9450610d3e83610ce2565b925060208a01995050600181019050610d1a565b50829750879550505050505092915050565b60006020820190508181036000830152610d7e8184610cef565b905092915050565b60008060008060408587031215610da057610d9f610857565b5b600085013567ffffffffffffffff811115610dbe57610dbd61085c565b5b610dca87828801610870565b9450945050602085013567ffffffffffffffff811115610ded57610dec61085c565b5b610df987828801610870565b925092505092959194509250565b7f4f6e6c79204f776e657220416374696f6e210000000000000000000000000000600082015250565b6000610e3d601283610981565b9150610e4882610e07565b602082019050919050565b60006020820190508181036000830152610e6c81610e30565b9050919050565b7f4e487b7100000000000000000000000000000000000000000000000000000000600052602260045260246000fd5b60006002820490506001821680610eba57607f821691505b60208210811415610ece57610ecd610e73565b5b50919050565b600081905092915050565b6000610eeb8385610ed4565b9350610ef8838584610ae2565b82840190509392505050565b6000610f11828486610edf565b91508190509392505050565b7f4e487b7100000000000000000000000000000000000000000000000000000000600052603260045260246000fd5b7f4e487b7100000000000000000000000000000000000000000000000000000000600052601160045260246000fd5b6000610f8682610913565b91507fffffffffffffffffffffffffffffffffffffffffffffffffffffffffffffffff821415610fb957610fb8610f4c565b5b60018201905091905056fea264697066735822122043c2ccbe9ae8b78f0e44ff008ccb630e04b756093495aa330b6620abb130155f64736f6c63430008080033",
		"opcodes": "PUSH1 0xA0 PUSH1 0x40 MSTORE CALLVALUE DUP1 ISZERO PUSH2 0x10 JUMPI PUSH1 0x0 DUP1 REVERT JUMPDEST POP CALLER PUSH20 0xFFFFFFFFFFFFFFFFFFFFFFFFFFFFFFFFFFFFFFFF AND PUSH1 0x80 DUP2 PUSH20 0xFFFFFFFFFFFFFFFFFFFFFFFFFFFFFFFFFFFFFFFF AND PUSH1 0x60 SHL DUP2 MSTORE POP POP PUSH1 0x80 MLOAD PUSH1 0x60 SHR PUSH2 0xFFA PUSH2 0x66 PUSH1 0x0 CODECOPY PUSH1 0x0 PUSH2 0x150 ADD MSTORE PUSH2 0xFFA PUSH1 0x0 RETURN INVALID PUSH1 0x80 PUSH1 0x40 MSTORE CALLVALUE DUP1 ISZERO PUSH2 0x10 JUMPI PUSH1 0x0 DUP1 REVERT JUMPDEST POP PUSH1 0x4 CALLDATASIZE LT PUSH2 0x62 JUMPI PUSH1 0x0 CALLDATALOAD PUSH1 0xE0 SHR DUP1 PUSH4 0xC971A46 EQ PUSH2 0x67 JUMPI DUP1 PUSH4 0xF4A52C7 EQ PUSH2 0x83 JUMPI DUP1 PUSH4 0x5EC30D25 EQ PUSH2 0xB3 JUMPI DUP1 PUSH4 0x623AD5BA EQ PUSH2 0xE4 JUMPI DUP1 PUSH4 0x6B76DBA1 EQ PUSH2 0x102 JUMPI DUP1 PUSH4 0xAE5FF905 EQ PUSH2 0x132 JUMPI JUMPDEST PUSH1 0x0 DUP1 REVERT JUMPDEST PUSH2 0x81 PUSH1 0x4 DUP1 CALLDATASIZE SUB DUP2 ADD SWAP1 PUSH2 0x7C SWAP2 SWAP1 PUSH2 0x8C6 JUMP JUMPDEST PUSH2 0x14E JUMP JUMPDEST STOP JUMPDEST PUSH2 0x9D PUSH1 0x4 DUP1 CALLDATASIZE SUB DUP2 ADD SWAP1 PUSH2 0x98 SWAP2 SWAP1 PUSH2 0x949 JUMP JUMPDEST PUSH2 0x21E JUMP JUMPDEST PUSH1 0x40 MLOAD PUSH2 0xAA SWAP2 SWAP1 PUSH2 0xA0F JUMP JUMPDEST PUSH1 0x40 MLOAD DUP1 SWAP2 SUB SWAP1 RETURN JUMPDEST PUSH2 0xCD PUSH1 0x4 DUP1 CALLDATASIZE SUB DUP2 ADD SWAP1 PUSH2 0xC8 SWAP2 SWAP1 PUSH2 0xB61 JUMP JUMPDEST PUSH2 0x2CA JUMP JUMPDEST PUSH1 0x40 MLOAD PUSH2 0xDB SWAP3 SWAP2 SWAP1 PUSH2 0xBFE JUMP JUMPDEST PUSH1 0x40 MLOAD DUP1 SWAP2 SUB SWAP1 RETURN JUMPDEST PUSH2 0xEC PUSH2 0x3C9 JUMP JUMPDEST PUSH1 0x40 MLOAD PUSH2 0xF9 SWAP2 SWAP1 PUSH2 0xC3D JUMP JUMPDEST PUSH1 0x40 MLOAD DUP1 SWAP2 SUB SWAP1 RETURN JUMPDEST PUSH2 0x11C PUSH1 0x4 DUP1 CALLDATASIZE SUB DUP2 ADD SWAP1 PUSH2 0x117 SWAP2 SWAP1 PUSH2 0x8C6 JUMP JUMPDEST PUSH2 0x3DB JUMP JUMPDEST PUSH1 0x40 MLOAD PUSH2 0x129 SWAP2 SWAP1 PUSH2 0xD64 JUMP JUMPDEST PUSH1 0x40 MLOAD DUP1 SWAP2 SUB SWAP1 RETURN JUMPDEST PUSH2 0x14C PUSH1 0x4 DUP1 CALLDATASIZE SUB DUP2 ADD SWAP1 PUSH2 0x147 SWAP2 SWAP1 PUSH2 0xD86 JUMP JUMPDEST PUSH2 0x5FA JUMP JUMPDEST STOP JUMPDEST PUSH32 0x0 PUSH20 0xFFFFFFFFFFFFFFFFFFFFFFFFFFFFFFFFFFFFFFFF AND CALLER PUSH20 0xFFFFFFFFFFFFFFFFFFFFFFFFFFFFFFFFFFFFFFFF AND EQ PUSH2 0x1DC JUMPI PUSH1 0x40 MLOAD PUSH32 0x8C379A000000000000000000000000000000000000000000000000000000000 DUP2 MSTORE PUSH1 0x4 ADD PUSH2 0x1D3 SWAP1 PUSH2 0xE53 JUMP JUMPDEST PUSH1 0x40 MLOAD DUP1 SWAP2 SUB SWAP1 REVERT JUMPDEST PUSH1 0x0 DUP3 DUP3 SWAP1 SWAP2 DUP1 PUSH1 0x1 DUP2 SLOAD ADD DUP1 DUP3 SSTORE DUP1 SWAP2 POP POP PUSH1 0x1 SWAP1 SUB SWAP1 PUSH1 0x0 MSTORE PUSH1 0x20 PUSH1 0x0 KECCAK256 ADD PUSH1 0x0 SWAP1 SWAP2 SWAP3 SWAP1 SWAP2 SWAP3 SWAP1 SWAP2 SWAP3 SWAP1 SWAP2 SWAP3 POP SWAP2 SWAP1 PUSH2 0x219 SWAP3 SWAP2 SWAP1 PUSH2 0x724 JUMP JUMPDEST POP POP POP JUMP JUMPDEST PUSH1 0x0 DUP2 DUP2 SLOAD DUP2 LT PUSH2 0x22E JUMPI PUSH1 0x0 DUP1 REVERT JUMPDEST SWAP1 PUSH1 0x0 MSTORE PUSH1 0x20 PUSH1 0x0 KECCAK256 ADD PUSH1 0x0 SWAP2 POP SWAP1 POP DUP1 SLOAD PUSH2 0x249 SWAP1 PUSH2 0xEA2 JUMP JUMPDEST DUP1 PUSH1 0x1F ADD PUSH1 0x20 DUP1 SWAP2 DIV MUL PUSH1 0x20 ADD PUSH1 0x40 MLOAD SWAP1 DUP2 ADD PUSH1 0x40 MSTORE DUP1 SWAP3 SWAP2 SWAP1 DUP2 DUP2 MSTORE PUSH1 0x20 ADD DUP3 DUP1 SLOAD PUSH2 0x275 SWAP1 PUSH2 0xEA2 JUMP JUMPDEST DUP1 ISZERO PUSH2 0x2C2 JUMPI DUP1 PUSH1 0x1F LT PUSH2 0x297 JUMPI PUSH2 0x100 DUP1 DUP4 SLOAD DIV MUL DUP4 MSTORE SWAP2 PUSH1 0x20 ADD SWAP2 PUSH2 0x2C2 JUMP JUMPDEST DUP3 ADD SWAP2 SWAP1 PUSH1 0x0 MSTORE PUSH1 0x20 PUSH1 0x0 KECCAK256 SWAP1 JUMPDEST DUP2 SLOAD DUP2 MSTORE SWAP1 PUSH1 0x1 ADD SWAP1 PUSH1 0x20 ADD DUP1 DUP4 GT PUSH2 0x2A5 JUMPI DUP3 SWAP1 SUB PUSH1 0x1F AND DUP3 ADD SWAP2 JUMPDEST POP POP POP POP POP DUP2 JUMP JUMPDEST PUSH1 0x1 DUP3 DUP1 MLOAD PUSH1 0x20 DUP2 ADD DUP3 ADD DUP1 MLOAD DUP5 DUP3 MSTORE PUSH1 0x20 DUP4 ADD PUSH1 0x20 DUP6 ADD KECCAK256 DUP2 DUP4 MSTORE DUP1 SWAP6 POP POP POP POP POP POP DUP2 DUP2 SLOAD DUP2 LT PUSH2 0x2FC JUMPI PUSH1 0x0 DUP1 REVERT JUMPDEST SWAP1 PUSH1 0x0 MSTORE PUSH1 0x20 PUSH1 0x0 KECCAK256 SWAP1 PUSH1 0x2 MUL ADD PUSH1 0x0 SWAP2 POP SWAP2 POP POP DUP1 PUSH1 0x0 ADD PUSH1 0x0 SWAP1 SLOAD SWAP1 PUSH2 0x100 EXP SWAP1 DIV PUSH20 0xFFFFFFFFFFFFFFFFFFFFFFFFFFFFFFFFFFFFFFFF AND SWAP1 DUP1 PUSH1 0x1 ADD DUP1 SLOAD PUSH2 0x346 SWAP1 PUSH2 0xEA2 JUMP JUMPDEST DUP1 PUSH1 0x1F ADD PUSH1 0x20 DUP1 SWAP2 DIV MUL PUSH1 0x20 ADD PUSH1 0x40 MLOAD SWAP1 DUP2 ADD PUSH1 0x40 MSTORE DUP1 SWAP3 SWAP2 SWAP1 DUP2 DUP2 MSTORE PUSH1 0x20 ADD DUP3 DUP1 SLOAD PUSH2 0x372 SWAP1 PUSH2 0xEA2 JUMP JUMPDEST DUP1 ISZERO PUSH2 0x3BF JUMPI DUP1 PUSH1 0x1F LT PUSH2 0x394 JUMPI PUSH2 0x100 DUP1 DUP4 SLOAD DIV MUL DUP4 MSTORE SWAP2 PUSH1 0x20 ADD SWAP2 PUSH2 0x3BF JUMP JUMPDEST DUP3 ADD SWAP2 SWAP1 PUSH1 0x0 MSTORE PUSH1 0x20 PUSH1 0x0 KECCAK256 SWAP1 JUMPDEST DUP2 SLOAD DUP2 MSTORE SWAP1 PUSH1 0x1 ADD SWAP1 PUSH1 0x20 ADD DUP1 DUP4 GT PUSH2 0x3A2 JUMPI DUP3 SWAP1 SUB PUSH1 0x1F AND DUP3 ADD SWAP2 JUMPDEST POP POP POP POP POP SWAP1 POP DUP3 JUMP JUMPDEST PUSH1 0x0 DUP1 PUSH1 0x0 DUP1 SLOAD SWAP1 POP SWAP1 POP DUP1 SWAP2 POP POP SWAP1 JUMP JUMPDEST PUSH1 0x60 PUSH1 0x0 PUSH1 0x1 DUP5 DUP5 PUSH1 0x40 MLOAD PUSH2 0x3F1 SWAP3 SWAP2 SWAP1 PUSH2 0xF04 JUMP JUMPDEST SWAP1 DUP2 MSTORE PUSH1 0x20 ADD PUSH1 0x40 MLOAD DUP1 SWAP2 SUB SWAP1 KECCAK256 DUP1 SLOAD DUP1 PUSH1 0x20 MUL PUSH1 0x20 ADD PUSH1 0x40 MLOAD SWAP1 DUP2 ADD PUSH1 0x40 MSTORE DUP1 SWAP3 SWAP2 SWAP1 DUP2 DUP2 MSTORE PUSH1 0x20 ADD PUSH1 0x0 SWAP1 JUMPDEST DUP3 DUP3 LT ISZERO PUSH2 0x539 JUMPI DUP4 DUP3 SWAP1 PUSH1 0x0 MSTORE PUSH1 0x20 PUSH1 0x0 KECCAK256 SWAP1 PUSH1 0x2 MUL ADD PUSH1 0x40 MLOAD DUP1 PUSH1 0x40 ADD PUSH1 0x40 MSTORE SWAP1 DUP2 PUSH1 0x0 DUP3 ADD PUSH1 0x0 SWAP1 SLOAD SWAP1 PUSH2 0x100 EXP SWAP1 DIV PUSH20 0xFFFFFFFFFFFFFFFFFFFFFFFFFFFFFFFFFFFFFFFF AND PUSH20 0xFFFFFFFFFFFFFFFFFFFFFFFFFFFFFFFFFFFFFFFF AND PUSH20 0xFFFFFFFFFFFFFFFFFFFFFFFFFFFFFFFFFFFFFFFF AND DUP2 MSTORE PUSH1 0x20 ADD PUSH1 0x1 DUP3 ADD DUP1 SLOAD PUSH2 0x4A8 SWAP1 PUSH2 0xEA2 JUMP JUMPDEST DUP1 PUSH1 0x1F ADD PUSH1 0x20 DUP1 SWAP2 DIV MUL PUSH1 0x20 ADD PUSH1 0x40 MLOAD SWAP1 DUP2 ADD PUSH1 0x40 MSTORE DUP1 SWAP3 SWAP2 SWAP1 DUP2 DUP2 MSTORE PUSH1 0x20 ADD DUP3 DUP1 SLOAD PUSH2 0x4D4 SWAP1 PUSH2 0xEA2 JUMP JUMPDEST DUP1 ISZERO PUSH2 0x521 JUMPI DUP1 PUSH1 0x1F LT PUSH2 0x4F6 JUMPI PUSH2 0x100 DUP1 DUP4 SLOAD DIV MUL DUP4 MSTORE SWAP2 PUSH1 0x20 ADD SWAP2 PUSH2 0x521 JUMP JUMPDEST DUP3 ADD SWAP2 SWAP1 PUSH1 0x0 MSTORE PUSH1 0x20 PUSH1 0x0 KECCAK256 SWAP1 JUMPDEST DUP2 SLOAD DUP2 MSTORE SWAP1 PUSH1 0x1 ADD SWAP1 PUSH1 0x20 ADD DUP1 DUP4 GT PUSH2 0x504 JUMPI DUP3 SWAP1 SUB PUSH1 0x1F AND DUP3 ADD SWAP2 JUMPDEST POP POP POP POP POP DUP2 MSTORE POP POP DUP2 MSTORE PUSH1 0x20 ADD SWAP1 PUSH1 0x1 ADD SWAP1 PUSH2 0x41F JUMP JUMPDEST POP POP POP POP SWAP1 POP PUSH1 0x0 DUP2 MLOAD PUSH8 0xFFFFFFFFFFFFFFFF DUP2 GT ISZERO PUSH2 0x55C JUMPI PUSH2 0x55B PUSH2 0xA36 JUMP JUMPDEST JUMPDEST PUSH1 0x40 MLOAD SWAP1 DUP1 DUP3 MSTORE DUP1 PUSH1 0x20 MUL PUSH1 0x20 ADD DUP3 ADD PUSH1 0x40 MSTORE DUP1 ISZERO PUSH2 0x58F JUMPI DUP2 PUSH1 0x20 ADD JUMPDEST PUSH1 0x60 DUP2 MSTORE PUSH1 0x20 ADD SWAP1 PUSH1 0x1 SWAP1 SUB SWAP1 DUP2 PUSH2 0x57A JUMPI SWAP1 POP JUMPDEST POP SWAP1 POP PUSH1 0x0 JUMPDEST DUP3 MLOAD DUP2 LT ISZERO PUSH2 0x5EE JUMPI DUP3 DUP2 DUP2 MLOAD DUP2 LT PUSH2 0x5B1 JUMPI PUSH2 0x5B0 PUSH2 0xF1D JUMP JUMPDEST JUMPDEST PUSH1 0x20 MUL PUSH1 0x20 ADD ADD MLOAD PUSH1 0x20 ADD MLOAD DUP3 DUP3 DUP2 MLOAD DUP2 LT PUSH2 0x5D0 JUMPI PUSH2 0x5CF PUSH2 0xF1D JUMP JUMPDEST JUMPDEST PUSH1 0x20 MUL PUSH1 0x20 ADD ADD DUP2 SWAP1 MSTORE POP DUP1 DUP1 PUSH2 0x5E6 SWAP1 PUSH2 0xF7B JUMP JUMPDEST SWAP2 POP POP PUSH2 0x595 JUMP JUMPDEST POP DUP1 SWAP3 POP POP POP SWAP3 SWAP2 POP POP JUMP JUMPDEST PUSH1 0x0 PUSH1 0x40 MLOAD DUP1 PUSH1 0x40 ADD PUSH1 0x40 MSTORE DUP1 CALLER PUSH20 0xFFFFFFFFFFFFFFFFFFFFFFFFFFFFFFFFFFFFFFFF AND DUP2 MSTORE PUSH1 0x20 ADD DUP5 DUP5 DUP1 DUP1 PUSH1 0x1F ADD PUSH1 0x20 DUP1 SWAP2 DIV MUL PUSH1 0x20 ADD PUSH1 0x40 MLOAD SWAP1 DUP2 ADD PUSH1 0x40 MSTORE DUP1 SWAP4 SWAP3 SWAP2 SWAP1 DUP2 DUP2 MSTORE PUSH1 0x20 ADD DUP4 DUP4 DUP1 DUP3 DUP5 CALLDATACOPY PUSH1 0x0 DUP2 DUP5 ADD MSTORE PUSH1 0x1F NOT PUSH1 0x1F DUP3 ADD AND SWAP1 POP DUP1 DUP4 ADD SWAP3 POP POP POP POP POP POP POP DUP2 MSTORE POP SWAP1 POP PUSH1 0x1 DUP6 DUP6 PUSH1 0x40 MLOAD PUSH2 0x67F SWAP3 SWAP2 SWAP1 PUSH2 0xF04 JUMP JUMPDEST SWAP1 DUP2 MSTORE PUSH1 0x20 ADD PUSH1 0x40 MLOAD DUP1 SWAP2 SUB SWAP1 KECCAK256 DUP2 SWAP1 DUP1 PUSH1 0x1 DUP2 SLOAD ADD DUP1 DUP3 SSTORE DUP1 SWAP2 POP POP PUSH1 0x1 SWAP1 SUB SWAP1 PUSH1 0x0 MSTORE PUSH1 0x20 PUSH1 0x0 KECCAK256 SWAP1 PUSH1 0x2 MUL ADD PUSH1 0x0 SWAP1 SWAP2 SWAP1 SWAP2 SWAP1 SWAP2 POP PUSH1 0x0 DUP3 ADD MLOAD DUP2 PUSH1 0x0 ADD PUSH1 0x0 PUSH2 0x100 EXP DUP2 SLOAD DUP2 PUSH20 0xFFFFFFFFFFFFFFFFFFFFFFFFFFFFFFFFFFFFFFFF MUL NOT AND SWAP1 DUP4 PUSH20 0xFFFFFFFFFFFFFFFFFFFFFFFFFFFFFFFFFFFFFFFF AND MUL OR SWAP1 SSTORE POP PUSH1 0x20 DUP3 ADD MLOAD DUP2 PUSH1 0x1 ADD SWAP1 DUP1 MLOAD SWAP1 PUSH1 0x20 ADD SWAP1 PUSH2 0x71A SWAP3 SWAP2 SWAP1 PUSH2 0x7AA JUMP JUMPDEST POP POP POP POP POP POP POP POP JUMP JUMPDEST DUP3 DUP1 SLOAD PUSH2 0x730 SWAP1 PUSH2 0xEA2 JUMP JUMPDEST SWAP1 PUSH1 0x0 MSTORE PUSH1 0x20 PUSH1 0x0 KECCAK256 SWAP1 PUSH1 0x1F ADD PUSH1 0x20 SWAP1 DIV DUP2 ADD SWAP3 DUP3 PUSH2 0x752 JUMPI PUSH1 0x0 DUP6 SSTORE PUSH2 0x799 JUMP JUMPDEST DUP3 PUSH1 0x1F LT PUSH2 0x76B JUMPI DUP1 CALLDATALOAD PUSH1 0xFF NOT AND DUP4 DUP1 ADD OR DUP6 SSTORE PUSH2 0x799 JUMP JUMPDEST DUP3 DUP1 ADD PUSH1 0x1 ADD DUP6 SSTORE DUP3 ISZERO PUSH2 0x799 JUMPI SWAP2 DUP3 ADD JUMPDEST DUP3 DUP2 GT ISZERO PUSH2 0x798 JUMPI DUP3 CALLDATALOAD DUP3 SSTORE SWAP2 PUSH1 0x20 ADD SWAP2 SWAP1 PUSH1 0x1 ADD SWAP1 PUSH2 0x77D JUMP JUMPDEST JUMPDEST POP SWAP1 POP PUSH2 0x7A6 SWAP2 SWAP1 PUSH2 0x830 JUMP JUMPDEST POP SWAP1 JUMP JUMPDEST DUP3 DUP1 SLOAD PUSH2 0x7B6 SWAP1 PUSH2 0xEA2 JUMP JUMPDEST SWAP1 PUSH1 0x0 MSTORE PUSH1 0x20 PUSH1 0x0 KECCAK256 SWAP1 PUSH1 0x1F ADD PUSH1 0x20 SWAP1 DIV DUP2 ADD SWAP3 DUP3 PUSH2 0x7D8 JUMPI PUSH1 0x0 DUP6 SSTORE PUSH2 0x81F JUMP JUMPDEST DUP3 PUSH1 0x1F LT PUSH2 0x7F1 JUMPI DUP1 MLOAD PUSH1 0xFF NOT AND DUP4 DUP1 ADD OR DUP6 SSTORE PUSH2 0x81F JUMP JUMPDEST DUP3 DUP1 ADD PUSH1 0x1 ADD DUP6 SSTORE DUP3 ISZERO PUSH2 0x81F JUMPI SWAP2 DUP3 ADD JUMPDEST DUP3 DUP2 GT ISZERO PUSH2 0x81E JUMPI DUP3 MLOAD DUP3 SSTORE SWAP2 PUSH1 0x20 ADD SWAP2 SWAP1 PUSH1 0x1 ADD SWAP1 PUSH2 0x803 JUMP JUMPDEST JUMPDEST POP SWAP1 POP PUSH2 0x82C SWAP2 SWAP1 PUSH2 0x830 JUMP JUMPDEST POP SWAP1 JUMP JUMPDEST JUMPDEST DUP1 DUP3 GT ISZERO PUSH2 0x849 JUMPI PUSH1 0x0 DUP2 PUSH1 0x0 SWAP1 SSTORE POP PUSH1 0x1 ADD PUSH2 0x831 JUMP JUMPDEST POP SWAP1 JUMP JUMPDEST PUSH1 0x0 PUSH1 0x40 MLOAD SWAP1 POP SWAP1 JUMP JUMPDEST PUSH1 0x0 DUP1 REVERT JUMPDEST PUSH1 0x0 DUP1 REVERT JUMPDEST PUSH1 0x0 DUP1 REVERT JUMPDEST PUSH1 0x0 DUP1 REVERT JUMPDEST PUSH1 0x0 DUP1 REVERT JUMPDEST PUSH1 0x0 DUP1 DUP4 PUSH1 0x1F DUP5 ADD SLT PUSH2 0x886 JUMPI PUSH2 0x885 PUSH2 0x861 JUMP JUMPDEST JUMPDEST DUP3 CALLDATALOAD SWAP1 POP PUSH8 0xFFFFFFFFFFFFFFFF DUP2 GT ISZERO PUSH2 0x8A3 JUMPI PUSH2 0x8A2 PUSH2 0x866 JUMP JUMPDEST JUMPDEST PUSH1 0x20 DUP4 ADD SWAP2 POP DUP4 PUSH1 0x1 DUP3 MUL DUP4 ADD GT ISZERO PUSH2 0x8BF JUMPI PUSH2 0x8BE PUSH2 0x86B JUMP JUMPDEST JUMPDEST SWAP3 POP SWAP3 SWAP1 POP JUMP JUMPDEST PUSH1 0x0 DUP1 PUSH1 0x20 DUP4 DUP6 SUB SLT ISZERO PUSH2 0x8DD JUMPI PUSH2 0x8DC PUSH2 0x857 JUMP JUMPDEST JUMPDEST PUSH1 0x0 DUP4 ADD CALLDATALOAD PUSH8 0xFFFFFFFFFFFFFFFF DUP2 GT ISZERO PUSH2 0x8FB JUMPI PUSH2 0x8FA PUSH2 0x85C JUMP JUMPDEST JUMPDEST PUSH2 0x907 DUP6 DUP3 DUP7 ADD PUSH2 0x870 JUMP JUMPDEST SWAP3 POP SWAP3 POP POP SWAP3 POP SWAP3 SWAP1 POP JUMP JUMPDEST PUSH1 0x0 DUP2 SWAP1 POP SWAP2 SWAP1 POP JUMP JUMPDEST PUSH2 0x926 DUP2 PUSH2 0x913 JUMP JUMPDEST DUP2 EQ PUSH2 0x931 JUMPI PUSH1 0x0 DUP1 REVERT JUMPDEST POP JUMP JUMPDEST PUSH1 0x0 DUP2 CALLDATALOAD SWAP1 POP PUSH2 0x943 DUP2 PUSH2 0x91D JUMP JUMPDEST SWAP3 SWAP2 POP POP JUMP JUMPDEST PUSH1 0x0 PUSH1 0x20 DUP3 DUP5 SUB SLT ISZERO PUSH2 0x95F JUMPI PUSH2 0x95E PUSH2 0x857 JUMP JUMPDEST JUMPDEST PUSH1 0x0 PUSH2 0x96D DUP5 DUP3 DUP6 ADD PUSH2 0x934 JUMP JUMPDEST SWAP2 POP POP SWAP3 SWAP2 POP POP JUMP JUMPDEST PUSH1 0x0 DUP2 MLOAD SWAP1 POP SWAP2 SWAP1 POP JUMP JUMPDEST PUSH1 0x0 DUP3 DUP3 MSTORE PUSH1 0x20 DUP3 ADD SWAP1 POP SWAP3 SWAP2 POP POP JUMP JUMPDEST PUSH1 0x0 JUMPDEST DUP4 DUP2 LT ISZERO PUSH2 0x9B0 JUMPI DUP1 DUP3 ADD MLOAD DUP2 DUP5 ADD MSTORE PUSH1 0x20 DUP2 ADD SWAP1 POP PUSH2 0x995 JUMP JUMPDEST DUP4 DUP2 GT ISZERO PUSH2 0x9BF JUMPI PUSH1 0x0 DUP5 DUP5 ADD MSTORE JUMPDEST POP POP POP POP JUMP JUMPDEST PUSH1 0x0 PUSH1 0x1F NOT PUSH1 0x1F DUP4 ADD AND SWAP1 POP SWAP2 SWAP1 POP JUMP JUMPDEST PUSH1 0x0 PUSH2 0x9E1 DUP3 PUSH2 0x976 JUMP JUMPDEST PUSH2 0x9EB DUP2 DUP6 PUSH2 0x981 JUMP JUMPDEST SWAP4 POP PUSH2 0x9FB DUP2 DUP6 PUSH1 0x20 DUP7 ADD PUSH2 0x992 JUMP JUMPDEST PUSH2 0xA04 DUP2 PUSH2 0x9C5 JUMP JUMPDEST DUP5 ADD SWAP2 POP POP SWAP3 SWAP2 POP POP JUMP JUMPDEST PUSH1 0x0 PUSH1 0x20 DUP3 ADD SWAP1 POP DUP2 DUP2 SUB PUSH1 0x0 DUP4 ADD MSTORE PUSH2 0xA29 DUP2 DUP5 PUSH2 0x9D6 JUMP JUMPDEST SWAP1 POP SWAP3 SWAP2 POP POP JUMP JUMPDEST PUSH1 0x0 DUP1 REVERT JUMPDEST PUSH32 0x4E487B7100000000000000000000000000000000000000000000000000000000 PUSH1 0x0 MSTORE PUSH1 0x41 PUSH1 0x4 MSTORE PUSH1 0x24 PUSH1 0x0 REVERT JUMPDEST PUSH2 0xA6E DUP3 PUSH2 0x9C5 JUMP JUMPDEST DUP2 ADD DUP2 DUP2 LT PUSH8 0xFFFFFFFFFFFFFFFF DUP3 GT OR ISZERO PUSH2 0xA8D JUMPI PUSH2 0xA8C PUSH2 0xA36 JUMP JUMPDEST JUMPDEST DUP1 PUSH1 0x40 MSTORE POP POP POP JUMP JUMPDEST PUSH1 0x0 PUSH2 0xAA0 PUSH2 0x84D JUMP JUMPDEST SWAP1 POP PUSH2 0xAAC DUP3 DUP3 PUSH2 0xA65 JUMP JUMPDEST SWAP2 SWAP1 POP JUMP JUMPDEST PUSH1 0x0 PUSH8 0xFFFFFFFFFFFFFFFF DUP3 GT ISZERO PUSH2 0xACC JUMPI PUSH2 0xACB PUSH2 0xA36 JUMP JUMPDEST JUMPDEST PUSH2 0xAD5 DUP3 PUSH2 0x9C5 JUMP JUMPDEST SWAP1 POP PUSH1 0x20 DUP2 ADD SWAP1 POP SWAP2 SWAP1 POP JUMP JUMPDEST DUP3 DUP2 DUP4 CALLDATACOPY PUSH1 0x0 DUP4 DUP4 ADD MSTORE POP POP POP JUMP JUMPDEST PUSH1 0x0 PUSH2 0xB04 PUSH2 0xAFF DUP5 PUSH2 0xAB1 JUMP JUMPDEST PUSH2 0xA96 JUMP JUMPDEST SWAP1 POP DUP3 DUP2 MSTORE PUSH1 0x20 DUP2 ADD DUP5 DUP5 DUP5 ADD GT ISZERO PUSH2 0xB20 JUMPI PUSH2 0xB1F PUSH2 0xA31 JUMP JUMPDEST JUMPDEST PUSH2 0xB2B DUP5 DUP3 DUP6 PUSH2 0xAE2 JUMP JUMPDEST POP SWAP4 SWAP3 POP POP POP JUMP JUMPDEST PUSH1 0x0 DUP3 PUSH1 0x1F DUP4 ADD SLT PUSH2 0xB48 JUMPI PUSH2 0xB47 PUSH2 0x861 JUMP JUMPDEST JUMPDEST DUP2 CALLDATALOAD PUSH2 0xB58 DUP5 DUP3 PUSH1 0x20 DUP7 ADD PUSH2 0xAF1 JUMP JUMPDEST SWAP2 POP POP SWAP3 SWAP2 POP POP JUMP JUMPDEST PUSH1 0x0 DUP1 PUSH1 0x40 DUP4 DUP6 SUB SLT ISZERO PUSH2 0xB78 JUMPI PUSH2 0xB77 PUSH2 0x857 JUMP JUMPDEST JUMPDEST PUSH1 0x0 DUP4 ADD CALLDATALOAD PUSH8 0xFFFFFFFFFFFFFFFF DUP2 GT ISZERO PUSH2 0xB96 JUMPI PUSH2 0xB95 PUSH2 0x85C JUMP JUMPDEST JUMPDEST PUSH2 0xBA2 DUP6 DUP3 DUP7 ADD PUSH2 0xB33 JUMP JUMPDEST SWAP3 POP POP PUSH1 0x20 PUSH2 0xBB3 DUP6 DUP3 DUP7 ADD PUSH2 0x934 JUMP JUMPDEST SWAP2 POP POP SWAP3 POP SWAP3 SWAP1 POP JUMP JUMPDEST PUSH1 0x0 PUSH20 0xFFFFFFFFFFFFFFFFFFFFFFFFFFFFFFFFFFFFFFFF DUP3 AND SWAP1 POP SWAP2 SWAP1 POP JUMP JUMPDEST PUSH1 0x0 PUSH2 0xBE8 DUP3 PUSH2 0xBBD JUMP JUMPDEST SWAP1 POP SWAP2 SWAP1 POP JUMP JUMPDEST PUSH2 0xBF8 DUP2 PUSH2 0xBDD JUMP JUMPDEST DUP3 MSTORE POP POP JUMP JUMPDEST PUSH1 0x0 PUSH1 0x40 DUP3 ADD SWAP1 POP PUSH2 0xC13 PUSH1 0x0 DUP4 ADD DUP6 PUSH2 0xBEF JUMP JUMPDEST DUP2 DUP2 SUB PUSH1 0x20 DUP4 ADD MSTORE PUSH2 0xC25 DUP2 DUP5 PUSH2 0x9D6 JUMP JUMPDEST SWAP1 POP SWAP4 SWAP3 POP POP POP JUMP JUMPDEST PUSH2 0xC37 DUP2 PUSH2 0x913 JUMP JUMPDEST DUP3 MSTORE POP POP JUMP JUMPDEST PUSH1 0x0 PUSH1 0x20 DUP3 ADD SWAP1 POP PUSH2 0xC52 PUSH1 0x0 DUP4 ADD DUP5 PUSH2 0xC2E JUMP JUMPDEST SWAP3 SWAP2 POP POP JUMP JUMPDEST PUSH1 0x0 DUP2 MLOAD SWAP1 POP SWAP2 SWAP1 POP JUMP JUMPDEST PUSH1 0x0 DUP3 DUP3 MSTORE PUSH1 0x20 DUP3 ADD SWAP1 POP SWAP3 SWAP2 POP POP JUMP JUMPDEST PUSH1 0x0 DUP2 SWAP1 POP PUSH1 0x20 DUP3 ADD SWAP1 POP SWAP2 SWAP1 POP JUMP JUMPDEST PUSH1 0x0 DUP3 DUP3 MSTORE PUSH1 0x20 DUP3 ADD SWAP1 POP SWAP3 SWAP2 POP POP JUMP JUMPDEST PUSH1 0x0 PUSH2 0xCA0 DUP3 PUSH2 0x976 JUMP JUMPDEST PUSH2 0xCAA DUP2 DUP6 PUSH2 0xC84 JUMP JUMPDEST SWAP4 POP PUSH2 0xCBA DUP2 DUP6 PUSH1 0x20 DUP7 ADD PUSH2 0x992 JUMP JUMPDEST PUSH2 0xCC3 DUP2 PUSH2 0x9C5 JUMP JUMPDEST DUP5 ADD SWAP2 POP POP SWAP3 SWAP2 POP POP JUMP JUMPDEST PUSH1 0x0 PUSH2 0xCDA DUP4 DUP4 PUSH2 0xC95 JUMP JUMPDEST SWAP1 POP SWAP3 SWAP2 POP POP JUMP JUMPDEST PUSH1 0x0 PUSH1 0x20 DUP3 ADD SWAP1 POP SWAP2 SWAP1 POP JUMP JUMPDEST PUSH1 0x0 PUSH2 0xCFA DUP3 PUSH2 0xC58 JUMP JUMPDEST PUSH2 0xD04 DUP2 DUP6 PUSH2 0xC63 JUMP JUMPDEST SWAP4 POP DUP4 PUSH1 0x20 DUP3 MUL DUP6 ADD PUSH2 0xD16 DUP6 PUSH2 0xC74 JUMP JUMPDEST DUP1 PUSH1 0x0 JUMPDEST DUP6 DUP2 LT ISZERO PUSH2 0xD52 JUMPI DUP5 DUP5 SUB DUP10 MSTORE DUP2 MLOAD PUSH2 0xD33 DUP6 DUP3 PUSH2 0xCCE JUMP JUMPDEST SWAP5 POP PUSH2 0xD3E DUP4 PUSH2 0xCE2 JUMP JUMPDEST SWAP3 POP PUSH1 0x20 DUP11 ADD SWAP10 POP POP PUSH1 0x1 DUP2 ADD SWAP1 POP PUSH2 0xD1A JUMP JUMPDEST POP DUP3 SWAP8 POP DUP8 SWAP6 POP POP POP POP POP POP SWAP3 SWAP2 POP POP JUMP JUMPDEST PUSH1 0x0 PUSH1 0x20 DUP3 ADD SWAP1 POP DUP2 DUP2 SUB PUSH1 0x0 DUP4 ADD MSTORE PUSH2 0xD7E DUP2 DUP5 PUSH2 0xCEF JUMP JUMPDEST SWAP1 POP SWAP3 SWAP2 POP POP JUMP JUMPDEST PUSH1 0x0 DUP1 PUSH1 0x0 DUP1 PUSH1 0x40 DUP6 DUP8 SUB SLT ISZERO PUSH2 0xDA0 JUMPI PUSH2 0xD9F PUSH2 0x857 JUMP JUMPDEST JUMPDEST PUSH1 0x0 DUP6 ADD CALLDATALOAD PUSH8 0xFFFFFFFFFFFFFFFF DUP2 GT ISZERO PUSH2 0xDBE JUMPI PUSH2 0xDBD PUSH2 0x85C JUMP JUMPDEST JUMPDEST PUSH2 0xDCA DUP8 DUP3 DUP9 ADD PUSH2 0x870 JUMP JUMPDEST SWAP5 POP SWAP5 POP POP PUSH1 0x20 DUP6 ADD CALLDATALOAD PUSH8 0xFFFFFFFFFFFFFFFF DUP2 GT ISZERO PUSH2 0xDED JUMPI PUSH2 0xDEC PUSH2 0x85C JUMP JUMPDEST JUMPDEST PUSH2 0xDF9 DUP8 DUP3 DUP9 ADD PUSH2 0x870 JUMP JUMPDEST SWAP3 POP SWAP3 POP POP SWAP3 SWAP6 SWAP2 SWAP5 POP SWAP3 POP JUMP JUMPDEST PUSH32 0x4F6E6C79204F776E657220416374696F6E210000000000000000000000000000 PUSH1 0x0 DUP3 ADD MSTORE POP JUMP JUMPDEST PUSH1 0x0 PUSH2 0xE3D PUSH1 0x12 DUP4 PUSH2 0x981 JUMP JUMPDEST SWAP2 POP PUSH2 0xE48 DUP3 PUSH2 0xE07 JUMP JUMPDEST PUSH1 0x20 DUP3 ADD SWAP1 POP SWAP2 SWAP1 POP JUMP JUMPDEST PUSH1 0x0 PUSH1 0x20 DUP3 ADD SWAP1 POP DUP2 DUP2 SUB PUSH1 0x0 DUP4 ADD MSTORE PUSH2 0xE6C DUP2 PUSH2 0xE30 JUMP JUMPDEST SWAP1 POP SWAP2 SWAP1 POP JUMP JUMPDEST PUSH32 0x4E487B7100000000000000000000000000000000000000000000000000000000 PUSH1 0x0 MSTORE PUSH1 0x22 PUSH1 0x4 MSTORE PUSH1 0x24 PUSH1 0x0 REVERT JUMPDEST PUSH1 0x0 PUSH1 0x2 DUP3 DIV SWAP1 POP PUSH1 0x1 DUP3 AND DUP1 PUSH2 0xEBA JUMPI PUSH1 0x7F DUP3 AND SWAP2 POP JUMPDEST PUSH1 0x20 DUP3 LT DUP2 EQ ISZERO PUSH2 0xECE JUMPI PUSH2 0xECD PUSH2 0xE73 JUMP JUMPDEST JUMPDEST POP SWAP2 SWAP1 POP JUMP JUMPDEST PUSH1 0x0 DUP2 SWAP1 POP SWAP3 SWAP2 POP POP JUMP JUMPDEST PUSH1 0x0 PUSH2 0xEEB DUP4 DUP6 PUSH2 0xED4 JUMP JUMPDEST SWAP4 POP PUSH2 0xEF8 DUP4 DUP6 DUP5 PUSH2 0xAE2 JUMP JUMPDEST DUP3 DUP5 ADD SWAP1 POP SWAP4 SWAP3 POP POP POP JUMP JUMPDEST PUSH1 0x0 PUSH2 0xF11 DUP3 DUP5 DUP7 PUSH2 0xEDF JUMP JUMPDEST SWAP2 POP DUP2 SWAP1 POP SWAP4 SWAP3 POP POP POP JUMP JUMPDEST PUSH32 0x4E487B7100000000000000000000000000000000000000000000000000000000 PUSH1 0x0 MSTORE PUSH1 0x32 PUSH1 0x4 MSTORE PUSH1 0x24 PUSH1 0x0 REVERT JUMPDEST PUSH32 0x4E487B7100000000000000000000000000000000000000000000000000000000 PUSH1 0x0 MSTORE PUSH1 0x11 PUSH1 0x4 MSTORE PUSH1 0x24 PUSH1 0x0 REVERT JUMPDEST PUSH1 0x0 PUSH2 0xF86 DUP3 PUSH2 0x913 JUMP JUMPDEST SWAP2 POP PUSH32 0xFFFFFFFFFFFFFFFFFFFFFFFFFFFFFFFFFFFFFFFFFFFFFFFFFFFFFFFFFFFFFFFF DUP3 EQ ISZERO PUSH2 0xFB9 JUMPI PUSH2 0xFB8 PUSH2 0xF4C JUMP JUMPDEST JUMPDEST PUSH1 0x1 DUP3 ADD SWAP1 POP SWAP2 SWAP1 POP JUMP INVALID LOG2 PUSH5 0x6970667358 0x22 SLT KECCAK256 NUMBER 0xC2 0xCC 0xBE SWAP11 0xE8 0xB7 DUP16 0xE DIFFICULTY SELFDESTRUCT STOP DUP13 0xCB PUSH4 0xE04B756 MULMOD CALLVALUE SWAP6 0xAA CALLER SIGNEXTEND PUSH7 0x20ABB130155F64 PUSH20 0x6F6C634300080800330000000000000000000000 "
	},
	"abi": [
		{
			"inputs": [],
			"stateMutability": "nonpayable",
			"type": "constructor"
		},
		{
			"inputs": [
				{
					"internalType": "string",
					"name": "_articleHash",
					"type": "string"
				}
			],
			"name": "addArticle",
			"outputs": [],
			"stateMutability": "nonpayable",
			"type": "function"
		},
		{
			"inputs": [
				{
					"internalType": "string",
					"name": "_articleHash",
					"type": "string"
				},
				{
					"internalType": "string",
					"name": "_userComment",
					"type": "string"
				}
			],
			"name": "addComment",
			"outputs": [],
			"stateMutability": "nonpayable",
			"type": "function"
		},
		{
			"inputs": [
				{
					"internalType": "uint256",
					"name": "",
					"type": "uint256"
				}
			],
			"name": "articleHash",
			"outputs": [
				{
					"internalType": "string",
					"name": "",
					"type": "string"
				}
			],
			"stateMutability": "view",
			"type": "function"
		},
		{
			"inputs": [],
			"name": "articleHashLength",
			"outputs": [
				{
					"internalType": "uint256",
					"name": "",
					"type": "uint256"
				}
			],
			"stateMutability": "view",
			"type": "function"
		},
		{
			"inputs": [
				{
					"internalType": "string",
					"name": "",
					"type": "string"
				},
				{
					"internalType": "uint256",
					"name": "",
					"type": "uint256"
				}
			],
			"name": "articleToUserComments",
			"outputs": [
				{
					"internalType": "address",
					"name": "userAddress",
					"type": "address"
				},
				{
					"internalType": "string",
					"name": "comment",
					"type": "string"
				}
			],
			"stateMutability": "view",
			"type": "function"
		},
		{
			"inputs": [
				{
					"internalType": "string",
					"name": "_articleHash",
					"type": "string"
				}
			],
			"name": "getCommentsOnArticle",
			"outputs": [
				{
					"internalType": "string[]",
					"name": "",
					"type": "string[]"
				}
			],
			"stateMutability": "view",
			"type": "function"
		}
	],
	"storageLayout": {
		"storage": [
			{
				"astId": 7,
				"contract": "contracts/OpinioNect.sol:OpinioNect",
				"label": "articleHash",
				"offset": 0,
				"slot": "0",
				"type": "t_array(t_string_storage)dyn_storage"
			},
			{
				"astId": 18,
				"contract": "contracts/OpinioNect.sol:OpinioNect",
				"label": "articleToUserComments",
				"offset": 0,
				"slot": "1",
				"type": "t_mapping(t_string_memory_ptr,t_array(t_struct(UserComment)12_storage)dyn_storage)"
			}
		],
		"types": {
			"t_address": {
				"encoding": "inplace",
				"label": "address",
				"numberOfBytes": "20"
			},
			"t_array(t_string_storage)dyn_storage": {
				"base": "t_string_storage",
				"encoding": "dynamic_array",
				"label": "string[]",
				"numberOfBytes": "32"
			},
			"t_array(t_struct(UserComment)12_storage)dyn_storage": {
				"base": "t_struct(UserComment)12_storage",
				"encoding": "dynamic_array",
				"label": "struct OpinioNect.UserComment[]",
				"numberOfBytes": "32"
			},
			"t_mapping(t_string_memory_ptr,t_array(t_struct(UserComment)12_storage)dyn_storage)": {
				"encoding": "mapping",
				"key": "t_string_memory_ptr",
				"label": "mapping(string => struct OpinioNect.UserComment[])",
				"numberOfBytes": "32",
				"value": "t_array(t_struct(UserComment)12_storage)dyn_storage"
			},
			"t_string_memory_ptr": {
				"encoding": "bytes",
				"label": "string",
				"numberOfBytes": "32"
			},
			"t_string_storage": {
				"encoding": "bytes",
				"label": "string",
				"numberOfBytes": "32"
			},
			"t_struct(UserComment)12_storage": {
				"encoding": "inplace",
				"label": "struct OpinioNect.UserComment",
				"members": [
					{
						"astId": 9,
						"contract": "contracts/OpinioNect.sol:OpinioNect",
						"label": "userAddress",
						"offset": 0,
						"slot": "0",
						"type": "t_address"
					},
					{
						"astId": 11,
						"contract": "contracts/OpinioNect.sol:OpinioNect",
						"label": "comment",
						"offset": 0,
						"slot": "1",
						"type": "t_string_storage"
					}
				],
				"numberOfBytes": "64"
			}
		}
	},
	"web3Deploy": "var opinionectContract = new web3.eth.Contract([{\"inputs\":[],\"stateMutability\":\"nonpayable\",\"type\":\"constructor\"},{\"inputs\":[{\"internalType\":\"string\",\"name\":\"_articleHash\",\"type\":\"string\"}],\"name\":\"addArticle\",\"outputs\":[],\"stateMutability\":\"nonpayable\",\"type\":\"function\"},{\"inputs\":[{\"internalType\":\"string\",\"name\":\"_articleHash\",\"type\":\"string\"},{\"internalType\":\"string\",\"name\":\"_userComment\",\"type\":\"string\"}],\"name\":\"addComment\",\"outputs\":[],\"stateMutability\":\"nonpayable\",\"type\":\"function\"},{\"inputs\":[{\"internalType\":\"uint256\",\"name\":\"\",\"type\":\"uint256\"}],\"name\":\"articleHash\",\"outputs\":[{\"internalType\":\"string\",\"name\":\"\",\"type\":\"string\"}],\"stateMutability\":\"view\",\"type\":\"function\"},{\"inputs\":[],\"name\":\"articleHashLength\",\"outputs\":[{\"internalType\":\"uint256\",\"name\":\"\",\"type\":\"uint256\"}],\"stateMutability\":\"view\",\"type\":\"function\"},{\"inputs\":[{\"internalType\":\"string\",\"name\":\"\",\"type\":\"string\"},{\"internalType\":\"uint256\",\"name\":\"\",\"type\":\"uint256\"}],\"name\":\"articleToUserComments\",\"outputs\":[{\"internalType\":\"address\",\"name\":\"userAddress\",\"type\":\"address\"},{\"internalType\":\"string\",\"name\":\"comment\",\"type\":\"string\"}],\"stateMutability\":\"view\",\"type\":\"function\"},{\"inputs\":[{\"internalType\":\"string\",\"name\":\"_articleHash\",\"type\":\"string\"}],\"name\":\"getCommentsOnArticle\",\"outputs\":[{\"internalType\":\"string[]\",\"name\":\"\",\"type\":\"string[]\"}],\"stateMutability\":\"view\",\"type\":\"function\"}]);\nvar opinionect = opinionectContract.deploy({\n     data: '0x60a060405234801561001057600080fd5b503373ffffffffffffffffffffffffffffffffffffffff1660808173ffffffffffffffffffffffffffffffffffffffff1660601b8152505060805160601c610ffa61006660003960006101500152610ffa6000f3fe608060405234801561001057600080fd5b50600436106100625760003560e01c80630c971a46146100675780630f4a52c7146100835780635ec30d25146100b3578063623ad5ba146100e45780636b76dba114610102578063ae5ff90514610132575b600080fd5b610081600480360381019061007c91906108c6565b61014e565b005b61009d60048036038101906100989190610949565b61021e565b6040516100aa9190610a0f565b60405180910390f35b6100cd60048036038101906100c89190610b61565b6102ca565b6040516100db929190610bfe565b60405180910390f35b6100ec6103c9565b6040516100f99190610c3d565b60405180910390f35b61011c600480360381019061011791906108c6565b6103db565b6040516101299190610d64565b60405180910390f35b61014c60048036038101906101479190610d86565b6105fa565b005b7f000000000000000000000000000000000000000000000000000000000000000073ffffffffffffffffffffffffffffffffffffffff163373ffffffffffffffffffffffffffffffffffffffff16146101dc576040517f08c379a00000000000000000000000000000000000000000000000000000000081526004016101d390610e53565b60405180910390fd5b6000828290918060018154018082558091505060019003906000526020600020016000909192909192909192909192509190610219929190610724565b505050565b6000818154811061022e57600080fd5b90600052602060002001600091509050805461024990610ea2565b80601f016020809104026020016040519081016040528092919081815260200182805461027590610ea2565b80156102c25780601f10610297576101008083540402835291602001916102c2565b820191906000526020600020905b8154815290600101906020018083116102a557829003601f168201915b505050505081565b60018280516020810182018051848252602083016020850120818352809550505050505081815481106102fc57600080fd5b9060005260206000209060020201600091509150508060000160009054906101000a900473ffffffffffffffffffffffffffffffffffffffff169080600101805461034690610ea2565b80601f016020809104026020016040519081016040528092919081815260200182805461037290610ea2565b80156103bf5780601f10610394576101008083540402835291602001916103bf565b820191906000526020600020905b8154815290600101906020018083116103a257829003601f168201915b5050505050905082565b60008060008054905090508091505090565b60606000600184846040516103f1929190610f04565b9081526020016040518091039020805480602002602001604051908101604052809291908181526020016000905b8282101561053957838290600052602060002090600202016040518060400160405290816000820160009054906101000a900473ffffffffffffffffffffffffffffffffffffffff1673ffffffffffffffffffffffffffffffffffffffff1673ffffffffffffffffffffffffffffffffffffffff1681526020016001820180546104a890610ea2565b80601f01602080910402602001604051908101604052809291908181526020018280546104d490610ea2565b80156105215780601f106104f657610100808354040283529160200191610521565b820191906000526020600020905b81548152906001019060200180831161050457829003601f168201915b5050505050815250508152602001906001019061041f565b5050505090506000815167ffffffffffffffff81111561055c5761055b610a36565b5b60405190808252806020026020018201604052801561058f57816020015b606081526020019060019003908161057a5790505b50905060005b82518110156105ee578281815181106105b1576105b0610f1d565b5b6020026020010151602001518282815181106105d0576105cf610f1d565b5b602002602001018190525080806105e690610f7b565b915050610595565b50809250505092915050565b600060405180604001604052803373ffffffffffffffffffffffffffffffffffffffff16815260200184848080601f016020809104026020016040519081016040528093929190818152602001838380828437600081840152601f19601f8201169050808301925050505050505081525090506001858560405161067f929190610f04565b908152602001604051809103902081908060018154018082558091505060019003906000526020600020906002020160009091909190915060008201518160000160006101000a81548173ffffffffffffffffffffffffffffffffffffffff021916908373ffffffffffffffffffffffffffffffffffffffff160217905550602082015181600101908051906020019061071a9291906107aa565b5050505050505050565b82805461073090610ea2565b90600052602060002090601f0160209004810192826107525760008555610799565b82601f1061076b57803560ff1916838001178555610799565b82800160010185558215610799579182015b8281111561079857823582559160200191906001019061077d565b5b5090506107a69190610830565b5090565b8280546107b690610ea2565b90600052602060002090601f0160209004810192826107d8576000855561081f565b82601f106107f157805160ff191683800117855561081f565b8280016001018555821561081f579182015b8281111561081e578251825591602001919060010190610803565b5b50905061082c9190610830565b5090565b5b80821115610849576000816000905550600101610831565b5090565b6000604051905090565b600080fd5b600080fd5b600080fd5b600080fd5b600080fd5b60008083601f84011261088657610885610861565b5b8235905067ffffffffffffffff8111156108a3576108a2610866565b5b6020830191508360018202830111156108bf576108be61086b565b5b9250929050565b600080602083850312156108dd576108dc610857565b5b600083013567ffffffffffffffff8111156108fb576108fa61085c565b5b61090785828601610870565b92509250509250929050565b6000819050919050565b61092681610913565b811461093157600080fd5b50565b6000813590506109438161091d565b92915050565b60006020828403121561095f5761095e610857565b5b600061096d84828501610934565b91505092915050565b600081519050919050565b600082825260208201905092915050565b60005b838110156109b0578082015181840152602081019050610995565b838111156109bf576000848401525b50505050565b6000601f19601f8301169050919050565b60006109e182610976565b6109eb8185610981565b93506109fb818560208601610992565b610a04816109c5565b840191505092915050565b60006020820190508181036000830152610a2981846109d6565b905092915050565b600080fd5b7f4e487b7100000000000000000000000000000000000000000000000000000000600052604160045260246000fd5b610a6e826109c5565b810181811067ffffffffffffffff82111715610a8d57610a8c610a36565b5b80604052505050565b6000610aa061084d565b9050610aac8282610a65565b919050565b600067ffffffffffffffff821115610acc57610acb610a36565b5b610ad5826109c5565b9050602081019050919050565b82818337600083830152505050565b6000610b04610aff84610ab1565b610a96565b905082815260208101848484011115610b2057610b1f610a31565b5b610b2b848285610ae2565b509392505050565b600082601f830112610b4857610b47610861565b5b8135610b58848260208601610af1565b91505092915050565b60008060408385031215610b7857610b77610857565b5b600083013567ffffffffffffffff811115610b9657610b9561085c565b5b610ba285828601610b33565b9250506020610bb385828601610934565b9150509250929050565b600073ffffffffffffffffffffffffffffffffffffffff82169050919050565b6000610be882610bbd565b9050919050565b610bf881610bdd565b82525050565b6000604082019050610c136000830185610bef565b8181036020830152610c2581846109d6565b90509392505050565b610c3781610913565b82525050565b6000602082019050610c526000830184610c2e565b92915050565b600081519050919050565b600082825260208201905092915050565b6000819050602082019050919050565b600082825260208201905092915050565b6000610ca082610976565b610caa8185610c84565b9350610cba818560208601610992565b610cc3816109c5565b840191505092915050565b6000610cda8383610c95565b905092915050565b6000602082019050919050565b6000610cfa82610c58565b610d048185610c63565b935083602082028501610d1685610c74565b8060005b85811015610d525784840389528151610d338582610cce565b9450610d3e83610ce2565b925060208a01995050600181019050610d1a565b50829750879550505050505092915050565b60006020820190508181036000830152610d7e8184610cef565b905092915050565b60008060008060408587031215610da057610d9f610857565b5b600085013567ffffffffffffffff811115610dbe57610dbd61085c565b5b610dca87828801610870565b9450945050602085013567ffffffffffffffff811115610ded57610dec61085c565b5b610df987828801610870565b925092505092959194509250565b7f4f6e6c79204f776e657220416374696f6e210000000000000000000000000000600082015250565b6000610e3d601283610981565b9150610e4882610e07565b602082019050919050565b60006020820190508181036000830152610e6c81610e30565b9050919050565b7f4e487b7100000000000000000000000000000000000000000000000000000000600052602260045260246000fd5b60006002820490506001821680610eba57607f821691505b60208210811415610ece57610ecd610e73565b5b50919050565b600081905092915050565b6000610eeb8385610ed4565b9350610ef8838584610ae2565b82840190509392505050565b6000610f11828486610edf565b91508190509392505050565b7f4e487b7100000000000000000000000000000000000000000000000000000000600052603260045260246000fd5b7f4e487b7100000000000000000000000000000000000000000000000000000000600052601160045260246000fd5b6000610f8682610913565b91507fffffffffffffffffffffffffffffffffffffffffffffffffffffffffffffffff821415610fb957610fb8610f4c565b5b60018201905091905056fea264697066735822122043c2ccbe9ae8b78f0e44ff008ccb630e04b756093495aa330b6620abb130155f64736f6c63430008080033', \n     arguments: [\n     ]\n}).send({\n     from: web3.eth.accounts[0], \n     gas: '4700000'\n   }, function (e, contract){\n    console.log(e, contract);\n    if (typeof contract.address !== 'undefined') {\n         console.log('Contract mined! address: ' + contract.address + ' transactionHash: ' + contract.transactionHash);\n    }\n })",
	"functionHashes": {
		"0c971a46": "addArticle(string)",
		"ae5ff905": "addComment(string,string)",
		"0f4a52c7": "articleHash(uint256)",
		"623ad5ba": "articleHashLength()",
		"5ec30d25": "articleToUserComments(string,uint256)",
		"6b76dba1": "getCommentsOnArticle(string)"
	},
	"gasEstimates": {
		"Creation": {
			"codeDepositCost": "818000",
			"executionCost": "infinite",
			"totalCost": "infinite"
		},
		"External": {
			"addArticle(string)": "infinite",
			"addComment(string,string)": "infinite",
			"articleHash(uint256)": "infinite",
			"articleHashLength()": "2502",
			"articleToUserComments(string,uint256)": "infinite",
			"getCommentsOnArticle(string)": "infinite"
		}
	},
	"devdoc": {
		"author": "Jaskirat Singh",
		"details": "Does not implement anything",
		"kind": "dev",
		"methods": {},
		"title": "OpinioNect Smart Contract",
		"version": 1
	},
	"userdoc": {
		"kind": "user",
		"methods": {},
		"notice": "This contract is for giving your comments/opinions on an article",
		"version": 1
	},
	"Runtime Bytecode": {
		"immutableReferences": {
			"4": [
				{
					"length": 32,
					"start": 336
				}
			]
		},
		"linkReferences": {},
		"object": "608060405234801561001057600080fd5b50600436106100625760003560e01c80630c971a46146100675780630f4a52c7146100835780635ec30d25146100b3578063623ad5ba146100e45780636b76dba114610102578063ae5ff90514610132575b600080fd5b610081600480360381019061007c91906108c6565b61014e565b005b61009d60048036038101906100989190610949565b61021e565b6040516100aa9190610a0f565b60405180910390f35b6100cd60048036038101906100c89190610b61565b6102ca565b6040516100db929190610bfe565b60405180910390f35b6100ec6103c9565b6040516100f99190610c3d565b60405180910390f35b61011c600480360381019061011791906108c6565b6103db565b6040516101299190610d64565b60405180910390f35b61014c60048036038101906101479190610d86565b6105fa565b005b7f000000000000000000000000000000000000000000000000000000000000000073ffffffffffffffffffffffffffffffffffffffff163373ffffffffffffffffffffffffffffffffffffffff16146101dc576040517f08c379a00000000000000000000000000000000000000000000000000000000081526004016101d390610e53565b60405180910390fd5b6000828290918060018154018082558091505060019003906000526020600020016000909192909192909192909192509190610219929190610724565b505050565b6000818154811061022e57600080fd5b90600052602060002001600091509050805461024990610ea2565b80601f016020809104026020016040519081016040528092919081815260200182805461027590610ea2565b80156102c25780601f10610297576101008083540402835291602001916102c2565b820191906000526020600020905b8154815290600101906020018083116102a557829003601f168201915b505050505081565b60018280516020810182018051848252602083016020850120818352809550505050505081815481106102fc57600080fd5b9060005260206000209060020201600091509150508060000160009054906101000a900473ffffffffffffffffffffffffffffffffffffffff169080600101805461034690610ea2565b80601f016020809104026020016040519081016040528092919081815260200182805461037290610ea2565b80156103bf5780601f10610394576101008083540402835291602001916103bf565b820191906000526020600020905b8154815290600101906020018083116103a257829003601f168201915b5050505050905082565b60008060008054905090508091505090565b60606000600184846040516103f1929190610f04565b9081526020016040518091039020805480602002602001604051908101604052809291908181526020016000905b8282101561053957838290600052602060002090600202016040518060400160405290816000820160009054906101000a900473ffffffffffffffffffffffffffffffffffffffff1673ffffffffffffffffffffffffffffffffffffffff1673ffffffffffffffffffffffffffffffffffffffff1681526020016001820180546104a890610ea2565b80601f01602080910402602001604051908101604052809291908181526020018280546104d490610ea2565b80156105215780601f106104f657610100808354040283529160200191610521565b820191906000526020600020905b81548152906001019060200180831161050457829003601f168201915b5050505050815250508152602001906001019061041f565b5050505090506000815167ffffffffffffffff81111561055c5761055b610a36565b5b60405190808252806020026020018201604052801561058f57816020015b606081526020019060019003908161057a5790505b50905060005b82518110156105ee578281815181106105b1576105b0610f1d565b5b6020026020010151602001518282815181106105d0576105cf610f1d565b5b602002602001018190525080806105e690610f7b565b915050610595565b50809250505092915050565b600060405180604001604052803373ffffffffffffffffffffffffffffffffffffffff16815260200184848080601f016020809104026020016040519081016040528093929190818152602001838380828437600081840152601f19601f8201169050808301925050505050505081525090506001858560405161067f929190610f04565b908152602001604051809103902081908060018154018082558091505060019003906000526020600020906002020160009091909190915060008201518160000160006101000a81548173ffffffffffffffffffffffffffffffffffffffff021916908373ffffffffffffffffffffffffffffffffffffffff160217905550602082015181600101908051906020019061071a9291906107aa565b5050505050505050565b82805461073090610ea2565b90600052602060002090601f0160209004810192826107525760008555610799565b82601f1061076b57803560ff1916838001178555610799565b82800160010185558215610799579182015b8281111561079857823582559160200191906001019061077d565b5b5090506107a69190610830565b5090565b8280546107b690610ea2565b90600052602060002090601f0160209004810192826107d8576000855561081f565b82601f106107f157805160ff191683800117855561081f565b8280016001018555821561081f579182015b8281111561081e578251825591602001919060010190610803565b5b50905061082c9190610830565b5090565b5b80821115610849576000816000905550600101610831565b5090565b6000604051905090565b600080fd5b600080fd5b600080fd5b600080fd5b600080fd5b60008083601f84011261088657610885610861565b5b8235905067ffffffffffffffff8111156108a3576108a2610866565b5b6020830191508360018202830111156108bf576108be61086b565b5b9250929050565b600080602083850312156108dd576108dc610857565b5b600083013567ffffffffffffffff8111156108fb576108fa61085c565b5b61090785828601610870565b92509250509250929050565b6000819050919050565b61092681610913565b811461093157600080fd5b50565b6000813590506109438161091d565b92915050565b60006020828403121561095f5761095e610857565b5b600061096d84828501610934565b91505092915050565b600081519050919050565b600082825260208201905092915050565b60005b838110156109b0578082015181840152602081019050610995565b838111156109bf576000848401525b50505050565b6000601f19601f8301169050919050565b60006109e182610976565b6109eb8185610981565b93506109fb818560208601610992565b610a04816109c5565b840191505092915050565b60006020820190508181036000830152610a2981846109d6565b905092915050565b600080fd5b7f4e487b7100000000000000000000000000000000000000000000000000000000600052604160045260246000fd5b610a6e826109c5565b810181811067ffffffffffffffff82111715610a8d57610a8c610a36565b5b80604052505050565b6000610aa061084d565b9050610aac8282610a65565b919050565b600067ffffffffffffffff821115610acc57610acb610a36565b5b610ad5826109c5565b9050602081019050919050565b82818337600083830152505050565b6000610b04610aff84610ab1565b610a96565b905082815260208101848484011115610b2057610b1f610a31565b5b610b2b848285610ae2565b509392505050565b600082601f830112610b4857610b47610861565b5b8135610b58848260208601610af1565b91505092915050565b60008060408385031215610b7857610b77610857565b5b600083013567ffffffffffffffff811115610b9657610b9561085c565b5b610ba285828601610b33565b9250506020610bb385828601610934565b9150509250929050565b600073ffffffffffffffffffffffffffffffffffffffff82169050919050565b6000610be882610bbd565b9050919050565b610bf881610bdd565b82525050565b6000604082019050610c136000830185610bef565b8181036020830152610c2581846109d6565b90509392505050565b610c3781610913565b82525050565b6000602082019050610c526000830184610c2e565b92915050565b600081519050919050565b600082825260208201905092915050565b6000819050602082019050919050565b600082825260208201905092915050565b6000610ca082610976565b610caa8185610c84565b9350610cba818560208601610992565b610cc3816109c5565b840191505092915050565b6000610cda8383610c95565b905092915050565b6000602082019050919050565b6000610cfa82610c58565b610d048185610c63565b935083602082028501610d1685610c74565b8060005b85811015610d525784840389528151610d338582610cce565b9450610d3e83610ce2565b925060208a01995050600181019050610d1a565b50829750879550505050505092915050565b60006020820190508181036000830152610d7e8184610cef565b905092915050565b60008060008060408587031215610da057610d9f610857565b5b600085013567ffffffffffffffff811115610dbe57610dbd61085c565b5b610dca87828801610870565b9450945050602085013567ffffffffffffffff811115610ded57610dec61085c565b5b610df987828801610870565b925092505092959194509250565b7f4f6e6c79204f776e657220416374696f6e210000000000000000000000000000600082015250565b6000610e3d601283610981565b9150610e4882610e07565b602082019050919050565b60006020820190508181036000830152610e6c81610e30565b9050919050565b7f4e487b7100000000000000000000000000000000000000000000000000000000600052602260045260246000fd5b60006002820490506001821680610eba57607f821691505b60208210811415610ece57610ecd610e73565b5b50919050565b600081905092915050565b6000610eeb8385610ed4565b9350610ef8838584610ae2565b82840190509392505050565b6000610f11828486610edf565b91508190509392505050565b7f4e487b7100000000000000000000000000000000000000000000000000000000600052603260045260246000fd5b7f4e487b7100000000000000000000000000000000000000000000000000000000600052601160045260246000fd5b6000610f8682610913565b91507fffffffffffffffffffffffffffffffffffffffffffffffffffffffffffffffff821415610fb957610fb8610f4c565b5b60018201905091905056fea264697066735822122043c2ccbe9ae8b78f0e44ff008ccb630e04b756093495aa330b6620abb130155f64736f6c63430008080033",
		"opcodes": "PUSH1 0x80 PUSH1 0x40 MSTORE CALLVALUE DUP1 ISZERO PUSH2 0x10 JUMPI PUSH1 0x0 DUP1 REVERT JUMPDEST POP PUSH1 0x4 CALLDATASIZE LT PUSH2 0x62 JUMPI PUSH1 0x0 CALLDATALOAD PUSH1 0xE0 SHR DUP1 PUSH4 0xC971A46 EQ PUSH2 0x67 JUMPI DUP1 PUSH4 0xF4A52C7 EQ PUSH2 0x83 JUMPI DUP1 PUSH4 0x5EC30D25 EQ PUSH2 0xB3 JUMPI DUP1 PUSH4 0x623AD5BA EQ PUSH2 0xE4 JUMPI DUP1 PUSH4 0x6B76DBA1 EQ PUSH2 0x102 JUMPI DUP1 PUSH4 0xAE5FF905 EQ PUSH2 0x132 JUMPI JUMPDEST PUSH1 0x0 DUP1 REVERT JUMPDEST PUSH2 0x81 PUSH1 0x4 DUP1 CALLDATASIZE SUB DUP2 ADD SWAP1 PUSH2 0x7C SWAP2 SWAP1 PUSH2 0x8C6 JUMP JUMPDEST PUSH2 0x14E JUMP JUMPDEST STOP JUMPDEST PUSH2 0x9D PUSH1 0x4 DUP1 CALLDATASIZE SUB DUP2 ADD SWAP1 PUSH2 0x98 SWAP2 SWAP1 PUSH2 0x949 JUMP JUMPDEST PUSH2 0x21E JUMP JUMPDEST PUSH1 0x40 MLOAD PUSH2 0xAA SWAP2 SWAP1 PUSH2 0xA0F JUMP JUMPDEST PUSH1 0x40 MLOAD DUP1 SWAP2 SUB SWAP1 RETURN JUMPDEST PUSH2 0xCD PUSH1 0x4 DUP1 CALLDATASIZE SUB DUP2 ADD SWAP1 PUSH2 0xC8 SWAP2 SWAP1 PUSH2 0xB61 JUMP JUMPDEST PUSH2 0x2CA JUMP JUMPDEST PUSH1 0x40 MLOAD PUSH2 0xDB SWAP3 SWAP2 SWAP1 PUSH2 0xBFE JUMP JUMPDEST PUSH1 0x40 MLOAD DUP1 SWAP2 SUB SWAP1 RETURN JUMPDEST PUSH2 0xEC PUSH2 0x3C9 JUMP JUMPDEST PUSH1 0x40 MLOAD PUSH2 0xF9 SWAP2 SWAP1 PUSH2 0xC3D JUMP JUMPDEST PUSH1 0x40 MLOAD DUP1 SWAP2 SUB SWAP1 RETURN JUMPDEST PUSH2 0x11C PUSH1 0x4 DUP1 CALLDATASIZE SUB DUP2 ADD SWAP1 PUSH2 0x117 SWAP2 SWAP1 PUSH2 0x8C6 JUMP JUMPDEST PUSH2 0x3DB JUMP JUMPDEST PUSH1 0x40 MLOAD PUSH2 0x129 SWAP2 SWAP1 PUSH2 0xD64 JUMP JUMPDEST PUSH1 0x40 MLOAD DUP1 SWAP2 SUB SWAP1 RETURN JUMPDEST PUSH2 0x14C PUSH1 0x4 DUP1 CALLDATASIZE SUB DUP2 ADD SWAP1 PUSH2 0x147 SWAP2 SWAP1 PUSH2 0xD86 JUMP JUMPDEST PUSH2 0x5FA JUMP JUMPDEST STOP JUMPDEST PUSH32 0x0 PUSH20 0xFFFFFFFFFFFFFFFFFFFFFFFFFFFFFFFFFFFFFFFF AND CALLER PUSH20 0xFFFFFFFFFFFFFFFFFFFFFFFFFFFFFFFFFFFFFFFF AND EQ PUSH2 0x1DC JUMPI PUSH1 0x40 MLOAD PUSH32 0x8C379A000000000000000000000000000000000000000000000000000000000 DUP2 MSTORE PUSH1 0x4 ADD PUSH2 0x1D3 SWAP1 PUSH2 0xE53 JUMP JUMPDEST PUSH1 0x40 MLOAD DUP1 SWAP2 SUB SWAP1 REVERT JUMPDEST PUSH1 0x0 DUP3 DUP3 SWAP1 SWAP2 DUP1 PUSH1 0x1 DUP2 SLOAD ADD DUP1 DUP3 SSTORE DUP1 SWAP2 POP POP PUSH1 0x1 SWAP1 SUB SWAP1 PUSH1 0x0 MSTORE PUSH1 0x20 PUSH1 0x0 KECCAK256 ADD PUSH1 0x0 SWAP1 SWAP2 SWAP3 SWAP1 SWAP2 SWAP3 SWAP1 SWAP2 SWAP3 SWAP1 SWAP2 SWAP3 POP SWAP2 SWAP1 PUSH2 0x219 SWAP3 SWAP2 SWAP1 PUSH2 0x724 JUMP JUMPDEST POP POP POP JUMP JUMPDEST PUSH1 0x0 DUP2 DUP2 SLOAD DUP2 LT PUSH2 0x22E JUMPI PUSH1 0x0 DUP1 REVERT JUMPDEST SWAP1 PUSH1 0x0 MSTORE PUSH1 0x20 PUSH1 0x0 KECCAK256 ADD PUSH1 0x0 SWAP2 POP SWAP1 POP DUP1 SLOAD PUSH2 0x249 SWAP1 PUSH2 0xEA2 JUMP JUMPDEST DUP1 PUSH1 0x1F ADD PUSH1 0x20 DUP1 SWAP2 DIV MUL PUSH1 0x20 ADD PUSH1 0x40 MLOAD SWAP1 DUP2 ADD PUSH1 0x40 MSTORE DUP1 SWAP3 SWAP2 SWAP1 DUP2 DUP2 MSTORE PUSH1 0x20 ADD DUP3 DUP1 SLOAD PUSH2 0x275 SWAP1 PUSH2 0xEA2 JUMP JUMPDEST DUP1 ISZERO PUSH2 0x2C2 JUMPI DUP1 PUSH1 0x1F LT PUSH2 0x297 JUMPI PUSH2 0x100 DUP1 DUP4 SLOAD DIV MUL DUP4 MSTORE SWAP2 PUSH1 0x20 ADD SWAP2 PUSH2 0x2C2 JUMP JUMPDEST DUP3 ADD SWAP2 SWAP1 PUSH1 0x0 MSTORE PUSH1 0x20 PUSH1 0x0 KECCAK256 SWAP1 JUMPDEST DUP2 SLOAD DUP2 MSTORE SWAP1 PUSH1 0x1 ADD SWAP1 PUSH1 0x20 ADD DUP1 DUP4 GT PUSH2 0x2A5 JUMPI DUP3 SWAP1 SUB PUSH1 0x1F AND DUP3 ADD SWAP2 JUMPDEST POP POP POP POP POP DUP2 JUMP JUMPDEST PUSH1 0x1 DUP3 DUP1 MLOAD PUSH1 0x20 DUP2 ADD DUP3 ADD DUP1 MLOAD DUP5 DUP3 MSTORE PUSH1 0x20 DUP4 ADD PUSH1 0x20 DUP6 ADD KECCAK256 DUP2 DUP4 MSTORE DUP1 SWAP6 POP POP POP POP POP POP DUP2 DUP2 SLOAD DUP2 LT PUSH2 0x2FC JUMPI PUSH1 0x0 DUP1 REVERT JUMPDEST SWAP1 PUSH1 0x0 MSTORE PUSH1 0x20 PUSH1 0x0 KECCAK256 SWAP1 PUSH1 0x2 MUL ADD PUSH1 0x0 SWAP2 POP SWAP2 POP POP DUP1 PUSH1 0x0 ADD PUSH1 0x0 SWAP1 SLOAD SWAP1 PUSH2 0x100 EXP SWAP1 DIV PUSH20 0xFFFFFFFFFFFFFFFFFFFFFFFFFFFFFFFFFFFFFFFF AND SWAP1 DUP1 PUSH1 0x1 ADD DUP1 SLOAD PUSH2 0x346 SWAP1 PUSH2 0xEA2 JUMP JUMPDEST DUP1 PUSH1 0x1F ADD PUSH1 0x20 DUP1 SWAP2 DIV MUL PUSH1 0x20 ADD PUSH1 0x40 MLOAD SWAP1 DUP2 ADD PUSH1 0x40 MSTORE DUP1 SWAP3 SWAP2 SWAP1 DUP2 DUP2 MSTORE PUSH1 0x20 ADD DUP3 DUP1 SLOAD PUSH2 0x372 SWAP1 PUSH2 0xEA2 JUMP JUMPDEST DUP1 ISZERO PUSH2 0x3BF JUMPI DUP1 PUSH1 0x1F LT PUSH2 0x394 JUMPI PUSH2 0x100 DUP1 DUP4 SLOAD DIV MUL DUP4 MSTORE SWAP2 PUSH1 0x20 ADD SWAP2 PUSH2 0x3BF JUMP JUMPDEST DUP3 ADD SWAP2 SWAP1 PUSH1 0x0 MSTORE PUSH1 0x20 PUSH1 0x0 KECCAK256 SWAP1 JUMPDEST DUP2 SLOAD DUP2 MSTORE SWAP1 PUSH1 0x1 ADD SWAP1 PUSH1 0x20 ADD DUP1 DUP4 GT PUSH2 0x3A2 JUMPI DUP3 SWAP1 SUB PUSH1 0x1F AND DUP3 ADD SWAP2 JUMPDEST POP POP POP POP POP SWAP1 POP DUP3 JUMP JUMPDEST PUSH1 0x0 DUP1 PUSH1 0x0 DUP1 SLOAD SWAP1 POP SWAP1 POP DUP1 SWAP2 POP POP SWAP1 JUMP JUMPDEST PUSH1 0x60 PUSH1 0x0 PUSH1 0x1 DUP5 DUP5 PUSH1 0x40 MLOAD PUSH2 0x3F1 SWAP3 SWAP2 SWAP1 PUSH2 0xF04 JUMP JUMPDEST SWAP1 DUP2 MSTORE PUSH1 0x20 ADD PUSH1 0x40 MLOAD DUP1 SWAP2 SUB SWAP1 KECCAK256 DUP1 SLOAD DUP1 PUSH1 0x20 MUL PUSH1 0x20 ADD PUSH1 0x40 MLOAD SWAP1 DUP2 ADD PUSH1 0x40 MSTORE DUP1 SWAP3 SWAP2 SWAP1 DUP2 DUP2 MSTORE PUSH1 0x20 ADD PUSH1 0x0 SWAP1 JUMPDEST DUP3 DUP3 LT ISZERO PUSH2 0x539 JUMPI DUP4 DUP3 SWAP1 PUSH1 0x0 MSTORE PUSH1 0x20 PUSH1 0x0 KECCAK256 SWAP1 PUSH1 0x2 MUL ADD PUSH1 0x40 MLOAD DUP1 PUSH1 0x40 ADD PUSH1 0x40 MSTORE SWAP1 DUP2 PUSH1 0x0 DUP3 ADD PUSH1 0x0 SWAP1 SLOAD SWAP1 PUSH2 0x100 EXP SWAP1 DIV PUSH20 0xFFFFFFFFFFFFFFFFFFFFFFFFFFFFFFFFFFFFFFFF AND PUSH20 0xFFFFFFFFFFFFFFFFFFFFFFFFFFFFFFFFFFFFFFFF AND PUSH20 0xFFFFFFFFFFFFFFFFFFFFFFFFFFFFFFFFFFFFFFFF AND DUP2 MSTORE PUSH1 0x20 ADD PUSH1 0x1 DUP3 ADD DUP1 SLOAD PUSH2 0x4A8 SWAP1 PUSH2 0xEA2 JUMP JUMPDEST DUP1 PUSH1 0x1F ADD PUSH1 0x20 DUP1 SWAP2 DIV MUL PUSH1 0x20 ADD PUSH1 0x40 MLOAD SWAP1 DUP2 ADD PUSH1 0x40 MSTORE DUP1 SWAP3 SWAP2 SWAP1 DUP2 DUP2 MSTORE PUSH1 0x20 ADD DUP3 DUP1 SLOAD PUSH2 0x4D4 SWAP1 PUSH2 0xEA2 JUMP JUMPDEST DUP1 ISZERO PUSH2 0x521 JUMPI DUP1 PUSH1 0x1F LT PUSH2 0x4F6 JUMPI PUSH2 0x100 DUP1 DUP4 SLOAD DIV MUL DUP4 MSTORE SWAP2 PUSH1 0x20 ADD SWAP2 PUSH2 0x521 JUMP JUMPDEST DUP3 ADD SWAP2 SWAP1 PUSH1 0x0 MSTORE PUSH1 0x20 PUSH1 0x0 KECCAK256 SWAP1 JUMPDEST DUP2 SLOAD DUP2 MSTORE SWAP1 PUSH1 0x1 ADD SWAP1 PUSH1 0x20 ADD DUP1 DUP4 GT PUSH2 0x504 JUMPI DUP3 SWAP1 SUB PUSH1 0x1F AND DUP3 ADD SWAP2 JUMPDEST POP POP POP POP POP DUP2 MSTORE POP POP DUP2 MSTORE PUSH1 0x20 ADD SWAP1 PUSH1 0x1 ADD SWAP1 PUSH2 0x41F JUMP JUMPDEST POP POP POP POP SWAP1 POP PUSH1 0x0 DUP2 MLOAD PUSH8 0xFFFFFFFFFFFFFFFF DUP2 GT ISZERO PUSH2 0x55C JUMPI PUSH2 0x55B PUSH2 0xA36 JUMP JUMPDEST JUMPDEST PUSH1 0x40 MLOAD SWAP1 DUP1 DUP3 MSTORE DUP1 PUSH1 0x20 MUL PUSH1 0x20 ADD DUP3 ADD PUSH1 0x40 MSTORE DUP1 ISZERO PUSH2 0x58F JUMPI DUP2 PUSH1 0x20 ADD JUMPDEST PUSH1 0x60 DUP2 MSTORE PUSH1 0x20 ADD SWAP1 PUSH1 0x1 SWAP1 SUB SWAP1 DUP2 PUSH2 0x57A JUMPI SWAP1 POP JUMPDEST POP SWAP1 POP PUSH1 0x0 JUMPDEST DUP3 MLOAD DUP2 LT ISZERO PUSH2 0x5EE JUMPI DUP3 DUP2 DUP2 MLOAD DUP2 LT PUSH2 0x5B1 JUMPI PUSH2 0x5B0 PUSH2 0xF1D JUMP JUMPDEST JUMPDEST PUSH1 0x20 MUL PUSH1 0x20 ADD ADD MLOAD PUSH1 0x20 ADD MLOAD DUP3 DUP3 DUP2 MLOAD DUP2 LT PUSH2 0x5D0 JUMPI PUSH2 0x5CF PUSH2 0xF1D JUMP JUMPDEST JUMPDEST PUSH1 0x20 MUL PUSH1 0x20 ADD ADD DUP2 SWAP1 MSTORE POP DUP1 DUP1 PUSH2 0x5E6 SWAP1 PUSH2 0xF7B JUMP JUMPDEST SWAP2 POP POP PUSH2 0x595 JUMP JUMPDEST POP DUP1 SWAP3 POP POP POP SWAP3 SWAP2 POP POP JUMP JUMPDEST PUSH1 0x0 PUSH1 0x40 MLOAD DUP1 PUSH1 0x40 ADD PUSH1 0x40 MSTORE DUP1 CALLER PUSH20 0xFFFFFFFFFFFFFFFFFFFFFFFFFFFFFFFFFFFFFFFF AND DUP2 MSTORE PUSH1 0x20 ADD DUP5 DUP5 DUP1 DUP1 PUSH1 0x1F ADD PUSH1 0x20 DUP1 SWAP2 DIV MUL PUSH1 0x20 ADD PUSH1 0x40 MLOAD SWAP1 DUP2 ADD PUSH1 0x40 MSTORE DUP1 SWAP4 SWAP3 SWAP2 SWAP1 DUP2 DUP2 MSTORE PUSH1 0x20 ADD DUP4 DUP4 DUP1 DUP3 DUP5 CALLDATACOPY PUSH1 0x0 DUP2 DUP5 ADD MSTORE PUSH1 0x1F NOT PUSH1 0x1F DUP3 ADD AND SWAP1 POP DUP1 DUP4 ADD SWAP3 POP POP POP POP POP POP POP DUP2 MSTORE POP SWAP1 POP PUSH1 0x1 DUP6 DUP6 PUSH1 0x40 MLOAD PUSH2 0x67F SWAP3 SWAP2 SWAP1 PUSH2 0xF04 JUMP JUMPDEST SWAP1 DUP2 MSTORE PUSH1 0x20 ADD PUSH1 0x40 MLOAD DUP1 SWAP2 SUB SWAP1 KECCAK256 DUP2 SWAP1 DUP1 PUSH1 0x1 DUP2 SLOAD ADD DUP1 DUP3 SSTORE DUP1 SWAP2 POP POP PUSH1 0x1 SWAP1 SUB SWAP1 PUSH1 0x0 MSTORE PUSH1 0x20 PUSH1 0x0 KECCAK256 SWAP1 PUSH1 0x2 MUL ADD PUSH1 0x0 SWAP1 SWAP2 SWAP1 SWAP2 SWAP1 SWAP2 POP PUSH1 0x0 DUP3 ADD MLOAD DUP2 PUSH1 0x0 ADD PUSH1 0x0 PUSH2 0x100 EXP DUP2 SLOAD DUP2 PUSH20 0xFFFFFFFFFFFFFFFFFFFFFFFFFFFFFFFFFFFFFFFF MUL NOT AND SWAP1 DUP4 PUSH20 0xFFFFFFFFFFFFFFFFFFFFFFFFFFFFFFFFFFFFFFFF AND MUL OR SWAP1 SSTORE POP PUSH1 0x20 DUP3 ADD MLOAD DUP2 PUSH1 0x1 ADD SWAP1 DUP1 MLOAD SWAP1 PUSH1 0x20 ADD SWAP1 PUSH2 0x71A SWAP3 SWAP2 SWAP1 PUSH2 0x7AA JUMP JUMPDEST POP POP POP POP POP POP POP POP JUMP JUMPDEST DUP3 DUP1 SLOAD PUSH2 0x730 SWAP1 PUSH2 0xEA2 JUMP JUMPDEST SWAP1 PUSH1 0x0 MSTORE PUSH1 0x20 PUSH1 0x0 KECCAK256 SWAP1 PUSH1 0x1F ADD PUSH1 0x20 SWAP1 DIV DUP2 ADD SWAP3 DUP3 PUSH2 0x752 JUMPI PUSH1 0x0 DUP6 SSTORE PUSH2 0x799 JUMP JUMPDEST DUP3 PUSH1 0x1F LT PUSH2 0x76B JUMPI DUP1 CALLDATALOAD PUSH1 0xFF NOT AND DUP4 DUP1 ADD OR DUP6 SSTORE PUSH2 0x799 JUMP JUMPDEST DUP3 DUP1 ADD PUSH1 0x1 ADD DUP6 SSTORE DUP3 ISZERO PUSH2 0x799 JUMPI SWAP2 DUP3 ADD JUMPDEST DUP3 DUP2 GT ISZERO PUSH2 0x798 JUMPI DUP3 CALLDATALOAD DUP3 SSTORE SWAP2 PUSH1 0x20 ADD SWAP2 SWAP1 PUSH1 0x1 ADD SWAP1 PUSH2 0x77D JUMP JUMPDEST JUMPDEST POP SWAP1 POP PUSH2 0x7A6 SWAP2 SWAP1 PUSH2 0x830 JUMP JUMPDEST POP SWAP1 JUMP JUMPDEST DUP3 DUP1 SLOAD PUSH2 0x7B6 SWAP1 PUSH2 0xEA2 JUMP JUMPDEST SWAP1 PUSH1 0x0 MSTORE PUSH1 0x20 PUSH1 0x0 KECCAK256 SWAP1 PUSH1 0x1F ADD PUSH1 0x20 SWAP1 DIV DUP2 ADD SWAP3 DUP3 PUSH2 0x7D8 JUMPI PUSH1 0x0 DUP6 SSTORE PUSH2 0x81F JUMP JUMPDEST DUP3 PUSH1 0x1F LT PUSH2 0x7F1 JUMPI DUP1 MLOAD PUSH1 0xFF NOT AND DUP4 DUP1 ADD OR DUP6 SSTORE PUSH2 0x81F JUMP JUMPDEST DUP3 DUP1 ADD PUSH1 0x1 ADD DUP6 SSTORE DUP3 ISZERO PUSH2 0x81F JUMPI SWAP2 DUP3 ADD JUMPDEST DUP3 DUP2 GT ISZERO PUSH2 0x81E JUMPI DUP3 MLOAD DUP3 SSTORE SWAP2 PUSH1 0x20 ADD SWAP2 SWAP1 PUSH1 0x1 ADD SWAP1 PUSH2 0x803 JUMP JUMPDEST JUMPDEST POP SWAP1 POP PUSH2 0x82C SWAP2 SWAP1 PUSH2 0x830 JUMP JUMPDEST POP SWAP1 JUMP JUMPDEST JUMPDEST DUP1 DUP3 GT ISZERO PUSH2 0x849 JUMPI PUSH1 0x0 DUP2 PUSH1 0x0 SWAP1 SSTORE POP PUSH1 0x1 ADD PUSH2 0x831 JUMP JUMPDEST POP SWAP1 JUMP JUMPDEST PUSH1 0x0 PUSH1 0x40 MLOAD SWAP1 POP SWAP1 JUMP JUMPDEST PUSH1 0x0 DUP1 REVERT JUMPDEST PUSH1 0x0 DUP1 REVERT JUMPDEST PUSH1 0x0 DUP1 REVERT JUMPDEST PUSH1 0x0 DUP1 REVERT JUMPDEST PUSH1 0x0 DUP1 REVERT JUMPDEST PUSH1 0x0 DUP1 DUP4 PUSH1 0x1F DUP5 ADD SLT PUSH2 0x886 JUMPI PUSH2 0x885 PUSH2 0x861 JUMP JUMPDEST JUMPDEST DUP3 CALLDATALOAD SWAP1 POP PUSH8 0xFFFFFFFFFFFFFFFF DUP2 GT ISZERO PUSH2 0x8A3 JUMPI PUSH2 0x8A2 PUSH2 0x866 JUMP JUMPDEST JUMPDEST PUSH1 0x20 DUP4 ADD SWAP2 POP DUP4 PUSH1 0x1 DUP3 MUL DUP4 ADD GT ISZERO PUSH2 0x8BF JUMPI PUSH2 0x8BE PUSH2 0x86B JUMP JUMPDEST JUMPDEST SWAP3 POP SWAP3 SWAP1 POP JUMP JUMPDEST PUSH1 0x0 DUP1 PUSH1 0x20 DUP4 DUP6 SUB SLT ISZERO PUSH2 0x8DD JUMPI PUSH2 0x8DC PUSH2 0x857 JUMP JUMPDEST JUMPDEST PUSH1 0x0 DUP4 ADD CALLDATALOAD PUSH8 0xFFFFFFFFFFFFFFFF DUP2 GT ISZERO PUSH2 0x8FB JUMPI PUSH2 0x8FA PUSH2 0x85C JUMP JUMPDEST JUMPDEST PUSH2 0x907 DUP6 DUP3 DUP7 ADD PUSH2 0x870 JUMP JUMPDEST SWAP3 POP SWAP3 POP POP SWAP3 POP SWAP3 SWAP1 POP JUMP JUMPDEST PUSH1 0x0 DUP2 SWAP1 POP SWAP2 SWAP1 POP JUMP JUMPDEST PUSH2 0x926 DUP2 PUSH2 0x913 JUMP JUMPDEST DUP2 EQ PUSH2 0x931 JUMPI PUSH1 0x0 DUP1 REVERT JUMPDEST POP JUMP JUMPDEST PUSH1 0x0 DUP2 CALLDATALOAD SWAP1 POP PUSH2 0x943 DUP2 PUSH2 0x91D JUMP JUMPDEST SWAP3 SWAP2 POP POP JUMP JUMPDEST PUSH1 0x0 PUSH1 0x20 DUP3 DUP5 SUB SLT ISZERO PUSH2 0x95F JUMPI PUSH2 0x95E PUSH2 0x857 JUMP JUMPDEST JUMPDEST PUSH1 0x0 PUSH2 0x96D DUP5 DUP3 DUP6 ADD PUSH2 0x934 JUMP JUMPDEST SWAP2 POP POP SWAP3 SWAP2 POP POP JUMP JUMPDEST PUSH1 0x0 DUP2 MLOAD SWAP1 POP SWAP2 SWAP1 POP JUMP JUMPDEST PUSH1 0x0 DUP3 DUP3 MSTORE PUSH1 0x20 DUP3 ADD SWAP1 POP SWAP3 SWAP2 POP POP JUMP JUMPDEST PUSH1 0x0 JUMPDEST DUP4 DUP2 LT ISZERO PUSH2 0x9B0 JUMPI DUP1 DUP3 ADD MLOAD DUP2 DUP5 ADD MSTORE PUSH1 0x20 DUP2 ADD SWAP1 POP PUSH2 0x995 JUMP JUMPDEST DUP4 DUP2 GT ISZERO PUSH2 0x9BF JUMPI PUSH1 0x0 DUP5 DUP5 ADD MSTORE JUMPDEST POP POP POP POP JUMP JUMPDEST PUSH1 0x0 PUSH1 0x1F NOT PUSH1 0x1F DUP4 ADD AND SWAP1 POP SWAP2 SWAP1 POP JUMP JUMPDEST PUSH1 0x0 PUSH2 0x9E1 DUP3 PUSH2 0x976 JUMP JUMPDEST PUSH2 0x9EB DUP2 DUP6 PUSH2 0x981 JUMP JUMPDEST SWAP4 POP PUSH2 0x9FB DUP2 DUP6 PUSH1 0x20 DUP7 ADD PUSH2 0x992 JUMP JUMPDEST PUSH2 0xA04 DUP2 PUSH2 0x9C5 JUMP JUMPDEST DUP5 ADD SWAP2 POP POP SWAP3 SWAP2 POP POP JUMP JUMPDEST PUSH1 0x0 PUSH1 0x20 DUP3 ADD SWAP1 POP DUP2 DUP2 SUB PUSH1 0x0 DUP4 ADD MSTORE PUSH2 0xA29 DUP2 DUP5 PUSH2 0x9D6 JUMP JUMPDEST SWAP1 POP SWAP3 SWAP2 POP POP JUMP JUMPDEST PUSH1 0x0 DUP1 REVERT JUMPDEST PUSH32 0x4E487B7100000000000000000000000000000000000000000000000000000000 PUSH1 0x0 MSTORE PUSH1 0x41 PUSH1 0x4 MSTORE PUSH1 0x24 PUSH1 0x0 REVERT JUMPDEST PUSH2 0xA6E DUP3 PUSH2 0x9C5 JUMP JUMPDEST DUP2 ADD DUP2 DUP2 LT PUSH8 0xFFFFFFFFFFFFFFFF DUP3 GT OR ISZERO PUSH2 0xA8D JUMPI PUSH2 0xA8C PUSH2 0xA36 JUMP JUMPDEST JUMPDEST DUP1 PUSH1 0x40 MSTORE POP POP POP JUMP JUMPDEST PUSH1 0x0 PUSH2 0xAA0 PUSH2 0x84D JUMP JUMPDEST SWAP1 POP PUSH2 0xAAC DUP3 DUP3 PUSH2 0xA65 JUMP JUMPDEST SWAP2 SWAP1 POP JUMP JUMPDEST PUSH1 0x0 PUSH8 0xFFFFFFFFFFFFFFFF DUP3 GT ISZERO PUSH2 0xACC JUMPI PUSH2 0xACB PUSH2 0xA36 JUMP JUMPDEST JUMPDEST PUSH2 0xAD5 DUP3 PUSH2 0x9C5 JUMP JUMPDEST SWAP1 POP PUSH1 0x20 DUP2 ADD SWAP1 POP SWAP2 SWAP1 POP JUMP JUMPDEST DUP3 DUP2 DUP4 CALLDATACOPY PUSH1 0x0 DUP4 DUP4 ADD MSTORE POP POP POP JUMP JUMPDEST PUSH1 0x0 PUSH2 0xB04 PUSH2 0xAFF DUP5 PUSH2 0xAB1 JUMP JUMPDEST PUSH2 0xA96 JUMP JUMPDEST SWAP1 POP DUP3 DUP2 MSTORE PUSH1 0x20 DUP2 ADD DUP5 DUP5 DUP5 ADD GT ISZERO PUSH2 0xB20 JUMPI PUSH2 0xB1F PUSH2 0xA31 JUMP JUMPDEST JUMPDEST PUSH2 0xB2B DUP5 DUP3 DUP6 PUSH2 0xAE2 JUMP JUMPDEST POP SWAP4 SWAP3 POP POP POP JUMP JUMPDEST PUSH1 0x0 DUP3 PUSH1 0x1F DUP4 ADD SLT PUSH2 0xB48 JUMPI PUSH2 0xB47 PUSH2 0x861 JUMP JUMPDEST JUMPDEST DUP2 CALLDATALOAD PUSH2 0xB58 DUP5 DUP3 PUSH1 0x20 DUP7 ADD PUSH2 0xAF1 JUMP JUMPDEST SWAP2 POP POP SWAP3 SWAP2 POP POP JUMP JUMPDEST PUSH1 0x0 DUP1 PUSH1 0x40 DUP4 DUP6 SUB SLT ISZERO PUSH2 0xB78 JUMPI PUSH2 0xB77 PUSH2 0x857 JUMP JUMPDEST JUMPDEST PUSH1 0x0 DUP4 ADD CALLDATALOAD PUSH8 0xFFFFFFFFFFFFFFFF DUP2 GT ISZERO PUSH2 0xB96 JUMPI PUSH2 0xB95 PUSH2 0x85C JUMP JUMPDEST JUMPDEST PUSH2 0xBA2 DUP6 DUP3 DUP7 ADD PUSH2 0xB33 JUMP JUMPDEST SWAP3 POP POP PUSH1 0x20 PUSH2 0xBB3 DUP6 DUP3 DUP7 ADD PUSH2 0x934 JUMP JUMPDEST SWAP2 POP POP SWAP3 POP SWAP3 SWAP1 POP JUMP JUMPDEST PUSH1 0x0 PUSH20 0xFFFFFFFFFFFFFFFFFFFFFFFFFFFFFFFFFFFFFFFF DUP3 AND SWAP1 POP SWAP2 SWAP1 POP JUMP JUMPDEST PUSH1 0x0 PUSH2 0xBE8 DUP3 PUSH2 0xBBD JUMP JUMPDEST SWAP1 POP SWAP2 SWAP1 POP JUMP JUMPDEST PUSH2 0xBF8 DUP2 PUSH2 0xBDD JUMP JUMPDEST DUP3 MSTORE POP POP JUMP JUMPDEST PUSH1 0x0 PUSH1 0x40 DUP3 ADD SWAP1 POP PUSH2 0xC13 PUSH1 0x0 DUP4 ADD DUP6 PUSH2 0xBEF JUMP JUMPDEST DUP2 DUP2 SUB PUSH1 0x20 DUP4 ADD MSTORE PUSH2 0xC25 DUP2 DUP5 PUSH2 0x9D6 JUMP JUMPDEST SWAP1 POP SWAP4 SWAP3 POP POP POP JUMP JUMPDEST PUSH2 0xC37 DUP2 PUSH2 0x913 JUMP JUMPDEST DUP3 MSTORE POP POP JUMP JUMPDEST PUSH1 0x0 PUSH1 0x20 DUP3 ADD SWAP1 POP PUSH2 0xC52 PUSH1 0x0 DUP4 ADD DUP5 PUSH2 0xC2E JUMP JUMPDEST SWAP3 SWAP2 POP POP JUMP JUMPDEST PUSH1 0x0 DUP2 MLOAD SWAP1 POP SWAP2 SWAP1 POP JUMP JUMPDEST PUSH1 0x0 DUP3 DUP3 MSTORE PUSH1 0x20 DUP3 ADD SWAP1 POP SWAP3 SWAP2 POP POP JUMP JUMPDEST PUSH1 0x0 DUP2 SWAP1 POP PUSH1 0x20 DUP3 ADD SWAP1 POP SWAP2 SWAP1 POP JUMP JUMPDEST PUSH1 0x0 DUP3 DUP3 MSTORE PUSH1 0x20 DUP3 ADD SWAP1 POP SWAP3 SWAP2 POP POP JUMP JUMPDEST PUSH1 0x0 PUSH2 0xCA0 DUP3 PUSH2 0x976 JUMP JUMPDEST PUSH2 0xCAA DUP2 DUP6 PUSH2 0xC84 JUMP JUMPDEST SWAP4 POP PUSH2 0xCBA DUP2 DUP6 PUSH1 0x20 DUP7 ADD PUSH2 0x992 JUMP JUMPDEST PUSH2 0xCC3 DUP2 PUSH2 0x9C5 JUMP JUMPDEST DUP5 ADD SWAP2 POP POP SWAP3 SWAP2 POP POP JUMP JUMPDEST PUSH1 0x0 PUSH2 0xCDA DUP4 DUP4 PUSH2 0xC95 JUMP JUMPDEST SWAP1 POP SWAP3 SWAP2 POP POP JUMP JUMPDEST PUSH1 0x0 PUSH1 0x20 DUP3 ADD SWAP1 POP SWAP2 SWAP1 POP JUMP JUMPDEST PUSH1 0x0 PUSH2 0xCFA DUP3 PUSH2 0xC58 JUMP JUMPDEST PUSH2 0xD04 DUP2 DUP6 PUSH2 0xC63 JUMP JUMPDEST SWAP4 POP DUP4 PUSH1 0x20 DUP3 MUL DUP6 ADD PUSH2 0xD16 DUP6 PUSH2 0xC74 JUMP JUMPDEST DUP1 PUSH1 0x0 JUMPDEST DUP6 DUP2 LT ISZERO PUSH2 0xD52 JUMPI DUP5 DUP5 SUB DUP10 MSTORE DUP2 MLOAD PUSH2 0xD33 DUP6 DUP3 PUSH2 0xCCE JUMP JUMPDEST SWAP5 POP PUSH2 0xD3E DUP4 PUSH2 0xCE2 JUMP JUMPDEST SWAP3 POP PUSH1 0x20 DUP11 ADD SWAP10 POP POP PUSH1 0x1 DUP2 ADD SWAP1 POP PUSH2 0xD1A JUMP JUMPDEST POP DUP3 SWAP8 POP DUP8 SWAP6 POP POP POP POP POP POP SWAP3 SWAP2 POP POP JUMP JUMPDEST PUSH1 0x0 PUSH1 0x20 DUP3 ADD SWAP1 POP DUP2 DUP2 SUB PUSH1 0x0 DUP4 ADD MSTORE PUSH2 0xD7E DUP2 DUP5 PUSH2 0xCEF JUMP JUMPDEST SWAP1 POP SWAP3 SWAP2 POP POP JUMP JUMPDEST PUSH1 0x0 DUP1 PUSH1 0x0 DUP1 PUSH1 0x40 DUP6 DUP8 SUB SLT ISZERO PUSH2 0xDA0 JUMPI PUSH2 0xD9F PUSH2 0x857 JUMP JUMPDEST JUMPDEST PUSH1 0x0 DUP6 ADD CALLDATALOAD PUSH8 0xFFFFFFFFFFFFFFFF DUP2 GT ISZERO PUSH2 0xDBE JUMPI PUSH2 0xDBD PUSH2 0x85C JUMP JUMPDEST JUMPDEST PUSH2 0xDCA DUP8 DUP3 DUP9 ADD PUSH2 0x870 JUMP JUMPDEST SWAP5 POP SWAP5 POP POP PUSH1 0x20 DUP6 ADD CALLDATALOAD PUSH8 0xFFFFFFFFFFFFFFFF DUP2 GT ISZERO PUSH2 0xDED JUMPI PUSH2 0xDEC PUSH2 0x85C JUMP JUMPDEST JUMPDEST PUSH2 0xDF9 DUP8 DUP3 DUP9 ADD PUSH2 0x870 JUMP JUMPDEST SWAP3 POP SWAP3 POP POP SWAP3 SWAP6 SWAP2 SWAP5 POP SWAP3 POP JUMP JUMPDEST PUSH32 0x4F6E6C79204F776E657220416374696F6E210000000000000000000000000000 PUSH1 0x0 DUP3 ADD MSTORE POP JUMP JUMPDEST PUSH1 0x0 PUSH2 0xE3D PUSH1 0x12 DUP4 PUSH2 0x981 JUMP JUMPDEST SWAP2 POP PUSH2 0xE48 DUP3 PUSH2 0xE07 JUMP JUMPDEST PUSH1 0x20 DUP3 ADD SWAP1 POP SWAP2 SWAP1 POP JUMP JUMPDEST PUSH1 0x0 PUSH1 0x20 DUP3 ADD SWAP1 POP DUP2 DUP2 SUB PUSH1 0x0 DUP4 ADD MSTORE PUSH2 0xE6C DUP2 PUSH2 0xE30 JUMP JUMPDEST SWAP1 POP SWAP2 SWAP1 POP JUMP JUMPDEST PUSH32 0x4E487B7100000000000000000000000000000000000000000000000000000000 PUSH1 0x0 MSTORE PUSH1 0x22 PUSH1 0x4 MSTORE PUSH1 0x24 PUSH1 0x0 REVERT JUMPDEST PUSH1 0x0 PUSH1 0x2 DUP3 DIV SWAP1 POP PUSH1 0x1 DUP3 AND DUP1 PUSH2 0xEBA JUMPI PUSH1 0x7F DUP3 AND SWAP2 POP JUMPDEST PUSH1 0x20 DUP3 LT DUP2 EQ ISZERO PUSH2 0xECE JUMPI PUSH2 0xECD PUSH2 0xE73 JUMP JUMPDEST JUMPDEST POP SWAP2 SWAP1 POP JUMP JUMPDEST PUSH1 0x0 DUP2 SWAP1 POP SWAP3 SWAP2 POP POP JUMP JUMPDEST PUSH1 0x0 PUSH2 0xEEB DUP4 DUP6 PUSH2 0xED4 JUMP JUMPDEST SWAP4 POP PUSH2 0xEF8 DUP4 DUP6 DUP5 PUSH2 0xAE2 JUMP JUMPDEST DUP3 DUP5 ADD SWAP1 POP SWAP4 SWAP3 POP POP POP JUMP JUMPDEST PUSH1 0x0 PUSH2 0xF11 DUP3 DUP5 DUP7 PUSH2 0xEDF JUMP JUMPDEST SWAP2 POP DUP2 SWAP1 POP SWAP4 SWAP3 POP POP POP JUMP JUMPDEST PUSH32 0x4E487B7100000000000000000000000000000000000000000000000000000000 PUSH1 0x0 MSTORE PUSH1 0x32 PUSH1 0x4 MSTORE PUSH1 0x24 PUSH1 0x0 REVERT JUMPDEST PUSH32 0x4E487B7100000000000000000000000000000000000000000000000000000000 PUSH1 0x0 MSTORE PUSH1 0x11 PUSH1 0x4 MSTORE PUSH1 0x24 PUSH1 0x0 REVERT JUMPDEST PUSH1 0x0 PUSH2 0xF86 DUP3 PUSH2 0x913 JUMP JUMPDEST SWAP2 POP PUSH32 0xFFFFFFFFFFFFFFFFFFFFFFFFFFFFFFFFFFFFFFFFFFFFFFFFFFFFFFFFFFFFFFFF DUP3 EQ ISZERO PUSH2 0xFB9 JUMPI PUSH2 0xFB8 PUSH2 0xF4C JUMP JUMPDEST JUMPDEST PUSH1 0x1 DUP3 ADD SWAP1 POP SWAP2 SWAP1 POP JUMP INVALID LOG2 PUSH5 0x6970667358 0x22 SLT KECCAK256 NUMBER 0xC2 0xCC 0xBE SWAP11 0xE8 0xB7 DUP16 0xE DIFFICULTY SELFDESTRUCT STOP DUP13 0xCB PUSH4 0xE04B756 MULMOD CALLVALUE SWAP6 0xAA CALLER SIGNEXTEND PUSH7 0x20ABB130155F64 PUSH20 0x6F6C634300080800330000000000000000000000 "
	},
	"Assembly": ".code\n  PUSH A0\t\t\tcontract OpinioNect{\\r\\n    //...\n  PUSH 40\t\t\tcontract OpinioNect{\\r\\n    //...\n  MSTORE \t\t\tcontract OpinioNect{\\r\\n    //...\n  CALLVALUE \t\t\tconstructor() {\\r\\n        i_o...\n  DUP1 \t\t\tconstructor() {\\r\\n        i_o...\n  ISZERO \t\t\tconstructor() {\\r\\n        i_o...\n  PUSH [tag] 1\t\t\tconstructor() {\\r\\n        i_o...\n  JUMPI \t\t\tconstructor() {\\r\\n        i_o...\n  PUSH 0\t\t\tconstructor() {\\r\\n        i_o...\n  DUP1 \t\t\tconstructor() {\\r\\n        i_o...\n  REVERT \t\t\tconstructor() {\\r\\n        i_o...\ntag 1\t\t\tconstructor() {\\r\\n        i_o...\n  JUMPDEST \t\t\tconstructor() {\\r\\n        i_o...\n  POP \t\t\tconstructor() {\\r\\n        i_o...\n  CALLER \t\t\tmsg.sender\n  PUSH FFFFFFFFFFFFFFFFFFFFFFFFFFFFFFFFFFFFFFFF\t\t\ti_owner = msg.sender\n  AND \t\t\ti_owner = msg.sender\n  PUSH 80\t\t\ti_owner = msg.sender\n  DUP2 \t\t\ti_owner = msg.sender\n  PUSH FFFFFFFFFFFFFFFFFFFFFFFFFFFFFFFFFFFFFFFF\t\t\ti_owner = msg.sender\n  AND \t\t\ti_owner = msg.sender\n  PUSH 60\t\t\ti_owner = msg.sender\n  SHL \t\t\ti_owner = msg.sender\n  DUP2 \t\t\ti_owner = msg.sender\n  MSTORE \t\t\ti_owner = msg.sender\n  POP \t\t\ti_owner = msg.sender\n  POP \t\t\ti_owner = msg.sender\n  PUSH 80\t\t\tcontract OpinioNect{\\r\\n    //...\n  MLOAD \t\t\tcontract OpinioNect{\\r\\n    //...\n  PUSH 60\t\t\tcontract OpinioNect{\\r\\n    //...\n  SHR \t\t\tcontract OpinioNect{\\r\\n    //...\n  PUSH #[$] 0000000000000000000000000000000000000000000000000000000000000000\t\t\tcontract OpinioNect{\\r\\n    //...\n  PUSH [$] 0000000000000000000000000000000000000000000000000000000000000000\t\t\tcontract OpinioNect{\\r\\n    //...\n  PUSH 0\t\t\tcontract OpinioNect{\\r\\n    //...\n  CODECOPY \t\t\tcontract OpinioNect{\\r\\n    //...\n  PUSH 0\t\t\tcontract OpinioNect{\\r\\n    //...\n  ASSIGNIMMUTABLE 4\t\t\tcontract OpinioNect{\\r\\n    //...\n  PUSH #[$] 0000000000000000000000000000000000000000000000000000000000000000\t\t\tcontract OpinioNect{\\r\\n    //...\n  PUSH 0\t\t\tcontract OpinioNect{\\r\\n    //...\n  RETURN \t\t\tcontract OpinioNect{\\r\\n    //...\n.data\n  0:\n    .code\n      PUSH 80\t\t\tcontract OpinioNect{\\r\\n    //...\n      PUSH 40\t\t\tcontract OpinioNect{\\r\\n    //...\n      MSTORE \t\t\tcontract OpinioNect{\\r\\n    //...\n      CALLVALUE \t\t\tcontract OpinioNect{\\r\\n    //...\n      DUP1 \t\t\tcontract OpinioNect{\\r\\n    //...\n      ISZERO \t\t\tcontract OpinioNect{\\r\\n    //...\n      PUSH [tag] 1\t\t\tcontract OpinioNect{\\r\\n    //...\n      JUMPI \t\t\tcontract OpinioNect{\\r\\n    //...\n      PUSH 0\t\t\tcontract OpinioNect{\\r\\n    //...\n      DUP1 \t\t\tcontract OpinioNect{\\r\\n    //...\n      REVERT \t\t\tcontract OpinioNect{\\r\\n    //...\n    tag 1\t\t\tcontract OpinioNect{\\r\\n    //...\n      JUMPDEST \t\t\tcontract OpinioNect{\\r\\n    //...\n      POP \t\t\tcontract OpinioNect{\\r\\n    //...\n      PUSH 4\t\t\tcontract OpinioNect{\\r\\n    //...\n      CALLDATASIZE \t\t\tcontract OpinioNect{\\r\\n    //...\n      LT \t\t\tcontract OpinioNect{\\r\\n    //...\n      PUSH [tag] 2\t\t\tcontract OpinioNect{\\r\\n    //...\n      JUMPI \t\t\tcontract OpinioNect{\\r\\n    //...\n      PUSH 0\t\t\tcontract OpinioNect{\\r\\n    //...\n      CALLDATALOAD \t\t\tcontract OpinioNect{\\r\\n    //...\n      PUSH E0\t\t\tcontract OpinioNect{\\r\\n    //...\n      SHR \t\t\tcontract OpinioNect{\\r\\n    //...\n      DUP1 \t\t\tcontract OpinioNect{\\r\\n    //...\n      PUSH C971A46\t\t\tcontract OpinioNect{\\r\\n    //...\n      EQ \t\t\tcontract OpinioNect{\\r\\n    //...\n      PUSH [tag] 3\t\t\tcontract OpinioNect{\\r\\n    //...\n      JUMPI \t\t\tcontract OpinioNect{\\r\\n    //...\n      DUP1 \t\t\tcontract OpinioNect{\\r\\n    //...\n      PUSH F4A52C7\t\t\tcontract OpinioNect{\\r\\n    //...\n      EQ \t\t\tcontract OpinioNect{\\r\\n    //...\n      PUSH [tag] 4\t\t\tcontract OpinioNect{\\r\\n    //...\n      JUMPI \t\t\tcontract OpinioNect{\\r\\n    //...\n      DUP1 \t\t\tcontract OpinioNect{\\r\\n    //...\n      PUSH 5EC30D25\t\t\tcontract OpinioNect{\\r\\n    //...\n      EQ \t\t\tcontract OpinioNect{\\r\\n    //...\n      PUSH [tag] 5\t\t\tcontract OpinioNect{\\r\\n    //...\n      JUMPI \t\t\tcontract OpinioNect{\\r\\n    //...\n      DUP1 \t\t\tcontract OpinioNect{\\r\\n    //...\n      PUSH 623AD5BA\t\t\tcontract OpinioNect{\\r\\n    //...\n      EQ \t\t\tcontract OpinioNect{\\r\\n    //...\n      PUSH [tag] 6\t\t\tcontract OpinioNect{\\r\\n    //...\n      JUMPI \t\t\tcontract OpinioNect{\\r\\n    //...\n      DUP1 \t\t\tcontract OpinioNect{\\r\\n    //...\n      PUSH 6B76DBA1\t\t\tcontract OpinioNect{\\r\\n    //...\n      EQ \t\t\tcontract OpinioNect{\\r\\n    //...\n      PUSH [tag] 7\t\t\tcontract OpinioNect{\\r\\n    //...\n      JUMPI \t\t\tcontract OpinioNect{\\r\\n    //...\n      DUP1 \t\t\tcontract OpinioNect{\\r\\n    //...\n      PUSH AE5FF905\t\t\tcontract OpinioNect{\\r\\n    //...\n      EQ \t\t\tcontract OpinioNect{\\r\\n    //...\n      PUSH [tag] 8\t\t\tcontract OpinioNect{\\r\\n    //...\n      JUMPI \t\t\tcontract OpinioNect{\\r\\n    //...\n    tag 2\t\t\tcontract OpinioNect{\\r\\n    //...\n      JUMPDEST \t\t\tcontract OpinioNect{\\r\\n    //...\n      PUSH 0\t\t\tcontract OpinioNect{\\r\\n    //...\n      DUP1 \t\t\tcontract OpinioNect{\\r\\n    //...\n      REVERT \t\t\tcontract OpinioNect{\\r\\n    //...\n    tag 3\t\t\tfunction addArticle(string cal...\n      JUMPDEST \t\t\tfunction addArticle(string cal...\n      PUSH [tag] 9\t\t\tfunction addArticle(string cal...\n      PUSH 4\t\t\tfunction addArticle(string cal...\n      DUP1 \t\t\tfunction addArticle(string cal...\n      CALLDATASIZE \t\t\tfunction addArticle(string cal...\n      SUB \t\t\tfunction addArticle(string cal...\n      DUP2 \t\t\tfunction addArticle(string cal...\n      ADD \t\t\tfunction addArticle(string cal...\n      SWAP1 \t\t\tfunction addArticle(string cal...\n      PUSH [tag] 10\t\t\tfunction addArticle(string cal...\n      SWAP2 \t\t\tfunction addArticle(string cal...\n      SWAP1 \t\t\tfunction addArticle(string cal...\n      PUSH [tag] 11\t\t\tfunction addArticle(string cal...\n      JUMP [in]\t\t\tfunction addArticle(string cal...\n    tag 10\t\t\tfunction addArticle(string cal...\n      JUMPDEST \t\t\tfunction addArticle(string cal...\n      PUSH [tag] 12\t\t\tfunction addArticle(string cal...\n      JUMP [in]\t\t\tfunction addArticle(string cal...\n    tag 9\t\t\tfunction addArticle(string cal...\n      JUMPDEST \t\t\tfunction addArticle(string cal...\n      STOP \t\t\tfunction addArticle(string cal...\n    tag 4\t\t\tstring[] public articleHash\n      JUMPDEST \t\t\tstring[] public articleHash\n      PUSH [tag] 13\t\t\tstring[] public articleHash\n      PUSH 4\t\t\tstring[] public articleHash\n      DUP1 \t\t\tstring[] public articleHash\n      CALLDATASIZE \t\t\tstring[] public articleHash\n      SUB \t\t\tstring[] public articleHash\n      DUP2 \t\t\tstring[] public articleHash\n      ADD \t\t\tstring[] public articleHash\n      SWAP1 \t\t\tstring[] public articleHash\n      PUSH [tag] 14\t\t\tstring[] public articleHash\n      SWAP2 \t\t\tstring[] public articleHash\n      SWAP1 \t\t\tstring[] public articleHash\n      PUSH [tag] 15\t\t\tstring[] public articleHash\n      JUMP [in]\t\t\tstring[] public articleHash\n    tag 14\t\t\tstring[] public articleHash\n      JUMPDEST \t\t\tstring[] public articleHash\n      PUSH [tag] 16\t\t\tstring[] public articleHash\n      JUMP [in]\t\t\tstring[] public articleHash\n    tag 13\t\t\tstring[] public articleHash\n      JUMPDEST \t\t\tstring[] public articleHash\n      PUSH 40\t\t\tstring[] public articleHash\n      MLOAD \t\t\tstring[] public articleHash\n      PUSH [tag] 17\t\t\tstring[] public articleHash\n      SWAP2 \t\t\tstring[] public articleHash\n      SWAP1 \t\t\tstring[] public articleHash\n      PUSH [tag] 18\t\t\tstring[] public articleHash\n      JUMP [in]\t\t\tstring[] public articleHash\n    tag 17\t\t\tstring[] public articleHash\n      JUMPDEST \t\t\tstring[] public articleHash\n      PUSH 40\t\t\tstring[] public articleHash\n      MLOAD \t\t\tstring[] public articleHash\n      DUP1 \t\t\tstring[] public articleHash\n      SWAP2 \t\t\tstring[] public articleHash\n      SUB \t\t\tstring[] public articleHash\n      SWAP1 \t\t\tstring[] public articleHash\n      RETURN \t\t\tstring[] public articleHash\n    tag 5\t\t\tmapping(string => UserComment[...\n      JUMPDEST \t\t\tmapping(string => UserComment[...\n      PUSH [tag] 19\t\t\tmapping(string => UserComment[...\n      PUSH 4\t\t\tmapping(string => UserComment[...\n      DUP1 \t\t\tmapping(string => UserComment[...\n      CALLDATASIZE \t\t\tmapping(string => UserComment[...\n      SUB \t\t\tmapping(string => UserComment[...\n      DUP2 \t\t\tmapping(string => UserComment[...\n      ADD \t\t\tmapping(string => UserComment[...\n      SWAP1 \t\t\tmapping(string => UserComment[...\n      PUSH [tag] 20\t\t\tmapping(string => UserComment[...\n      SWAP2 \t\t\tmapping(string => UserComment[...\n      SWAP1 \t\t\tmapping(string => UserComment[...\n      PUSH [tag] 21\t\t\tmapping(string => UserComment[...\n      JUMP [in]\t\t\tmapping(string => UserComment[...\n    tag 20\t\t\tmapping(string => UserComment[...\n      JUMPDEST \t\t\tmapping(string => UserComment[...\n      PUSH [tag] 22\t\t\tmapping(string => UserComment[...\n      JUMP [in]\t\t\tmapping(string => UserComment[...\n    tag 19\t\t\tmapping(string => UserComment[...\n      JUMPDEST \t\t\tmapping(string => UserComment[...\n      PUSH 40\t\t\tmapping(string => UserComment[...\n      MLOAD \t\t\tmapping(string => UserComment[...\n      PUSH [tag] 23\t\t\tmapping(string => UserComment[...\n      SWAP3 \t\t\tmapping(string => UserComment[...\n      SWAP2 \t\t\tmapping(string => UserComment[...\n      SWAP1 \t\t\tmapping(string => UserComment[...\n      PUSH [tag] 24\t\t\tmapping(string => UserComment[...\n      JUMP [in]\t\t\tmapping(string => UserComment[...\n    tag 23\t\t\tmapping(string => UserComment[...\n      JUMPDEST \t\t\tmapping(string => UserComment[...\n      PUSH 40\t\t\tmapping(string => UserComment[...\n      MLOAD \t\t\tmapping(string => UserComment[...\n      DUP1 \t\t\tmapping(string => UserComment[...\n      SWAP2 \t\t\tmapping(string => UserComment[...\n      SUB \t\t\tmapping(string => UserComment[...\n      SWAP1 \t\t\tmapping(string => UserComment[...\n      RETURN \t\t\tmapping(string => UserComment[...\n    tag 6\t\t\tfunction articleHashLength() v...\n      JUMPDEST \t\t\tfunction articleHashLength() v...\n      PUSH [tag] 25\t\t\tfunction articleHashLength() v...\n      PUSH [tag] 26\t\t\tfunction articleHashLength() v...\n      JUMP [in]\t\t\tfunction articleHashLength() v...\n    tag 25\t\t\tfunction articleHashLength() v...\n      JUMPDEST \t\t\tfunction articleHashLength() v...\n      PUSH 40\t\t\tfunction articleHashLength() v...\n      MLOAD \t\t\tfunction articleHashLength() v...\n      PUSH [tag] 27\t\t\tfunction articleHashLength() v...\n      SWAP2 \t\t\tfunction articleHashLength() v...\n      SWAP1 \t\t\tfunction articleHashLength() v...\n      PUSH [tag] 28\t\t\tfunction articleHashLength() v...\n      JUMP [in]\t\t\tfunction articleHashLength() v...\n    tag 27\t\t\tfunction articleHashLength() v...\n      JUMPDEST \t\t\tfunction articleHashLength() v...\n      PUSH 40\t\t\tfunction articleHashLength() v...\n      MLOAD \t\t\tfunction articleHashLength() v...\n      DUP1 \t\t\tfunction articleHashLength() v...\n      SWAP2 \t\t\tfunction articleHashLength() v...\n      SUB \t\t\tfunction articleHashLength() v...\n      SWAP1 \t\t\tfunction articleHashLength() v...\n      RETURN \t\t\tfunction articleHashLength() v...\n    tag 7\t\t\tfunction getCommentsOnArticle(...\n      JUMPDEST \t\t\tfunction getCommentsOnArticle(...\n      PUSH [tag] 29\t\t\tfunction getCommentsOnArticle(...\n      PUSH 4\t\t\tfunction getCommentsOnArticle(...\n      DUP1 \t\t\tfunction getCommentsOnArticle(...\n      CALLDATASIZE \t\t\tfunction getCommentsOnArticle(...\n      SUB \t\t\tfunction getCommentsOnArticle(...\n      DUP2 \t\t\tfunction getCommentsOnArticle(...\n      ADD \t\t\tfunction getCommentsOnArticle(...\n      SWAP1 \t\t\tfunction getCommentsOnArticle(...\n      PUSH [tag] 30\t\t\tfunction getCommentsOnArticle(...\n      SWAP2 \t\t\tfunction getCommentsOnArticle(...\n      SWAP1 \t\t\tfunction getCommentsOnArticle(...\n      PUSH [tag] 11\t\t\tfunction getCommentsOnArticle(...\n      JUMP [in]\t\t\tfunction getCommentsOnArticle(...\n    tag 30\t\t\tfunction getCommentsOnArticle(...\n      JUMPDEST \t\t\tfunction getCommentsOnArticle(...\n      PUSH [tag] 31\t\t\tfunction getCommentsOnArticle(...\n      JUMP [in]\t\t\tfunction getCommentsOnArticle(...\n    tag 29\t\t\tfunction getCommentsOnArticle(...\n      JUMPDEST \t\t\tfunction getCommentsOnArticle(...\n      PUSH 40\t\t\tfunction getCommentsOnArticle(...\n      MLOAD \t\t\tfunction getCommentsOnArticle(...\n      PUSH [tag] 32\t\t\tfunction getCommentsOnArticle(...\n      SWAP2 \t\t\tfunction getCommentsOnArticle(...\n      SWAP1 \t\t\tfunction getCommentsOnArticle(...\n      PUSH [tag] 33\t\t\tfunction getCommentsOnArticle(...\n      JUMP [in]\t\t\tfunction getCommentsOnArticle(...\n    tag 32\t\t\tfunction getCommentsOnArticle(...\n      JUMPDEST \t\t\tfunction getCommentsOnArticle(...\n      PUSH 40\t\t\tfunction getCommentsOnArticle(...\n      MLOAD \t\t\tfunction getCommentsOnArticle(...\n      DUP1 \t\t\tfunction getCommentsOnArticle(...\n      SWAP2 \t\t\tfunction getCommentsOnArticle(...\n      SUB \t\t\tfunction getCommentsOnArticle(...\n      SWAP1 \t\t\tfunction getCommentsOnArticle(...\n      RETURN \t\t\tfunction getCommentsOnArticle(...\n    tag 8\t\t\tfunction addComment(string cal...\n      JUMPDEST \t\t\tfunction addComment(string cal...\n      PUSH [tag] 34\t\t\tfunction addComment(string cal...\n      PUSH 4\t\t\tfunction addComment(string cal...\n      DUP1 \t\t\tfunction addComment(string cal...\n      CALLDATASIZE \t\t\tfunction addComment(string cal...\n      SUB \t\t\tfunction addComment(string cal...\n      DUP2 \t\t\tfunction addComment(string cal...\n      ADD \t\t\tfunction addComment(string cal...\n      SWAP1 \t\t\tfunction addComment(string cal...\n      PUSH [tag] 35\t\t\tfunction addComment(string cal...\n      SWAP2 \t\t\tfunction addComment(string cal...\n      SWAP1 \t\t\tfunction addComment(string cal...\n      PUSH [tag] 36\t\t\tfunction addComment(string cal...\n      JUMP [in]\t\t\tfunction addComment(string cal...\n    tag 35\t\t\tfunction addComment(string cal...\n      JUMPDEST \t\t\tfunction addComment(string cal...\n      PUSH [tag] 37\t\t\tfunction addComment(string cal...\n      JUMP [in]\t\t\tfunction addComment(string cal...\n    tag 34\t\t\tfunction addComment(string cal...\n      JUMPDEST \t\t\tfunction addComment(string cal...\n      STOP \t\t\tfunction addComment(string cal...\n    tag 12\t\t\tfunction addArticle(string cal...\n      JUMPDEST \t\t\tfunction addArticle(string cal...\n      PUSHIMMUTABLE 4\t\t\ti_owner\n      PUSH FFFFFFFFFFFFFFFFFFFFFFFFFFFFFFFFFFFFFFFF\t\t\tmsg.sender == i_owner\n      AND \t\t\tmsg.sender == i_owner\n      CALLER \t\t\tmsg.sender\n      PUSH FFFFFFFFFFFFFFFFFFFFFFFFFFFFFFFFFFFFFFFF\t\t\tmsg.sender == i_owner\n      AND \t\t\tmsg.sender == i_owner\n      EQ \t\t\tmsg.sender == i_owner\n      PUSH [tag] 39\t\t\trequire(msg.sender == i_owner,...\n      JUMPI \t\t\trequire(msg.sender == i_owner,...\n      PUSH 40\t\t\trequire(msg.sender == i_owner,...\n      MLOAD \t\t\trequire(msg.sender == i_owner,...\n      PUSH 8C379A000000000000000000000000000000000000000000000000000000000\t\t\trequire(msg.sender == i_owner,...\n      DUP2 \t\t\trequire(msg.sender == i_owner,...\n      MSTORE \t\t\trequire(msg.sender == i_owner,...\n      PUSH 4\t\t\trequire(msg.sender == i_owner,...\n      ADD \t\t\trequire(msg.sender == i_owner,...\n      PUSH [tag] 40\t\t\trequire(msg.sender == i_owner,...\n      SWAP1 \t\t\trequire(msg.sender == i_owner,...\n      PUSH [tag] 41\t\t\trequire(msg.sender == i_owner,...\n      JUMP [in]\t\t\trequire(msg.sender == i_owner,...\n    tag 40\t\t\trequire(msg.sender == i_owner,...\n      JUMPDEST \t\t\trequire(msg.sender == i_owner,...\n      PUSH 40\t\t\trequire(msg.sender == i_owner,...\n      MLOAD \t\t\trequire(msg.sender == i_owner,...\n      DUP1 \t\t\trequire(msg.sender == i_owner,...\n      SWAP2 \t\t\trequire(msg.sender == i_owner,...\n      SUB \t\t\trequire(msg.sender == i_owner,...\n      SWAP1 \t\t\trequire(msg.sender == i_owner,...\n      REVERT \t\t\trequire(msg.sender == i_owner,...\n    tag 39\t\t\trequire(msg.sender == i_owner,...\n      JUMPDEST \t\t\trequire(msg.sender == i_owner,...\n      PUSH 0\t\t\tarticleHash\n      DUP3 \t\t\t_articleHash\n      DUP3 \t\t\t_articleHash\n      SWAP1 \t\t\tarticleHash.push(_articleHash)\n      SWAP2 \t\t\tarticleHash.push(_articleHash)\n      DUP1 \t\t\tarticleHash.push(_articleHash)\n      PUSH 1\t\t\tarticleHash.push(_articleHash)\n      DUP2 \t\t\tarticleHash.push(_articleHash)\n      SLOAD \t\t\tarticleHash.push(_articleHash)\n      ADD \t\t\tarticleHash.push(_articleHash)\n      DUP1 \t\t\tarticleHash.push(_articleHash)\n      DUP3 \t\t\tarticleHash.push(_articleHash)\n      SSTORE \t\t\tarticleHash.push(_articleHash)\n      DUP1 \t\t\tarticleHash.push(_articleHash)\n      SWAP2 \t\t\tarticleHash.push(_articleHash)\n      POP \t\t\tarticleHash.push(_articleHash)\n      POP \t\t\tarticleHash.push(_articleHash)\n      PUSH 1\t\t\tarticleHash.push(_articleHash)\n      SWAP1 \t\t\tarticleHash.push(_articleHash)\n      SUB \t\t\tarticleHash.push(_articleHash)\n      SWAP1 \t\t\tarticleHash.push(_articleHash)\n      PUSH 0\t\t\tarticleHash.push(_articleHash)\n      MSTORE \t\t\tarticleHash.push(_articleHash)\n      PUSH 20\t\t\tarticleHash.push(_articleHash)\n      PUSH 0\t\t\tarticleHash.push(_articleHash)\n      KECCAK256 \t\t\tarticleHash.push(_articleHash)\n      ADD \t\t\tarticleHash.push(_articleHash)\n      PUSH 0\t\t\tarticleHash.push(_articleHash)\n      SWAP1 \t\t\tarticleHash.push(_articleHash)\n      SWAP2 \t\t\tarticleHash.push(_articleHash)\n      SWAP3 \t\t\tarticleHash.push(_articleHash)\n      SWAP1 \t\t\tarticleHash.push(_articleHash)\n      SWAP2 \t\t\tarticleHash.push(_articleHash)\n      SWAP3 \t\t\tarticleHash.push(_articleHash)\n      SWAP1 \t\t\tarticleHash.push(_articleHash)\n      SWAP2 \t\t\tarticleHash.push(_articleHash)\n      SWAP3 \t\t\tarticleHash.push(_articleHash)\n      SWAP1 \t\t\tarticleHash.push(_articleHash)\n      SWAP2 \t\t\tarticleHash.push(_articleHash)\n      SWAP3 \t\t\tarticleHash.push(_articleHash)\n      POP \t\t\tarticleHash.push(_articleHash)\n      SWAP2 \t\t\tarticleHash.push(_articleHash)\n      SWAP1 \t\t\tarticleHash.push(_articleHash)\n      PUSH [tag] 44\t\t\tarticleHash.push(_articleHash)\n      SWAP3 \t\t\tarticleHash.push(_articleHash)\n      SWAP2 \t\t\tarticleHash.push(_articleHash)\n      SWAP1 \t\t\tarticleHash.push(_articleHash)\n      PUSH [tag] 45\t\t\tarticleHash.push(_articleHash)\n      JUMP [in]\t\t\tarticleHash.push(_articleHash)\n    tag 44\t\t\tarticleHash.push(_articleHash)\n      JUMPDEST \t\t\tarticleHash.push(_articleHash)\n      POP \t\t\tarticleHash.push(_articleHash)\n      POP \t\t\tfunction addArticle(string cal...\n      POP \t\t\tfunction addArticle(string cal...\n      JUMP [out]\t\t\tfunction addArticle(string cal...\n    tag 16\t\t\tstring[] public articleHash\n      JUMPDEST \t\t\tstring[] public articleHash\n      PUSH 0\t\t\tstring[] public articleHash\n      DUP2 \t\t\tstring[] public articleHash\n      DUP2 \t\t\tstring[] public articleHash\n      SLOAD \t\t\tstring[] public articleHash\n      DUP2 \t\t\tstring[] public articleHash\n      LT \t\t\tstring[] public articleHash\n      PUSH [tag] 46\t\t\tstring[] public articleHash\n      JUMPI \t\t\tstring[] public articleHash\n      PUSH 0\t\t\tstring[] public articleHash\n      DUP1 \t\t\tstring[] public articleHash\n      REVERT \t\t\tstring[] public articleHash\n    tag 46\t\t\tstring[] public articleHash\n      JUMPDEST \t\t\tstring[] public articleHash\n      SWAP1 \t\t\tstring[] public articleHash\n      PUSH 0\t\t\tstring[] public articleHash\n      MSTORE \t\t\tstring[] public articleHash\n      PUSH 20\t\t\tstring[] public articleHash\n      PUSH 0\t\t\tstring[] public articleHash\n      KECCAK256 \t\t\tstring[] public articleHash\n      ADD \t\t\tstring[] public articleHash\n      PUSH 0\t\t\tstring[] public articleHash\n      SWAP2 \t\t\tstring[] public articleHash\n      POP \t\t\tstring[] public articleHash\n      SWAP1 \t\t\tstring[] public articleHash\n      POP \t\t\tstring[] public articleHash\n      DUP1 \t\t\tstring[] public articleHash\n      SLOAD \t\t\tstring[] public articleHash\n      PUSH [tag] 48\t\t\tstring[] public articleHash\n      SWAP1 \t\t\tstring[] public articleHash\n      PUSH [tag] 49\t\t\tstring[] public articleHash\n      JUMP [in]\t\t\tstring[] public articleHash\n    tag 48\t\t\tstring[] public articleHash\n      JUMPDEST \t\t\tstring[] public articleHash\n      DUP1 \t\t\tstring[] public articleHash\n      PUSH 1F\t\t\tstring[] public articleHash\n      ADD \t\t\tstring[] public articleHash\n      PUSH 20\t\t\tstring[] public articleHash\n      DUP1 \t\t\tstring[] public articleHash\n      SWAP2 \t\t\tstring[] public articleHash\n      DIV \t\t\tstring[] public articleHash\n      MUL \t\t\tstring[] public articleHash\n      PUSH 20\t\t\tstring[] public articleHash\n      ADD \t\t\tstring[] public articleHash\n      PUSH 40\t\t\tstring[] public articleHash\n      MLOAD \t\t\tstring[] public articleHash\n      SWAP1 \t\t\tstring[] public articleHash\n      DUP2 \t\t\tstring[] public articleHash\n      ADD \t\t\tstring[] public articleHash\n      PUSH 40\t\t\tstring[] public articleHash\n      MSTORE \t\t\tstring[] public articleHash\n      DUP1 \t\t\tstring[] public articleHash\n      SWAP3 \t\t\tstring[] public articleHash\n      SWAP2 \t\t\tstring[] public articleHash\n      SWAP1 \t\t\tstring[] public articleHash\n      DUP2 \t\t\tstring[] public articleHash\n      DUP2 \t\t\tstring[] public articleHash\n      MSTORE \t\t\tstring[] public articleHash\n      PUSH 20\t\t\tstring[] public articleHash\n      ADD \t\t\tstring[] public articleHash\n      DUP3 \t\t\tstring[] public articleHash\n      DUP1 \t\t\tstring[] public articleHash\n      SLOAD \t\t\tstring[] public articleHash\n      PUSH [tag] 50\t\t\tstring[] public articleHash\n      SWAP1 \t\t\tstring[] public articleHash\n      PUSH [tag] 49\t\t\tstring[] public articleHash\n      JUMP [in]\t\t\tstring[] public articleHash\n    tag 50\t\t\tstring[] public articleHash\n      JUMPDEST \t\t\tstring[] public articleHash\n      DUP1 \t\t\tstring[] public articleHash\n      ISZERO \t\t\tstring[] public articleHash\n      PUSH [tag] 51\t\t\tstring[] public articleHash\n      JUMPI \t\t\tstring[] public articleHash\n      DUP1 \t\t\tstring[] public articleHash\n      PUSH 1F\t\t\tstring[] public articleHash\n      LT \t\t\tstring[] public articleHash\n      PUSH [tag] 52\t\t\tstring[] public articleHash\n      JUMPI \t\t\tstring[] public articleHash\n      PUSH 100\t\t\tstring[] public articleHash\n      DUP1 \t\t\tstring[] public articleHash\n      DUP4 \t\t\tstring[] public articleHash\n      SLOAD \t\t\tstring[] public articleHash\n      DIV \t\t\tstring[] public articleHash\n      MUL \t\t\tstring[] public articleHash\n      DUP4 \t\t\tstring[] public articleHash\n      MSTORE \t\t\tstring[] public articleHash\n      SWAP2 \t\t\tstring[] public articleHash\n      PUSH 20\t\t\tstring[] public articleHash\n      ADD \t\t\tstring[] public articleHash\n      SWAP2 \t\t\tstring[] public articleHash\n      PUSH [tag] 51\t\t\tstring[] public articleHash\n      JUMP \t\t\tstring[] public articleHash\n    tag 52\t\t\tstring[] public articleHash\n      JUMPDEST \t\t\tstring[] public articleHash\n      DUP3 \t\t\tstring[] public articleHash\n      ADD \t\t\tstring[] public articleHash\n      SWAP2 \t\t\tstring[] public articleHash\n      SWAP1 \t\t\tstring[] public articleHash\n      PUSH 0\t\t\tstring[] public articleHash\n      MSTORE \t\t\tstring[] public articleHash\n      PUSH 20\t\t\tstring[] public articleHash\n      PUSH 0\t\t\tstring[] public articleHash\n      KECCAK256 \t\t\tstring[] public articleHash\n      SWAP1 \t\t\tstring[] public articleHash\n    tag 53\t\t\tstring[] public articleHash\n      JUMPDEST \t\t\tstring[] public articleHash\n      DUP2 \t\t\tstring[] public articleHash\n      SLOAD \t\t\tstring[] public articleHash\n      DUP2 \t\t\tstring[] public articleHash\n      MSTORE \t\t\tstring[] public articleHash\n      SWAP1 \t\t\tstring[] public articleHash\n      PUSH 1\t\t\tstring[] public articleHash\n      ADD \t\t\tstring[] public articleHash\n      SWAP1 \t\t\tstring[] public articleHash\n      PUSH 20\t\t\tstring[] public articleHash\n      ADD \t\t\tstring[] public articleHash\n      DUP1 \t\t\tstring[] public articleHash\n      DUP4 \t\t\tstring[] public articleHash\n      GT \t\t\tstring[] public articleHash\n      PUSH [tag] 53\t\t\tstring[] public articleHash\n      JUMPI \t\t\tstring[] public articleHash\n      DUP3 \t\t\tstring[] public articleHash\n      SWAP1 \t\t\tstring[] public articleHash\n      SUB \t\t\tstring[] public articleHash\n      PUSH 1F\t\t\tstring[] public articleHash\n      AND \t\t\tstring[] public articleHash\n      DUP3 \t\t\tstring[] public articleHash\n      ADD \t\t\tstring[] public articleHash\n      SWAP2 \t\t\tstring[] public articleHash\n    tag 51\t\t\tstring[] public articleHash\n      JUMPDEST \t\t\tstring[] public articleHash\n      POP \t\t\tstring[] public articleHash\n      POP \t\t\tstring[] public articleHash\n      POP \t\t\tstring[] public articleHash\n      POP \t\t\tstring[] public articleHash\n      POP \t\t\tstring[] public articleHash\n      DUP2 \t\t\tstring[] public articleHash\n      JUMP [out]\t\t\tstring[] public articleHash\n    tag 22\t\t\tmapping(string => UserComment[...\n      JUMPDEST \t\t\tmapping(string => UserComment[...\n      PUSH 1\t\t\tmapping(string => UserComment[...\n      DUP3 \t\t\tmapping(string => UserComment[...\n      DUP1 \t\t\tmapping(string => UserComment[...\n      MLOAD \t\t\tmapping(string => UserComment[...\n      PUSH 20\t\t\tmapping(string => UserComment[...\n      DUP2 \t\t\tmapping(string => UserComment[...\n      ADD \t\t\tmapping(string => UserComment[...\n      DUP3 \t\t\tmapping(string => UserComment[...\n      ADD \t\t\tmapping(string => UserComment[...\n      DUP1 \t\t\tmapping(string => UserComment[...\n      MLOAD \t\t\tmapping(string => UserComment[...\n      DUP5 \t\t\tmapping(string => UserComment[...\n      DUP3 \t\t\tmapping(string => UserComment[...\n      MSTORE \t\t\tmapping(string => UserComment[...\n      PUSH 20\t\t\tmapping(string => UserComment[...\n      DUP4 \t\t\tmapping(string => UserComment[...\n      ADD \t\t\tmapping(string => UserComment[...\n      PUSH 20\t\t\tmapping(string => UserComment[...\n      DUP6 \t\t\tmapping(string => UserComment[...\n      ADD \t\t\tmapping(string => UserComment[...\n      KECCAK256 \t\t\tmapping(string => UserComment[...\n      DUP2 \t\t\tmapping(string => UserComment[...\n      DUP4 \t\t\tmapping(string => UserComment[...\n      MSTORE \t\t\tmapping(string => UserComment[...\n      DUP1 \t\t\tmapping(string => UserComment[...\n      SWAP6 \t\t\tmapping(string => UserComment[...\n      POP \t\t\tmapping(string => UserComment[...\n      POP \t\t\tmapping(string => UserComment[...\n      POP \t\t\tmapping(string => UserComment[...\n      POP \t\t\tmapping(string => UserComment[...\n      POP \t\t\tmapping(string => UserComment[...\n      POP \t\t\tmapping(string => UserComment[...\n      DUP2 \t\t\tmapping(string => UserComment[...\n      DUP2 \t\t\tmapping(string => UserComment[...\n      SLOAD \t\t\tmapping(string => UserComment[...\n      DUP2 \t\t\tmapping(string => UserComment[...\n      LT \t\t\tmapping(string => UserComment[...\n      PUSH [tag] 54\t\t\tmapping(string => UserComment[...\n      JUMPI \t\t\tmapping(string => UserComment[...\n      PUSH 0\t\t\tmapping(string => UserComment[...\n      DUP1 \t\t\tmapping(string => UserComment[...\n      REVERT \t\t\tmapping(string => UserComment[...\n    tag 54\t\t\tmapping(string => UserComment[...\n      JUMPDEST \t\t\tmapping(string => UserComment[...\n      SWAP1 \t\t\tmapping(string => UserComment[...\n      PUSH 0\t\t\tmapping(string => UserComment[...\n      MSTORE \t\t\tmapping(string => UserComment[...\n      PUSH 20\t\t\tmapping(string => UserComment[...\n      PUSH 0\t\t\tmapping(string => UserComment[...\n      KECCAK256 \t\t\tmapping(string => UserComment[...\n      SWAP1 \t\t\tmapping(string => UserComment[...\n      PUSH 2\t\t\tmapping(string => UserComment[...\n      MUL \t\t\tmapping(string => UserComment[...\n      ADD \t\t\tmapping(string => UserComment[...\n      PUSH 0\t\t\tmapping(string => UserComment[...\n      SWAP2 \t\t\tmapping(string => UserComment[...\n      POP \t\t\tmapping(string => UserComment[...\n      SWAP2 \t\t\tmapping(string => UserComment[...\n      POP \t\t\tmapping(string => UserComment[...\n      POP \t\t\tmapping(string => UserComment[...\n      DUP1 \t\t\tmapping(string => UserComment[...\n      PUSH 0\t\t\tmapping(string => UserComment[...\n      ADD \t\t\tmapping(string => UserComment[...\n      PUSH 0\t\t\tmapping(string => UserComment[...\n      SWAP1 \t\t\tmapping(string => UserComment[...\n      SLOAD \t\t\tmapping(string => UserComment[...\n      SWAP1 \t\t\tmapping(string => UserComment[...\n      PUSH 100\t\t\tmapping(string => UserComment[...\n      EXP \t\t\tmapping(string => UserComment[...\n      SWAP1 \t\t\tmapping(string => UserComment[...\n      DIV \t\t\tmapping(string => UserComment[...\n      PUSH FFFFFFFFFFFFFFFFFFFFFFFFFFFFFFFFFFFFFFFF\t\t\tmapping(string => UserComment[...\n      AND \t\t\tmapping(string => UserComment[...\n      SWAP1 \t\t\tmapping(string => UserComment[...\n      DUP1 \t\t\tmapping(string => UserComment[...\n      PUSH 1\t\t\tmapping(string => UserComment[...\n      ADD \t\t\tmapping(string => UserComment[...\n      DUP1 \t\t\tmapping(string => UserComment[...\n      SLOAD \t\t\tmapping(string => UserComment[...\n      PUSH [tag] 56\t\t\tmapping(string => UserComment[...\n      SWAP1 \t\t\tmapping(string => UserComment[...\n      PUSH [tag] 49\t\t\tmapping(string => UserComment[...\n      JUMP [in]\t\t\tmapping(string => UserComment[...\n    tag 56\t\t\tmapping(string => UserComment[...\n      JUMPDEST \t\t\tmapping(string => UserComment[...\n      DUP1 \t\t\tmapping(string => UserComment[...\n      PUSH 1F\t\t\tmapping(string => UserComment[...\n      ADD \t\t\tmapping(string => UserComment[...\n      PUSH 20\t\t\tmapping(string => UserComment[...\n      DUP1 \t\t\tmapping(string => UserComment[...\n      SWAP2 \t\t\tmapping(string => UserComment[...\n      DIV \t\t\tmapping(string => UserComment[...\n      MUL \t\t\tmapping(string => UserComment[...\n      PUSH 20\t\t\tmapping(string => UserComment[...\n      ADD \t\t\tmapping(string => UserComment[...\n      PUSH 40\t\t\tmapping(string => UserComment[...\n      MLOAD \t\t\tmapping(string => UserComment[...\n      SWAP1 \t\t\tmapping(string => UserComment[...\n      DUP2 \t\t\tmapping(string => UserComment[...\n      ADD \t\t\tmapping(string => UserComment[...\n      PUSH 40\t\t\tmapping(string => UserComment[...\n      MSTORE \t\t\tmapping(string => UserComment[...\n      DUP1 \t\t\tmapping(string => UserComment[...\n      SWAP3 \t\t\tmapping(string => UserComment[...\n      SWAP2 \t\t\tmapping(string => UserComment[...\n      SWAP1 \t\t\tmapping(string => UserComment[...\n      DUP2 \t\t\tmapping(string => UserComment[...\n      DUP2 \t\t\tmapping(string => UserComment[...\n      MSTORE \t\t\tmapping(string => UserComment[...\n      PUSH 20\t\t\tmapping(string => UserComment[...\n      ADD \t\t\tmapping(string => UserComment[...\n      DUP3 \t\t\tmapping(string => UserComment[...\n      DUP1 \t\t\tmapping(string => UserComment[...\n      SLOAD \t\t\tmapping(string => UserComment[...\n      PUSH [tag] 57\t\t\tmapping(string => UserComment[...\n      SWAP1 \t\t\tmapping(string => UserComment[...\n      PUSH [tag] 49\t\t\tmapping(string => UserComment[...\n      JUMP [in]\t\t\tmapping(string => UserComment[...\n    tag 57\t\t\tmapping(string => UserComment[...\n      JUMPDEST \t\t\tmapping(string => UserComment[...\n      DUP1 \t\t\tmapping(string => UserComment[...\n      ISZERO \t\t\tmapping(string => UserComment[...\n      PUSH [tag] 58\t\t\tmapping(string => UserComment[...\n      JUMPI \t\t\tmapping(string => UserComment[...\n      DUP1 \t\t\tmapping(string => UserComment[...\n      PUSH 1F\t\t\tmapping(string => UserComment[...\n      LT \t\t\tmapping(string => UserComment[...\n      PUSH [tag] 59\t\t\tmapping(string => UserComment[...\n      JUMPI \t\t\tmapping(string => UserComment[...\n      PUSH 100\t\t\tmapping(string => UserComment[...\n      DUP1 \t\t\tmapping(string => UserComment[...\n      DUP4 \t\t\tmapping(string => UserComment[...\n      SLOAD \t\t\tmapping(string => UserComment[...\n      DIV \t\t\tmapping(string => UserComment[...\n      MUL \t\t\tmapping(string => UserComment[...\n      DUP4 \t\t\tmapping(string => UserComment[...\n      MSTORE \t\t\tmapping(string => UserComment[...\n      SWAP2 \t\t\tmapping(string => UserComment[...\n      PUSH 20\t\t\tmapping(string => UserComment[...\n      ADD \t\t\tmapping(string => UserComment[...\n      SWAP2 \t\t\tmapping(string => UserComment[...\n      PUSH [tag] 58\t\t\tmapping(string => UserComment[...\n      JUMP \t\t\tmapping(string => UserComment[...\n    tag 59\t\t\tmapping(string => UserComment[...\n      JUMPDEST \t\t\tmapping(string => UserComment[...\n      DUP3 \t\t\tmapping(string => UserComment[...\n      ADD \t\t\tmapping(string => UserComment[...\n      SWAP2 \t\t\tmapping(string => UserComment[...\n      SWAP1 \t\t\tmapping(string => UserComment[...\n      PUSH 0\t\t\tmapping(string => UserComment[...\n      MSTORE \t\t\tmapping(string => UserComment[...\n      PUSH 20\t\t\tmapping(string => UserComment[...\n      PUSH 0\t\t\tmapping(string => UserComment[...\n      KECCAK256 \t\t\tmapping(string => UserComment[...\n      SWAP1 \t\t\tmapping(string => UserComment[...\n    tag 60\t\t\tmapping(string => UserComment[...\n      JUMPDEST \t\t\tmapping(string => UserComment[...\n      DUP2 \t\t\tmapping(string => UserComment[...\n      SLOAD \t\t\tmapping(string => UserComment[...\n      DUP2 \t\t\tmapping(string => UserComment[...\n      MSTORE \t\t\tmapping(string => UserComment[...\n      SWAP1 \t\t\tmapping(string => UserComment[...\n      PUSH 1\t\t\tmapping(string => UserComment[...\n      ADD \t\t\tmapping(string => UserComment[...\n      SWAP1 \t\t\tmapping(string => UserComment[...\n      PUSH 20\t\t\tmapping(string => UserComment[...\n      ADD \t\t\tmapping(string => UserComment[...\n      DUP1 \t\t\tmapping(string => UserComment[...\n      DUP4 \t\t\tmapping(string => UserComment[...\n      GT \t\t\tmapping(string => UserComment[...\n      PUSH [tag] 60\t\t\tmapping(string => UserComment[...\n      JUMPI \t\t\tmapping(string => UserComment[...\n      DUP3 \t\t\tmapping(string => UserComment[...\n      SWAP1 \t\t\tmapping(string => UserComment[...\n      SUB \t\t\tmapping(string => UserComment[...\n      PUSH 1F\t\t\tmapping(string => UserComment[...\n      AND \t\t\tmapping(string => UserComment[...\n      DUP3 \t\t\tmapping(string => UserComment[...\n      ADD \t\t\tmapping(string => UserComment[...\n      SWAP2 \t\t\tmapping(string => UserComment[...\n    tag 58\t\t\tmapping(string => UserComment[...\n      JUMPDEST \t\t\tmapping(string => UserComment[...\n      POP \t\t\tmapping(string => UserComment[...\n      POP \t\t\tmapping(string => UserComment[...\n      POP \t\t\tmapping(string => UserComment[...\n      POP \t\t\tmapping(string => UserComment[...\n      POP \t\t\tmapping(string => UserComment[...\n      SWAP1 \t\t\tmapping(string => UserComment[...\n      POP \t\t\tmapping(string => UserComment[...\n      DUP3 \t\t\tmapping(string => UserComment[...\n      JUMP [out]\t\t\tmapping(string => UserComment[...\n    tag 26\t\t\tfunction articleHashLength() v...\n      JUMPDEST \t\t\tfunction articleHashLength() v...\n      PUSH 0\t\t\tuint256\n      DUP1 \t\t\tuint256 length\n      PUSH 0\t\t\tarticleHash\n      DUP1 \t\t\tarticleHash.length\n      SLOAD \t\t\tarticleHash.length\n      SWAP1 \t\t\tarticleHash.length\n      POP \t\t\tarticleHash.length\n      SWAP1 \t\t\tuint256 length = articleHash.l...\n      POP \t\t\tuint256 length = articleHash.l...\n      DUP1 \t\t\tlength\n      SWAP2 \t\t\treturn length\n      POP \t\t\treturn length\n      POP \t\t\treturn length\n      SWAP1 \t\t\tfunction articleHashLength() v...\n      JUMP [out]\t\t\tfunction articleHashLength() v...\n    tag 31\t\t\tfunction getCommentsOnArticle(...\n      JUMPDEST \t\t\tfunction getCommentsOnArticle(...\n      PUSH 60\t\t\tstring[] memory\n      PUSH 0\t\t\tUserComment[] memory comments\n      PUSH 1\t\t\tarticleToUserComments\n      DUP5 \t\t\t_articleHash\n      DUP5 \t\t\t_articleHash\n      PUSH 40\t\t\tarticleToUserComments[_article...\n      MLOAD \t\t\tarticleToUserComments[_article...\n      PUSH [tag] 63\t\t\tarticleToUserComments[_article...\n      SWAP3 \t\t\tarticleToUserComments[_article...\n      SWAP2 \t\t\tarticleToUserComments[_article...\n      SWAP1 \t\t\tarticleToUserComments[_article...\n      PUSH [tag] 64\t\t\tarticleToUserComments[_article...\n      JUMP [in]\t\t\tarticleToUserComments[_article...\n    tag 63\t\t\tarticleToUserComments[_article...\n      JUMPDEST \t\t\tarticleToUserComments[_article...\n      SWAP1 \t\t\tarticleToUserComments[_article...\n      DUP2 \t\t\tarticleToUserComments[_article...\n      MSTORE \t\t\tarticleToUserComments[_article...\n      PUSH 20\t\t\tarticleToUserComments[_article...\n      ADD \t\t\tarticleToUserComments[_article...\n      PUSH 40\t\t\tarticleToUserComments[_article...\n      MLOAD \t\t\tarticleToUserComments[_article...\n      DUP1 \t\t\tarticleToUserComments[_article...\n      SWAP2 \t\t\tarticleToUserComments[_article...\n      SUB \t\t\tarticleToUserComments[_article...\n      SWAP1 \t\t\tarticleToUserComments[_article...\n      KECCAK256 \t\t\tarticleToUserComments[_article...\n      DUP1 \t\t\tUserComment[] memory comments ...\n      SLOAD \t\t\tUserComment[] memory comments ...\n      DUP1 \t\t\tUserComment[] memory comments ...\n      PUSH 20\t\t\tUserComment[] memory comments ...\n      MUL \t\t\tUserComment[] memory comments ...\n      PUSH 20\t\t\tUserComment[] memory comments ...\n      ADD \t\t\tUserComment[] memory comments ...\n      PUSH 40\t\t\tUserComment[] memory comments ...\n      MLOAD \t\t\tUserComment[] memory comments ...\n      SWAP1 \t\t\tUserComment[] memory comments ...\n      DUP2 \t\t\tUserComment[] memory comments ...\n      ADD \t\t\tUserComment[] memory comments ...\n      PUSH 40\t\t\tUserComment[] memory comments ...\n      MSTORE \t\t\tUserComment[] memory comments ...\n      DUP1 \t\t\tUserComment[] memory comments ...\n      SWAP3 \t\t\tUserComment[] memory comments ...\n      SWAP2 \t\t\tUserComment[] memory comments ...\n      SWAP1 \t\t\tUserComment[] memory comments ...\n      DUP2 \t\t\tUserComment[] memory comments ...\n      DUP2 \t\t\tUserComment[] memory comments ...\n      MSTORE \t\t\tUserComment[] memory comments ...\n      PUSH 20\t\t\tUserComment[] memory comments ...\n      ADD \t\t\tUserComment[] memory comments ...\n      PUSH 0\t\t\tUserComment[] memory comments ...\n      SWAP1 \t\t\tUserComment[] memory comments ...\n    tag 65\t\t\tUserComment[] memory comments ...\n      JUMPDEST \t\t\tUserComment[] memory comments ...\n      DUP3 \t\t\tUserComment[] memory comments ...\n      DUP3 \t\t\tUserComment[] memory comments ...\n      LT \t\t\tUserComment[] memory comments ...\n      ISZERO \t\t\tUserComment[] memory comments ...\n      PUSH [tag] 66\t\t\tUserComment[] memory comments ...\n      JUMPI \t\t\tUserComment[] memory comments ...\n      DUP4 \t\t\tUserComment[] memory comments ...\n      DUP3 \t\t\tUserComment[] memory comments ...\n      SWAP1 \t\t\tUserComment[] memory comments ...\n      PUSH 0\t\t\tUserComment[] memory comments ...\n      MSTORE \t\t\tUserComment[] memory comments ...\n      PUSH 20\t\t\tUserComment[] memory comments ...\n      PUSH 0\t\t\tUserComment[] memory comments ...\n      KECCAK256 \t\t\tUserComment[] memory comments ...\n      SWAP1 \t\t\tUserComment[] memory comments ...\n      PUSH 2\t\t\tUserComment[] memory comments ...\n      MUL \t\t\tUserComment[] memory comments ...\n      ADD \t\t\tUserComment[] memory comments ...\n      PUSH 40\t\t\tUserComment[] memory comments ...\n      MLOAD \t\t\tUserComment[] memory comments ...\n      DUP1 \t\t\tUserComment[] memory comments ...\n      PUSH 40\t\t\tUserComment[] memory comments ...\n      ADD \t\t\tUserComment[] memory comments ...\n      PUSH 40\t\t\tUserComment[] memory comments ...\n      MSTORE \t\t\tUserComment[] memory comments ...\n      SWAP1 \t\t\tUserComment[] memory comments ...\n      DUP2 \t\t\tUserComment[] memory comments ...\n      PUSH 0\t\t\tUserComment[] memory comments ...\n      DUP3 \t\t\tUserComment[] memory comments ...\n      ADD \t\t\tUserComment[] memory comments ...\n      PUSH 0\t\t\tUserComment[] memory comments ...\n      SWAP1 \t\t\tUserComment[] memory comments ...\n      SLOAD \t\t\tUserComment[] memory comments ...\n      SWAP1 \t\t\tUserComment[] memory comments ...\n      PUSH 100\t\t\tUserComment[] memory comments ...\n      EXP \t\t\tUserComment[] memory comments ...\n      SWAP1 \t\t\tUserComment[] memory comments ...\n      DIV \t\t\tUserComment[] memory comments ...\n      PUSH FFFFFFFFFFFFFFFFFFFFFFFFFFFFFFFFFFFFFFFF\t\t\tUserComment[] memory comments ...\n      AND \t\t\tUserComment[] memory comments ...\n      PUSH FFFFFFFFFFFFFFFFFFFFFFFFFFFFFFFFFFFFFFFF\t\t\tUserComment[] memory comments ...\n      AND \t\t\tUserComment[] memory comments ...\n      PUSH FFFFFFFFFFFFFFFFFFFFFFFFFFFFFFFFFFFFFFFF\t\t\tUserComment[] memory comments ...\n      AND \t\t\tUserComment[] memory comments ...\n      DUP2 \t\t\tUserComment[] memory comments ...\n      MSTORE \t\t\tUserComment[] memory comments ...\n      PUSH 20\t\t\tUserComment[] memory comments ...\n      ADD \t\t\tUserComment[] memory comments ...\n      PUSH 1\t\t\tUserComment[] memory comments ...\n      DUP3 \t\t\tUserComment[] memory comments ...\n      ADD \t\t\tUserComment[] memory comments ...\n      DUP1 \t\t\tUserComment[] memory comments ...\n      SLOAD \t\t\tUserComment[] memory comments ...\n      PUSH [tag] 68\t\t\tUserComment[] memory comments ...\n      SWAP1 \t\t\tUserComment[] memory comments ...\n      PUSH [tag] 49\t\t\tUserComment[] memory comments ...\n      JUMP [in]\t\t\tUserComment[] memory comments ...\n    tag 68\t\t\tUserComment[] memory comments ...\n      JUMPDEST \t\t\tUserComment[] memory comments ...\n      DUP1 \t\t\tUserComment[] memory comments ...\n      PUSH 1F\t\t\tUserComment[] memory comments ...\n      ADD \t\t\tUserComment[] memory comments ...\n      PUSH 20\t\t\tUserComment[] memory comments ...\n      DUP1 \t\t\tUserComment[] memory comments ...\n      SWAP2 \t\t\tUserComment[] memory comments ...\n      DIV \t\t\tUserComment[] memory comments ...\n      MUL \t\t\tUserComment[] memory comments ...\n      PUSH 20\t\t\tUserComment[] memory comments ...\n      ADD \t\t\tUserComment[] memory comments ...\n      PUSH 40\t\t\tUserComment[] memory comments ...\n      MLOAD \t\t\tUserComment[] memory comments ...\n      SWAP1 \t\t\tUserComment[] memory comments ...\n      DUP2 \t\t\tUserComment[] memory comments ...\n      ADD \t\t\tUserComment[] memory comments ...\n      PUSH 40\t\t\tUserComment[] memory comments ...\n      MSTORE \t\t\tUserComment[] memory comments ...\n      DUP1 \t\t\tUserComment[] memory comments ...\n      SWAP3 \t\t\tUserComment[] memory comments ...\n      SWAP2 \t\t\tUserComment[] memory comments ...\n      SWAP1 \t\t\tUserComment[] memory comments ...\n      DUP2 \t\t\tUserComment[] memory comments ...\n      DUP2 \t\t\tUserComment[] memory comments ...\n      MSTORE \t\t\tUserComment[] memory comments ...\n      PUSH 20\t\t\tUserComment[] memory comments ...\n      ADD \t\t\tUserComment[] memory comments ...\n      DUP3 \t\t\tUserComment[] memory comments ...\n      DUP1 \t\t\tUserComment[] memory comments ...\n      SLOAD \t\t\tUserComment[] memory comments ...\n      PUSH [tag] 69\t\t\tUserComment[] memory comments ...\n      SWAP1 \t\t\tUserComment[] memory comments ...\n      PUSH [tag] 49\t\t\tUserComment[] memory comments ...\n      JUMP [in]\t\t\tUserComment[] memory comments ...\n    tag 69\t\t\tUserComment[] memory comments ...\n      JUMPDEST \t\t\tUserComment[] memory comments ...\n      DUP1 \t\t\tUserComment[] memory comments ...\n      ISZERO \t\t\tUserComment[] memory comments ...\n      PUSH [tag] 70\t\t\tUserComment[] memory comments ...\n      JUMPI \t\t\tUserComment[] memory comments ...\n      DUP1 \t\t\tUserComment[] memory comments ...\n      PUSH 1F\t\t\tUserComment[] memory comments ...\n      LT \t\t\tUserComment[] memory comments ...\n      PUSH [tag] 71\t\t\tUserComment[] memory comments ...\n      JUMPI \t\t\tUserComment[] memory comments ...\n      PUSH 100\t\t\tUserComment[] memory comments ...\n      DUP1 \t\t\tUserComment[] memory comments ...\n      DUP4 \t\t\tUserComment[] memory comments ...\n      SLOAD \t\t\tUserComment[] memory comments ...\n      DIV \t\t\tUserComment[] memory comments ...\n      MUL \t\t\tUserComment[] memory comments ...\n      DUP4 \t\t\tUserComment[] memory comments ...\n      MSTORE \t\t\tUserComment[] memory comments ...\n      SWAP2 \t\t\tUserComment[] memory comments ...\n      PUSH 20\t\t\tUserComment[] memory comments ...\n      ADD \t\t\tUserComment[] memory comments ...\n      SWAP2 \t\t\tUserComment[] memory comments ...\n      PUSH [tag] 70\t\t\tUserComment[] memory comments ...\n      JUMP \t\t\tUserComment[] memory comments ...\n    tag 71\t\t\tUserComment[] memory comments ...\n      JUMPDEST \t\t\tUserComment[] memory comments ...\n      DUP3 \t\t\tUserComment[] memory comments ...\n      ADD \t\t\tUserComment[] memory comments ...\n      SWAP2 \t\t\tUserComment[] memory comments ...\n      SWAP1 \t\t\tUserComment[] memory comments ...\n      PUSH 0\t\t\tUserComment[] memory comments ...\n      MSTORE \t\t\tUserComment[] memory comments ...\n      PUSH 20\t\t\tUserComment[] memory comments ...\n      PUSH 0\t\t\tUserComment[] memory comments ...\n      KECCAK256 \t\t\tUserComment[] memory comments ...\n      SWAP1 \t\t\tUserComment[] memory comments ...\n    tag 72\t\t\tUserComment[] memory comments ...\n      JUMPDEST \t\t\tUserComment[] memory comments ...\n      DUP2 \t\t\tUserComment[] memory comments ...\n      SLOAD \t\t\tUserComment[] memory comments ...\n      DUP2 \t\t\tUserComment[] memory comments ...\n      MSTORE \t\t\tUserComment[] memory comments ...\n      SWAP1 \t\t\tUserComment[] memory comments ...\n      PUSH 1\t\t\tUserComment[] memory comments ...\n      ADD \t\t\tUserComment[] memory comments ...\n      SWAP1 \t\t\tUserComment[] memory comments ...\n      PUSH 20\t\t\tUserComment[] memory comments ...\n      ADD \t\t\tUserComment[] memory comments ...\n      DUP1 \t\t\tUserComment[] memory comments ...\n      DUP4 \t\t\tUserComment[] memory comments ...\n      GT \t\t\tUserComment[] memory comments ...\n      PUSH [tag] 72\t\t\tUserComment[] memory comments ...\n      JUMPI \t\t\tUserComment[] memory comments ...\n      DUP3 \t\t\tUserComment[] memory comments ...\n      SWAP1 \t\t\tUserComment[] memory comments ...\n      SUB \t\t\tUserComment[] memory comments ...\n      PUSH 1F\t\t\tUserComment[] memory comments ...\n      AND \t\t\tUserComment[] memory comments ...\n      DUP3 \t\t\tUserComment[] memory comments ...\n      ADD \t\t\tUserComment[] memory comments ...\n      SWAP2 \t\t\tUserComment[] memory comments ...\n    tag 70\t\t\tUserComment[] memory comments ...\n      JUMPDEST \t\t\tUserComment[] memory comments ...\n      POP \t\t\tUserComment[] memory comments ...\n      POP \t\t\tUserComment[] memory comments ...\n      POP \t\t\tUserComment[] memory comments ...\n      POP \t\t\tUserComment[] memory comments ...\n      POP \t\t\tUserComment[] memory comments ...\n      DUP2 \t\t\tUserComment[] memory comments ...\n      MSTORE \t\t\tUserComment[] memory comments ...\n      POP \t\t\tUserComment[] memory comments ...\n      POP \t\t\tUserComment[] memory comments ...\n      DUP2 \t\t\tUserComment[] memory comments ...\n      MSTORE \t\t\tUserComment[] memory comments ...\n      PUSH 20\t\t\tUserComment[] memory comments ...\n      ADD \t\t\tUserComment[] memory comments ...\n      SWAP1 \t\t\tUserComment[] memory comments ...\n      PUSH 1\t\t\tUserComment[] memory comments ...\n      ADD \t\t\tUserComment[] memory comments ...\n      SWAP1 \t\t\tUserComment[] memory comments ...\n      PUSH [tag] 65\t\t\tUserComment[] memory comments ...\n      JUMP \t\t\tUserComment[] memory comments ...\n    tag 66\t\t\tUserComment[] memory comments ...\n      JUMPDEST \t\t\tUserComment[] memory comments ...\n      POP \t\t\tUserComment[] memory comments ...\n      POP \t\t\tUserComment[] memory comments ...\n      POP \t\t\tUserComment[] memory comments ...\n      POP \t\t\tUserComment[] memory comments ...\n      SWAP1 \t\t\tUserComment[] memory comments ...\n      POP \t\t\tUserComment[] memory comments ...\n      PUSH 0\t\t\tstring[] memory commentsArray\n      DUP2 \t\t\tcomments\n      MLOAD \t\t\tcomments.length\n      PUSH FFFFFFFFFFFFFFFF\t\t\tnew string[](comments.length)\n      DUP2 \t\t\tnew string[](comments.length)\n      GT \t\t\tnew string[](comments.length)\n      ISZERO \t\t\tnew string[](comments.length)\n      PUSH [tag] 73\t\t\tnew string[](comments.length)\n      JUMPI \t\t\tnew string[](comments.length)\n      PUSH [tag] 74\t\t\tnew string[](comments.length)\n      PUSH [tag] 75\t\t\tnew string[](comments.length)\n      JUMP [in]\t\t\tnew string[](comments.length)\n    tag 74\t\t\tnew string[](comments.length)\n      JUMPDEST \t\t\tnew string[](comments.length)\n    tag 73\t\t\tnew string[](comments.length)\n      JUMPDEST \t\t\tnew string[](comments.length)\n      PUSH 40\t\t\tnew string[](comments.length)\n      MLOAD \t\t\tnew string[](comments.length)\n      SWAP1 \t\t\tnew string[](comments.length)\n      DUP1 \t\t\tnew string[](comments.length)\n      DUP3 \t\t\tnew string[](comments.length)\n      MSTORE \t\t\tnew string[](comments.length)\n      DUP1 \t\t\tnew string[](comments.length)\n      PUSH 20\t\t\tnew string[](comments.length)\n      MUL \t\t\tnew string[](comments.length)\n      PUSH 20\t\t\tnew string[](comments.length)\n      ADD \t\t\tnew string[](comments.length)\n      DUP3 \t\t\tnew string[](comments.length)\n      ADD \t\t\tnew string[](comments.length)\n      PUSH 40\t\t\tnew string[](comments.length)\n      MSTORE \t\t\tnew string[](comments.length)\n      DUP1 \t\t\tnew string[](comments.length)\n      ISZERO \t\t\tnew string[](comments.length)\n      PUSH [tag] 76\t\t\tnew string[](comments.length)\n      JUMPI \t\t\tnew string[](comments.length)\n      DUP2 \t\t\tnew string[](comments.length)\n      PUSH 20\t\t\tnew string[](comments.length)\n      ADD \t\t\tnew string[](comments.length)\n    tag 77\t\t\tnew string[](comments.length)\n      JUMPDEST \t\t\tnew string[](comments.length)\n      PUSH 60\t\t\tnew string[](comments.length)\n      DUP2 \t\t\tnew string[](comments.length)\n      MSTORE \t\t\tnew string[](comments.length)\n      PUSH 20\t\t\tnew string[](comments.length)\n      ADD \t\t\tnew string[](comments.length)\n      SWAP1 \t\t\tnew string[](comments.length)\n      PUSH 1\t\t\tnew string[](comments.length)\n      SWAP1 \t\t\tnew string[](comments.length)\n      SUB \t\t\tnew string[](comments.length)\n      SWAP1 \t\t\tnew string[](comments.length)\n      DUP2 \t\t\tnew string[](comments.length)\n      PUSH [tag] 77\t\t\tnew string[](comments.length)\n      JUMPI \t\t\tnew string[](comments.length)\n      SWAP1 \t\t\tnew string[](comments.length)\n      POP \t\t\tnew string[](comments.length)\n    tag 76\t\t\tnew string[](comments.length)\n      JUMPDEST \t\t\tnew string[](comments.length)\n      POP \t\t\tnew string[](comments.length)\n      SWAP1 \t\t\tstring[] memory commentsArray ...\n      POP \t\t\tstring[] memory commentsArray ...\n      PUSH 0\t\t\tuint256 i\n    tag 78\t\t\tfor (uint256 i = 0; i < commen...\n      JUMPDEST \t\t\tfor (uint256 i = 0; i < commen...\n      DUP3 \t\t\tcomments\n      MLOAD \t\t\tcomments.length\n      DUP2 \t\t\ti\n      LT \t\t\ti < comments.length\n      ISZERO \t\t\tfor (uint256 i = 0; i < commen...\n      PUSH [tag] 79\t\t\tfor (uint256 i = 0; i < commen...\n      JUMPI \t\t\tfor (uint256 i = 0; i < commen...\n      DUP3 \t\t\tcomments\n      DUP2 \t\t\ti\n      DUP2 \t\t\tcomments[i]\n      MLOAD \t\t\tcomments[i]\n      DUP2 \t\t\tcomments[i]\n      LT \t\t\tcomments[i]\n      PUSH [tag] 81\t\t\tcomments[i]\n      JUMPI \t\t\tcomments[i]\n      PUSH [tag] 82\t\t\tcomments[i]\n      PUSH [tag] 83\t\t\tcomments[i]\n      JUMP [in]\t\t\tcomments[i]\n    tag 82\t\t\tcomments[i]\n      JUMPDEST \t\t\tcomments[i]\n    tag 81\t\t\tcomments[i]\n      JUMPDEST \t\t\tcomments[i]\n      PUSH 20\t\t\tcomments[i]\n      MUL \t\t\tcomments[i]\n      PUSH 20\t\t\tcomments[i]\n      ADD \t\t\tcomments[i]\n      ADD \t\t\tcomments[i]\n      MLOAD \t\t\tcomments[i]\n      PUSH 20\t\t\tcomments[i].comment\n      ADD \t\t\tcomments[i].comment\n      MLOAD \t\t\tcomments[i].comment\n      DUP3 \t\t\tcommentsArray\n      DUP3 \t\t\ti\n      DUP2 \t\t\tcommentsArray[i]\n      MLOAD \t\t\tcommentsArray[i]\n      DUP2 \t\t\tcommentsArray[i]\n      LT \t\t\tcommentsArray[i]\n      PUSH [tag] 84\t\t\tcommentsArray[i]\n      JUMPI \t\t\tcommentsArray[i]\n      PUSH [tag] 85\t\t\tcommentsArray[i]\n      PUSH [tag] 83\t\t\tcommentsArray[i]\n      JUMP [in]\t\t\tcommentsArray[i]\n    tag 85\t\t\tcommentsArray[i]\n      JUMPDEST \t\t\tcommentsArray[i]\n    tag 84\t\t\tcommentsArray[i]\n      JUMPDEST \t\t\tcommentsArray[i]\n      PUSH 20\t\t\tcommentsArray[i]\n      MUL \t\t\tcommentsArray[i]\n      PUSH 20\t\t\tcommentsArray[i]\n      ADD \t\t\tcommentsArray[i]\n      ADD \t\t\tcommentsArray[i]\n      DUP2 \t\t\tcommentsArray[i] = comments[i]...\n      SWAP1 \t\t\tcommentsArray[i] = comments[i]...\n      MSTORE \t\t\tcommentsArray[i] = comments[i]...\n      POP \t\t\tcommentsArray[i] = comments[i]...\n      DUP1 \t\t\ti++\n      DUP1 \t\t\ti++\n      PUSH [tag] 86\t\t\ti++\n      SWAP1 \t\t\ti++\n      PUSH [tag] 87\t\t\ti++\n      JUMP [in]\t\t\ti++\n    tag 86\t\t\ti++\n      JUMPDEST \t\t\ti++\n      SWAP2 \t\t\ti++\n      POP \t\t\ti++\n      POP \t\t\ti++\n      PUSH [tag] 78\t\t\tfor (uint256 i = 0; i < commen...\n      JUMP \t\t\tfor (uint256 i = 0; i < commen...\n    tag 79\t\t\tfor (uint256 i = 0; i < commen...\n      JUMPDEST \t\t\tfor (uint256 i = 0; i < commen...\n      POP \t\t\tfor (uint256 i = 0; i < commen...\n      DUP1 \t\t\tcommentsArray\n      SWAP3 \t\t\treturn commentsArray\n      POP \t\t\treturn commentsArray\n      POP \t\t\treturn commentsArray\n      POP \t\t\treturn commentsArray\n      SWAP3 \t\t\tfunction getCommentsOnArticle(...\n      SWAP2 \t\t\tfunction getCommentsOnArticle(...\n      POP \t\t\tfunction getCommentsOnArticle(...\n      POP \t\t\tfunction getCommentsOnArticle(...\n      JUMP [out]\t\t\tfunction getCommentsOnArticle(...\n    tag 37\t\t\tfunction addComment(string cal...\n      JUMPDEST \t\t\tfunction addComment(string cal...\n      PUSH 0\t\t\tUserComment memory userComment\n      PUSH 40\t\t\tUserComment(msg.sender, _userC...\n      MLOAD \t\t\tUserComment(msg.sender, _userC...\n      DUP1 \t\t\tUserComment(msg.sender, _userC...\n      PUSH 40\t\t\tUserComment(msg.sender, _userC...\n      ADD \t\t\tUserComment(msg.sender, _userC...\n      PUSH 40\t\t\tUserComment(msg.sender, _userC...\n      MSTORE \t\t\tUserComment(msg.sender, _userC...\n      DUP1 \t\t\tUserComment(msg.sender, _userC...\n      CALLER \t\t\tmsg.sender\n      PUSH FFFFFFFFFFFFFFFFFFFFFFFFFFFFFFFFFFFFFFFF\t\t\tUserComment(msg.sender, _userC...\n      AND \t\t\tUserComment(msg.sender, _userC...\n      DUP2 \t\t\tUserComment(msg.sender, _userC...\n      MSTORE \t\t\tUserComment(msg.sender, _userC...\n      PUSH 20\t\t\tUserComment(msg.sender, _userC...\n      ADD \t\t\tUserComment(msg.sender, _userC...\n      DUP5 \t\t\t_userComment\n      DUP5 \t\t\t_userComment\n      DUP1 \t\t\tUserComment(msg.sender, _userC...\n      DUP1 \t\t\tUserComment(msg.sender, _userC...\n      PUSH 1F\t\t\tUserComment(msg.sender, _userC...\n      ADD \t\t\tUserComment(msg.sender, _userC...\n      PUSH 20\t\t\tUserComment(msg.sender, _userC...\n      DUP1 \t\t\tUserComment(msg.sender, _userC...\n      SWAP2 \t\t\tUserComment(msg.sender, _userC...\n      DIV \t\t\tUserComment(msg.sender, _userC...\n      MUL \t\t\tUserComment(msg.sender, _userC...\n      PUSH 20\t\t\tUserComment(msg.sender, _userC...\n      ADD \t\t\tUserComment(msg.sender, _userC...\n      PUSH 40\t\t\tUserComment(msg.sender, _userC...\n      MLOAD \t\t\tUserComment(msg.sender, _userC...\n      SWAP1 \t\t\tUserComment(msg.sender, _userC...\n      DUP2 \t\t\tUserComment(msg.sender, _userC...\n      ADD \t\t\tUserComment(msg.sender, _userC...\n      PUSH 40\t\t\tUserComment(msg.sender, _userC...\n      MSTORE \t\t\tUserComment(msg.sender, _userC...\n      DUP1 \t\t\tUserComment(msg.sender, _userC...\n      SWAP4 \t\t\tUserComment(msg.sender, _userC...\n      SWAP3 \t\t\tUserComment(msg.sender, _userC...\n      SWAP2 \t\t\tUserComment(msg.sender, _userC...\n      SWAP1 \t\t\tUserComment(msg.sender, _userC...\n      DUP2 \t\t\tUserComment(msg.sender, _userC...\n      DUP2 \t\t\tUserComment(msg.sender, _userC...\n      MSTORE \t\t\tUserComment(msg.sender, _userC...\n      PUSH 20\t\t\tUserComment(msg.sender, _userC...\n      ADD \t\t\tUserComment(msg.sender, _userC...\n      DUP4 \t\t\tUserComment(msg.sender, _userC...\n      DUP4 \t\t\tUserComment(msg.sender, _userC...\n      DUP1 \t\t\tUserComment(msg.sender, _userC...\n      DUP3 \t\t\tUserComment(msg.sender, _userC...\n      DUP5 \t\t\tUserComment(msg.sender, _userC...\n      CALLDATACOPY \t\t\tUserComment(msg.sender, _userC...\n      PUSH 0\t\t\tUserComment(msg.sender, _userC...\n      DUP2 \t\t\tUserComment(msg.sender, _userC...\n      DUP5 \t\t\tUserComment(msg.sender, _userC...\n      ADD \t\t\tUserComment(msg.sender, _userC...\n      MSTORE \t\t\tUserComment(msg.sender, _userC...\n      PUSH 1F\t\t\tUserComment(msg.sender, _userC...\n      NOT \t\t\tUserComment(msg.sender, _userC...\n      PUSH 1F\t\t\tUserComment(msg.sender, _userC...\n      DUP3 \t\t\tUserComment(msg.sender, _userC...\n      ADD \t\t\tUserComment(msg.sender, _userC...\n      AND \t\t\tUserComment(msg.sender, _userC...\n      SWAP1 \t\t\tUserComment(msg.sender, _userC...\n      POP \t\t\tUserComment(msg.sender, _userC...\n      DUP1 \t\t\tUserComment(msg.sender, _userC...\n      DUP4 \t\t\tUserComment(msg.sender, _userC...\n      ADD \t\t\tUserComment(msg.sender, _userC...\n      SWAP3 \t\t\tUserComment(msg.sender, _userC...\n      POP \t\t\tUserComment(msg.sender, _userC...\n      POP \t\t\tUserComment(msg.sender, _userC...\n      POP \t\t\tUserComment(msg.sender, _userC...\n      POP \t\t\tUserComment(msg.sender, _userC...\n      POP \t\t\tUserComment(msg.sender, _userC...\n      POP \t\t\tUserComment(msg.sender, _userC...\n      POP \t\t\tUserComment(msg.sender, _userC...\n      DUP2 \t\t\tUserComment(msg.sender, _userC...\n      MSTORE \t\t\tUserComment(msg.sender, _userC...\n      POP \t\t\tUserComment(msg.sender, _userC...\n      SWAP1 \t\t\tUserComment memory userComment...\n      POP \t\t\tUserComment memory userComment...\n      PUSH 1\t\t\tarticleToUserComments\n      DUP6 \t\t\t_articleHash\n      DUP6 \t\t\t_articleHash\n      PUSH 40\t\t\tarticleToUserComments[_article...\n      MLOAD \t\t\tarticleToUserComments[_article...\n      PUSH [tag] 89\t\t\tarticleToUserComments[_article...\n      SWAP3 \t\t\tarticleToUserComments[_article...\n      SWAP2 \t\t\tarticleToUserComments[_article...\n      SWAP1 \t\t\tarticleToUserComments[_article...\n      PUSH [tag] 64\t\t\tarticleToUserComments[_article...\n      JUMP [in]\t\t\tarticleToUserComments[_article...\n    tag 89\t\t\tarticleToUserComments[_article...\n      JUMPDEST \t\t\tarticleToUserComments[_article...\n      SWAP1 \t\t\tarticleToUserComments[_article...\n      DUP2 \t\t\tarticleToUserComments[_article...\n      MSTORE \t\t\tarticleToUserComments[_article...\n      PUSH 20\t\t\tarticleToUserComments[_article...\n      ADD \t\t\tarticleToUserComments[_article...\n      PUSH 40\t\t\tarticleToUserComments[_article...\n      MLOAD \t\t\tarticleToUserComments[_article...\n      DUP1 \t\t\tarticleToUserComments[_article...\n      SWAP2 \t\t\tarticleToUserComments[_article...\n      SUB \t\t\tarticleToUserComments[_article...\n      SWAP1 \t\t\tarticleToUserComments[_article...\n      KECCAK256 \t\t\tarticleToUserComments[_article...\n      DUP2 \t\t\tuserComment\n      SWAP1 \t\t\tarticleToUserComments[_article...\n      DUP1 \t\t\tarticleToUserComments[_article...\n      PUSH 1\t\t\tarticleToUserComments[_article...\n      DUP2 \t\t\tarticleToUserComments[_article...\n      SLOAD \t\t\tarticleToUserComments[_article...\n      ADD \t\t\tarticleToUserComments[_article...\n      DUP1 \t\t\tarticleToUserComments[_article...\n      DUP3 \t\t\tarticleToUserComments[_article...\n      SSTORE \t\t\tarticleToUserComments[_article...\n      DUP1 \t\t\tarticleToUserComments[_article...\n      SWAP2 \t\t\tarticleToUserComments[_article...\n      POP \t\t\tarticleToUserComments[_article...\n      POP \t\t\tarticleToUserComments[_article...\n      PUSH 1\t\t\tarticleToUserComments[_article...\n      SWAP1 \t\t\tarticleToUserComments[_article...\n      SUB \t\t\tarticleToUserComments[_article...\n      SWAP1 \t\t\tarticleToUserComments[_article...\n      PUSH 0\t\t\tarticleToUserComments[_article...\n      MSTORE \t\t\tarticleToUserComments[_article...\n      PUSH 20\t\t\tarticleToUserComments[_article...\n      PUSH 0\t\t\tarticleToUserComments[_article...\n      KECCAK256 \t\t\tarticleToUserComments[_article...\n      SWAP1 \t\t\tarticleToUserComments[_article...\n      PUSH 2\t\t\tarticleToUserComments[_article...\n      MUL \t\t\tarticleToUserComments[_article...\n      ADD \t\t\tarticleToUserComments[_article...\n      PUSH 0\t\t\tarticleToUserComments[_article...\n      SWAP1 \t\t\tarticleToUserComments[_article...\n      SWAP2 \t\t\tarticleToUserComments[_article...\n      SWAP1 \t\t\tarticleToUserComments[_article...\n      SWAP2 \t\t\tarticleToUserComments[_article...\n      SWAP1 \t\t\tarticleToUserComments[_article...\n      SWAP2 \t\t\tarticleToUserComments[_article...\n      POP \t\t\tarticleToUserComments[_article...\n      PUSH 0\t\t\tarticleToUserComments[_article...\n      DUP3 \t\t\tarticleToUserComments[_article...\n      ADD \t\t\tarticleToUserComments[_article...\n      MLOAD \t\t\tarticleToUserComments[_article...\n      DUP2 \t\t\tarticleToUserComments[_article...\n      PUSH 0\t\t\tarticleToUserComments[_article...\n      ADD \t\t\tarticleToUserComments[_article...\n      PUSH 0\t\t\tarticleToUserComments[_article...\n      PUSH 100\t\t\tarticleToUserComments[_article...\n      EXP \t\t\tarticleToUserComments[_article...\n      DUP2 \t\t\tarticleToUserComments[_article...\n      SLOAD \t\t\tarticleToUserComments[_article...\n      DUP2 \t\t\tarticleToUserComments[_article...\n      PUSH FFFFFFFFFFFFFFFFFFFFFFFFFFFFFFFFFFFFFFFF\t\t\tarticleToUserComments[_article...\n      MUL \t\t\tarticleToUserComments[_article...\n      NOT \t\t\tarticleToUserComments[_article...\n      AND \t\t\tarticleToUserComments[_article...\n      SWAP1 \t\t\tarticleToUserComments[_article...\n      DUP4 \t\t\tarticleToUserComments[_article...\n      PUSH FFFFFFFFFFFFFFFFFFFFFFFFFFFFFFFFFFFFFFFF\t\t\tarticleToUserComments[_article...\n      AND \t\t\tarticleToUserComments[_article...\n      MUL \t\t\tarticleToUserComments[_article...\n      OR \t\t\tarticleToUserComments[_article...\n      SWAP1 \t\t\tarticleToUserComments[_article...\n      SSTORE \t\t\tarticleToUserComments[_article...\n      POP \t\t\tarticleToUserComments[_article...\n      PUSH 20\t\t\tarticleToUserComments[_article...\n      DUP3 \t\t\tarticleToUserComments[_article...\n      ADD \t\t\tarticleToUserComments[_article...\n      MLOAD \t\t\tarticleToUserComments[_article...\n      DUP2 \t\t\tarticleToUserComments[_article...\n      PUSH 1\t\t\tarticleToUserComments[_article...\n      ADD \t\t\tarticleToUserComments[_article...\n      SWAP1 \t\t\tarticleToUserComments[_article...\n      DUP1 \t\t\tarticleToUserComments[_article...\n      MLOAD \t\t\tarticleToUserComments[_article...\n      SWAP1 \t\t\tarticleToUserComments[_article...\n      PUSH 20\t\t\tarticleToUserComments[_article...\n      ADD \t\t\tarticleToUserComments[_article...\n      SWAP1 \t\t\tarticleToUserComments[_article...\n      PUSH [tag] 91\t\t\tarticleToUserComments[_article...\n      SWAP3 \t\t\tarticleToUserComments[_article...\n      SWAP2 \t\t\tarticleToUserComments[_article...\n      SWAP1 \t\t\tarticleToUserComments[_article...\n      PUSH [tag] 92\t\t\tarticleToUserComments[_article...\n      JUMP [in]\t\t\tarticleToUserComments[_article...\n    tag 91\t\t\tarticleToUserComments[_article...\n      JUMPDEST \t\t\tarticleToUserComments[_article...\n      POP \t\t\tarticleToUserComments[_article...\n      POP \t\t\tarticleToUserComments[_article...\n      POP \t\t\tarticleToUserComments[_article...\n      POP \t\t\t{\\r\\n        UserComment memor...\n      POP \t\t\tfunction addComment(string cal...\n      POP \t\t\tfunction addComment(string cal...\n      POP \t\t\tfunction addComment(string cal...\n      POP \t\t\tfunction addComment(string cal...\n      JUMP [out]\t\t\tfunction addComment(string cal...\n    tag 45\t\t\t\n      JUMPDEST \t\t\t\n      DUP3 \t\t\t\n      DUP1 \t\t\t\n      SLOAD \t\t\t\n      PUSH [tag] 93\t\t\t\n      SWAP1 \t\t\t\n      PUSH [tag] 49\t\t\t\n      JUMP [in]\t\t\t\n    tag 93\t\t\t\n      JUMPDEST \t\t\t\n      SWAP1 \t\t\t\n      PUSH 0\t\t\t\n      MSTORE \t\t\t\n      PUSH 20\t\t\t\n      PUSH 0\t\t\t\n      KECCAK256 \t\t\t\n      SWAP1 \t\t\t\n      PUSH 1F\t\t\t\n      ADD \t\t\t\n      PUSH 20\t\t\t\n      SWAP1 \t\t\t\n      DIV \t\t\t\n      DUP2 \t\t\t\n      ADD \t\t\t\n      SWAP3 \t\t\t\n      DUP3 \t\t\t\n      PUSH [tag] 95\t\t\t\n      JUMPI \t\t\t\n      PUSH 0\t\t\t\n      DUP6 \t\t\t\n      SSTORE \t\t\t\n      PUSH [tag] 94\t\t\t\n      JUMP \t\t\t\n    tag 95\t\t\t\n      JUMPDEST \t\t\t\n      DUP3 \t\t\t\n      PUSH 1F\t\t\t\n      LT \t\t\t\n      PUSH [tag] 96\t\t\t\n      JUMPI \t\t\t\n      DUP1 \t\t\t\n      CALLDATALOAD \t\t\t\n      PUSH FF\t\t\t\n      NOT \t\t\t\n      AND \t\t\t\n      DUP4 \t\t\t\n      DUP1 \t\t\t\n      ADD \t\t\t\n      OR \t\t\t\n      DUP6 \t\t\t\n      SSTORE \t\t\t\n      PUSH [tag] 94\t\t\t\n      JUMP \t\t\t\n    tag 96\t\t\t\n      JUMPDEST \t\t\t\n      DUP3 \t\t\t\n      DUP1 \t\t\t\n      ADD \t\t\t\n      PUSH 1\t\t\t\n      ADD \t\t\t\n      DUP6 \t\t\t\n      SSTORE \t\t\t\n      DUP3 \t\t\t\n      ISZERO \t\t\t\n      PUSH [tag] 94\t\t\t\n      JUMPI \t\t\t\n      SWAP2 \t\t\t\n      DUP3 \t\t\t\n      ADD \t\t\t\n    tag 97\t\t\t\n      JUMPDEST \t\t\t\n      DUP3 \t\t\t\n      DUP2 \t\t\t\n      GT \t\t\t\n      ISZERO \t\t\t\n      PUSH [tag] 98\t\t\t\n      JUMPI \t\t\t\n      DUP3 \t\t\t\n      CALLDATALOAD \t\t\t\n      DUP3 \t\t\t\n      SSTORE \t\t\t\n      SWAP2 \t\t\t\n      PUSH 20\t\t\t\n      ADD \t\t\t\n      SWAP2 \t\t\t\n      SWAP1 \t\t\t\n      PUSH 1\t\t\t\n      ADD \t\t\t\n      SWAP1 \t\t\t\n      PUSH [tag] 97\t\t\t\n      JUMP \t\t\t\n    tag 98\t\t\t\n      JUMPDEST \t\t\t\n    tag 94\t\t\t\n      JUMPDEST \t\t\t\n      POP \t\t\t\n      SWAP1 \t\t\t\n      POP \t\t\t\n      PUSH [tag] 99\t\t\t\n      SWAP2 \t\t\t\n      SWAP1 \t\t\t\n      PUSH [tag] 100\t\t\t\n      JUMP [in]\t\t\t\n    tag 99\t\t\t\n      JUMPDEST \t\t\t\n      POP \t\t\t\n      SWAP1 \t\t\t\n      JUMP [out]\t\t\t\n    tag 92\t\t\t\n      JUMPDEST \t\t\t\n      DUP3 \t\t\t\n      DUP1 \t\t\t\n      SLOAD \t\t\t\n      PUSH [tag] 101\t\t\t\n      SWAP1 \t\t\t\n      PUSH [tag] 49\t\t\t\n      JUMP [in]\t\t\t\n    tag 101\t\t\t\n      JUMPDEST \t\t\t\n      SWAP1 \t\t\t\n      PUSH 0\t\t\t\n      MSTORE \t\t\t\n      PUSH 20\t\t\t\n      PUSH 0\t\t\t\n      KECCAK256 \t\t\t\n      SWAP1 \t\t\t\n      PUSH 1F\t\t\t\n      ADD \t\t\t\n      PUSH 20\t\t\t\n      SWAP1 \t\t\t\n      DIV \t\t\t\n      DUP2 \t\t\t\n      ADD \t\t\t\n      SWAP3 \t\t\t\n      DUP3 \t\t\t\n      PUSH [tag] 103\t\t\t\n      JUMPI \t\t\t\n      PUSH 0\t\t\t\n      DUP6 \t\t\t\n      SSTORE \t\t\t\n      PUSH [tag] 102\t\t\t\n      JUMP \t\t\t\n    tag 103\t\t\t\n      JUMPDEST \t\t\t\n      DUP3 \t\t\t\n      PUSH 1F\t\t\t\n      LT \t\t\t\n      PUSH [tag] 104\t\t\t\n      JUMPI \t\t\t\n      DUP1 \t\t\t\n      MLOAD \t\t\t\n      PUSH FF\t\t\t\n      NOT \t\t\t\n      AND \t\t\t\n      DUP4 \t\t\t\n      DUP1 \t\t\t\n      ADD \t\t\t\n      OR \t\t\t\n      DUP6 \t\t\t\n      SSTORE \t\t\t\n      PUSH [tag] 102\t\t\t\n      JUMP \t\t\t\n    tag 104\t\t\t\n      JUMPDEST \t\t\t\n      DUP3 \t\t\t\n      DUP1 \t\t\t\n      ADD \t\t\t\n      PUSH 1\t\t\t\n      ADD \t\t\t\n      DUP6 \t\t\t\n      SSTORE \t\t\t\n      DUP3 \t\t\t\n      ISZERO \t\t\t\n      PUSH [tag] 102\t\t\t\n      JUMPI \t\t\t\n      SWAP2 \t\t\t\n      DUP3 \t\t\t\n      ADD \t\t\t\n    tag 105\t\t\t\n      JUMPDEST \t\t\t\n      DUP3 \t\t\t\n      DUP2 \t\t\t\n      GT \t\t\t\n      ISZERO \t\t\t\n      PUSH [tag] 106\t\t\t\n      JUMPI \t\t\t\n      DUP3 \t\t\t\n      MLOAD \t\t\t\n      DUP3 \t\t\t\n      SSTORE \t\t\t\n      SWAP2 \t\t\t\n      PUSH 20\t\t\t\n      ADD \t\t\t\n      SWAP2 \t\t\t\n      SWAP1 \t\t\t\n      PUSH 1\t\t\t\n      ADD \t\t\t\n      SWAP1 \t\t\t\n      PUSH [tag] 105\t\t\t\n      JUMP \t\t\t\n    tag 106\t\t\t\n      JUMPDEST \t\t\t\n    tag 102\t\t\t\n      JUMPDEST \t\t\t\n      POP \t\t\t\n      SWAP1 \t\t\t\n      POP \t\t\t\n      PUSH [tag] 107\t\t\t\n      SWAP2 \t\t\t\n      SWAP1 \t\t\t\n      PUSH [tag] 100\t\t\t\n      JUMP [in]\t\t\t\n    tag 107\t\t\t\n      JUMPDEST \t\t\t\n      POP \t\t\t\n      SWAP1 \t\t\t\n      JUMP [out]\t\t\t\n    tag 100\t\t\t\n      JUMPDEST \t\t\t\n    tag 108\t\t\t\n      JUMPDEST \t\t\t\n      DUP1 \t\t\t\n      DUP3 \t\t\t\n      GT \t\t\t\n      ISZERO \t\t\t\n      PUSH [tag] 109\t\t\t\n      JUMPI \t\t\t\n      PUSH 0\t\t\t\n      DUP2 \t\t\t\n      PUSH 0\t\t\t\n      SWAP1 \t\t\t\n      SSTORE \t\t\t\n      POP \t\t\t\n      PUSH 1\t\t\t\n      ADD \t\t\t\n      PUSH [tag] 108\t\t\t\n      JUMP \t\t\t\n    tag 109\t\t\t\n      JUMPDEST \t\t\t\n      POP \t\t\t\n      SWAP1 \t\t\t\n      JUMP [out]\t\t\t\n    tag 110\t\t\tut of Contract:\\r\\n// SPDX-Lic...\n      JUMPDEST \t\t\tut of Contract:\\r\\n// SPDX-Lic...\n      PUSH 0\t\t\tIdenti\n      PUSH 40\t\t\tag\n      MLOAD \t\t\ton\\r\\npragm\n      SWAP1 \t\t\t\\r\\n// version\\r\\npragm\n      POP \t\t\t\\r\\n// version\\r\\npragm\n      SWAP1 \t\t\tut of Contract:\\r\\n// SPDX-Lic...\n      JUMP [out]\t\t\tut of Contract:\\r\\n// SPDX-Lic...\n    tag 111\t\t\t=0.7.0 <0.8.9;\\r\\n\\r\\n// impor...\n      JUMPDEST \t\t\t=0.7.0 <0.8.9;\\r\\n\\r\\n// impor...\n      PUSH 0\t\t\t;\n      DUP1 \t\t\tr\n      REVERT \t\t\tNotOwner();\\r\n    tag 112\t\t\ttitle OpinioNect Smart Contrac...\n      JUMPDEST \t\t\ttitle OpinioNect Smart Contrac...\n      PUSH 0\t\t\tn\n      DUP1 \t\t\tm\n      REVERT \t\t\tyour comment\n    tag 113\t\t\tn an article\\r\\n * @dev Does n...\n      JUMPDEST \t\t\tn an article\\r\\n * @dev Does n...\n      PUSH 0\t\t\t/\n      DUP1 \t\t\t \n      REVERT \t\t\tons\\r\\n    // \n    tag 114\t\t\tess => mapping(uint256 => uint...\n      JUMPDEST \t\t\tess => mapping(uint256 => uint...\n      PUSH 0\t\t\tb\n      DUP1 \t\t\tu\n      REVERT \t\t\tate immutabl\n    tag 115\t\t\t    string[] public articleHas...\n      JUMPDEST \t\t\t    string[] public articleHas...\n      PUSH 0\t\t\te\n      DUP1 \t\t\ti\n      REVERT \t\t\terToarticleH\n    tag 116\t\t\tAddress;\\r\\n        string com...\n      JUMPDEST \t\t\tAddress;\\r\\n        string com...\n      PUSH 0\t\t\tg(string\n      DUP1 \t\t\t> User\n      DUP4 \t\t\t   \n      PUSH 1F\t\t\tts;\\r\n      DUP5 \t\t\terComm\n      ADD \t\t\tToUserComments;\\r\\n\n      SLT \t\t\ticleToUserComments;\\r\\n\\r\\n   ...\n      PUSH [tag] 158\t\t\tpublic articleToUserComments;\\...\n      JUMPI \t\t\tpublic articleToUserComments;\\...\n      PUSH [tag] 159\t\t\tvents\\r\\n    // Modifiers\\r\\n ...\n      PUSH [tag] 113\t\t\tvents\\r\\n    // Modifiers\\r\\n ...\n      JUMP [in]\t\t\tvents\\r\\n    // Modifiers\\r\\n ...\n    tag 159\t\t\tvents\\r\\n    // Modifiers\\r\\n ...\n      JUMPDEST \t\t\tvents\\r\\n    // Modifiers\\r\\n ...\n    tag 158\t\t\tpublic articleToUserComments;\\...\n      JUMPDEST \t\t\tpublic articleToUserComments;\\...\n      DUP3 \t\t\t;\\r\\n   \n      CALLDATALOAD \t\t\tner Action!\");\\r\\n    \n      SWAP1 \t\t\t, \"Only Owner Action!\");\\r\\n  ...\n      POP \t\t\t, \"Only Owner Action!\");\\r\\n  ...\n      PUSH FFFFFFFFFFFFFFFF\t\t\t= i_owner) revert \n      DUP2 \t\t\tsender\n      GT \t\t\tsg.sender != i_owner) revert F\n      ISZERO \t\t\t (msg.sender != i_owner) rever...\n      PUSH [tag] 160\t\t\t (msg.sender != i_owner) rever...\n      JUMPI \t\t\t (msg.sender != i_owner) rever...\n      PUSH [tag] 161\t\t\tMe__NotOwner();\\r\\n        _;\\...\n      PUSH [tag] 114\t\t\tMe__NotOwner();\\r\\n        _;\\...\n      JUMP [in]\t\t\tMe__NotOwner();\\r\\n        _;\\...\n    tag 161\t\t\tMe__NotOwner();\\r\\n        _;\\...\n      JUMPDEST \t\t\tMe__NotOwner();\\r\\n        _;\\...\n    tag 160\t\t\t (msg.sender != i_owner) rever...\n      JUMPDEST \t\t\t (msg.sender != i_owner) rever...\n      PUSH 20\t\t\t(art\n      DUP4 \t\t\t/     \n      ADD \t\t\t   //     if(arti\n      SWAP2 \t\t\tleHash) {\\r\\n    //     if(art...\n      POP \t\t\tleHash) {\\r\\n    //     if(art...\n      DUP4 \t\t\t  /\n      PUSH 1\t\t\tss){\n      DUP3 \t\t\tserAdd\n      MUL \t\t\th].userAddress){\\r\n      DUP4 \t\t\tarticleH\n      ADD \t\t\tts[_articleHash].userAddress){...\n      GT \t\t\tments[_articleHash].userAddres...\n      ISZERO \t\t\tComments[_articleHash].userAdd...\n      PUSH [tag] 162\t\t\tComments[_articleHash].userAdd...\n      JUMPI \t\t\tComments[_articleHash].userAdd...\n      PUSH [tag] 163\t\t\t      _;\\r\\n    //     }\\r\\n  ...\n      PUSH [tag] 115\t\t\t      _;\\r\\n    //     }\\r\\n  ...\n      JUMP [in]\t\t\t      _;\\r\\n    //     }\\r\\n  ...\n    tag 163\t\t\t      _;\\r\\n    //     }\\r\\n  ...\n      JUMPDEST \t\t\t      _;\\r\\n    //     }\\r\\n  ...\n    tag 162\t\t\tComments[_articleHash].userAdd...\n      JUMPDEST \t\t\tComments[_articleHash].userAdd...\n      SWAP3 \t\t\tAddress;\\r\\n        string com...\n      POP \t\t\tAddress;\\r\\n        string com...\n      SWAP3 \t\t\tAddress;\\r\\n        string com...\n      SWAP1 \t\t\tAddress;\\r\\n        string com...\n      POP \t\t\tAddress;\\r\\n        string com...\n      JUMP [out]\t\t\tAddress;\\r\\n        string com...\n    tag 11\t\t\t{\\r\\n    bool hasCommented = f...\n      JUMPDEST \t\t\t{\\r\\n    bool hasCommented = f...\n      PUSH 0\t\t\tg comm\n      DUP1 \t\t\tts for\n      PUSH 20\t\t\ten\n      DUP4 \t\t\t memory c\n      DUP6 \t\t\tComment\n      SUB \t\t\tUserComment[] memory co\n      SLT \t\t\t    UserComment[] memory comme...\n      ISZERO \t\t\te\\r\\n    UserComment[] memory ...\n      PUSH [tag] 165\t\t\te\\r\\n    UserComment[] memory ...\n      JUMPI \t\t\te\\r\\n    UserComment[] memory ...\n      PUSH [tag] 166\t\t\t articleToUserComments[_articl...\n      PUSH [tag] 111\t\t\t articleToUserComments[_articl...\n      JUMP [in]\t\t\t articleToUserComments[_articl...\n    tag 166\t\t\t articleToUserComments[_articl...\n      JUMPDEST \t\t\t articleToUserComments[_articl...\n    tag 165\t\t\te\\r\\n    UserComment[] memory ...\n      JUMPDEST \t\t\te\\r\\n    UserComment[] memory ...\n      PUSH 0\t\t\t \n      DUP4 \t\t\tnder) {\\r\\n\n      ADD \t\t\tg.sender) {\\r\\n    \n      CALLDATALOAD \t\t\tAddress == msg.sender) {\\r\\n  ...\n      PUSH FFFFFFFFFFFFFFFF\t\t\t\\r\\n            brea\n      DUP2 \t\t\t = tru\n      GT \t\t\tted = true;\\r\\n            bre...\n      ISZERO \t\t\tmented = true;\\r\\n            ...\n      PUSH [tag] 167\t\t\tmented = true;\\r\\n            ...\n      JUMPI \t\t\tmented = true;\\r\\n            ...\n      PUSH [tag] 168\t\t\t        }\\r\\n    }\\r\\n\\r\\n    ...\n      PUSH [tag] 112\t\t\t        }\\r\\n    }\\r\\n\\r\\n    ...\n      JUMP [in]\t\t\t        }\\r\\n    }\\r\\n\\r\\n    ...\n    tag 168\t\t\t        }\\r\\n    }\\r\\n\\r\\n    ...\n      JUMPDEST \t\t\t        }\\r\\n    }\\r\\n\\r\\n    ...\n    tag 167\t\t\tmented = true;\\r\\n            ...\n      JUMPDEST \t\t\tmented = true;\\r\\n            ...\n      PUSH [tag] 169\t\t\t\\r\\n    // Functions\\r\\n    //...\n      DUP6 \t\t\tonstruc\n      DUP3 \t\t\t\\n    /\n      DUP7 \t\t\tFunctions\n      ADD \t\t\t of Functions:\\r\\n    //\n      PUSH [tag] 116\t\t\t\\r\\n    // Functions\\r\\n    //...\n      JUMP [in]\t\t\t\\r\\n    // Functions\\r\\n    //...\n    tag 169\t\t\t\\r\\n    // Functions\\r\\n    //...\n      JUMPDEST \t\t\t\\r\\n    // Functions\\r\\n    //...\n      SWAP3 \t\t\t\\n    _;\\r\\n    }\\r\\n\\r\\n\\r\\n ...\n      POP \t\t\t\\n    _;\\r\\n    }\\r\\n\\r\\n\\r\\n ...\n      SWAP3 \t\t\t\\n    _;\\r\\n    }\\r\\n\\r\\n\\r\\n ...\n      POP \t\t\t\\n    _;\\r\\n    }\\r\\n\\r\\n\\r\\n ...\n      POP \t\t\t\\n        if (comments[i].user...\n      SWAP3 \t\t\t{\\r\\n    bool hasCommented = f...\n      POP \t\t\t{\\r\\n    bool hasCommented = f...\n      SWAP3 \t\t\t{\\r\\n    bool hasCommented = f...\n      SWAP1 \t\t\t{\\r\\n    bool hasCommented = f...\n      POP \t\t\t{\\r\\n    bool hasCommented = f...\n      JUMP [out]\t\t\t{\\r\\n    bool hasCommented = f...\n    tag 117\t\t\t\\r\\n        i_owner = msg.send...\n      JUMPDEST \t\t\t\\r\\n        i_owner = msg.send...\n      PUSH 0\t\t\t}\\r\\n\\r\\n  \n      DUP2 \t\t\t(if e\n      SWAP1 \t\t\te function (if e\n      POP \t\t\te function (if e\n      SWAP2 \t\t\t\\r\\n        i_owner = msg.send...\n      SWAP1 \t\t\t\\r\\n        i_owner = msg.send...\n      POP \t\t\t\\r\\n        i_owner = msg.send...\n      JUMP [out]\t\t\t\\r\\n        i_owner = msg.send...\n    tag 118\t\t\t// fallback function (if exist...\n      JUMPDEST \t\t\t// fallback function (if exist...\n      PUSH [tag] 172\t\t\tction addArticle(string \n      DUP2 \t\t\ttring\n      PUSH [tag] 117\t\t\tction addArticle(string \n      JUMP [in]\t\t\tction addArticle(string \n    tag 172\t\t\tction addArticle(string \n      JUMPDEST \t\t\tction addArticle(string \n      DUP2 \t\t\t    f\n      EQ \t\t\tc\\r\\n    function addArticle(s...\n      PUSH [tag] 173\t\t\t  // public\\r\\n    function ad...\n      JUMPI \t\t\t  // public\\r\\n    function ad...\n      PUSH 0\t\t\tl\n      DUP1 \t\t\tt\n      REVERT \t\t\tata _article\n    tag 173\t\t\t  // public\\r\\n    function ad...\n      JUMPDEST \t\t\t  // public\\r\\n    function ad...\n      POP \t\t\t// fallback function (if exist...\n      JUMP [out]\t\t\t// fallback function (if exist...\n    tag 119\t\t\tnlyOwner {\\r\\n        articleH...\n      JUMPDEST \t\t\tnlyOwner {\\r\\n        articleH...\n      PUSH 0\t\t\tash);\n      DUP2 \t\t\tt(stri\n      CALLDATALOAD \t\t\tion addComment(strin\n      SWAP1 \t\t\t    function addComment(strin\n      POP \t\t\t    function addComment(strin\n      PUSH [tag] 175\t\t\ta _articleHash, string calldat...\n      DUP2 \t\t\tdata \n      PUSH [tag] 118\t\t\ta _articleHash, string calldat...\n      JUMP [in]\t\t\ta _articleHash, string calldat...\n    tag 175\t\t\ta _articleHash, string calldat...\n      JUMPDEST \t\t\ta _articleHash, string calldat...\n      SWAP3 \t\t\tnlyOwner {\\r\\n        articleH...\n      SWAP2 \t\t\tnlyOwner {\\r\\n        articleH...\n      POP \t\t\tnlyOwner {\\r\\n        articleH...\n      POP \t\t\tnlyOwner {\\r\\n        articleH...\n      JUMP [out]\t\t\tnlyOwner {\\r\\n        articleH...\n    tag 15\t\t\t public {\\r\\n        UserComme...\n      JUMPDEST \t\t\t public {\\r\\n        UserComme...\n      PUSH 0\t\t\tment(m\n      PUSH 20\t\t\toU\n      DUP3 \t\t\t    artic\n      DUP5 \t\t\tt);\\r\\n  \n      SUB \t\t\tmment);\\r\\n        articl\n      SLT \t\t\terComment);\\r\\n        article...\n      ISZERO \t\t\t_userComment);\\r\\n        arti...\n      PUSH [tag] 177\t\t\t_userComment);\\r\\n        arti...\n      JUMPI \t\t\t_userComment);\\r\\n        arti...\n      PUSH [tag] 178\t\t\tomments[_articleHash].push(use...\n      PUSH [tag] 111\t\t\tomments[_articleHash].push(use...\n      JUMP [in]\t\t\tomments[_articleHash].push(use...\n    tag 178\t\t\tomments[_articleHash].push(use...\n      JUMPDEST \t\t\tomments[_articleHash].push(use...\n    tag 177\t\t\t_userComment);\\r\\n        arti...\n      JUMPDEST \t\t\t_userComment);\\r\\n        arti...\n      PUSH 0\t\t\tp\n      PUSH [tag] 179\t\t\tmemory) {\\r\\n    UserComment[]...\n      DUP5 \t\t\t= artic\n      DUP3 \t\t\tcommen\n      DUP6 \t\t\tt[] memor\n      ADD \t\t\tmment[] memory comment\n      PUSH [tag] 119\t\t\tmemory) {\\r\\n    UserComment[]...\n      JUMP [in]\t\t\tmemory) {\\r\\n    UserComment[]...\n    tag 179\t\t\tmemory) {\\r\\n    UserComment[]...\n      JUMPDEST \t\t\tmemory) {\\r\\n    UserComment[]...\n      SWAP2 \t\t\t(string[] memory) {\\r\\n    Use...\n      POP \t\t\t(string[] memory) {\\r\\n    Use...\n      POP \t\t\t calldata _articleHash) view p...\n      SWAP3 \t\t\t public {\\r\\n        UserComme...\n      SWAP2 \t\t\t public {\\r\\n        UserComme...\n      POP \t\t\t public {\\r\\n        UserComme...\n      POP \t\t\t public {\\r\\n        UserComme...\n      JUMP [out]\t\t\t public {\\r\\n        UserComme...\n    tag 120\t\t\teHash];\\r\\n    string[] memory...\n      JUMPDEST \t\t\teHash];\\r\\n    string[] memory...\n      PUSH 0\t\t\ting[](\n      DUP2 \t\t\t (uin\n      MLOAD \t\t\t   for (uint\n      SWAP1 \t\t\tgth);\\r\\n\\r\\n    for (uint\n      POP \t\t\tgth);\\r\\n\\r\\n    for (uint\n      SWAP2 \t\t\teHash];\\r\\n    string[] memory...\n      SWAP1 \t\t\teHash];\\r\\n    string[] memory...\n      POP \t\t\teHash];\\r\\n    string[] memory...\n      JUMP [out]\t\t\teHash];\\r\\n    string[] memory...\n    tag 121\t\t\t< comments.length; i++) {\\r\\n ...\n      JUMPDEST \t\t\t< comments.length; i++) {\\r\\n ...\n      PUSH 0\t\t\t\\n    return\n      DUP3 \t\t\t\\n\\r\\n   \n      DUP3 \t\t\t   \n      MSTORE \t\t\tray;\\r\\n    }\\r\\n\\r\\n    \n      PUSH 20\t\t\t pub\n      DUP3 \t\t\t vi\n      ADD \t\t\tth() view publ\n      SWAP1 \t\t\tarticleHashLength() view publ\n      POP \t\t\tarticleHashLength() view publ\n      SWAP3 \t\t\t< comments.length; i++) {\\r\\n ...\n      SWAP2 \t\t\t< comments.length; i++) {\\r\\n ...\n      POP \t\t\t< comments.length; i++) {\\r\\n ...\n      POP \t\t\t< comments.length; i++) {\\r\\n ...\n      JUMP [out]\t\t\t< comments.length; i++) {\\r\\n ...\n    tag 122\t\t\tuint256) {\\r\\n        uint256 ...\n      JUMPDEST \t\t\tuint256) {\\r\\n        uint256 ...\n      PUSH 0\t\t\tt\n    tag 183\t\t\th;\\r\\n    }\\r\\n\\r\\n    // inte...\n      JUMPDEST \t\t\th;\\r\\n    }\\r\\n\\r\\n    // inte...\n      DUP4 \t\t\t   // \n      DUP2 \t\t\t\\r\n      LT \t\t\t}\\r\\n\\r\\n    // i\n      ISZERO \t\t\th;\\r\\n    }\\r\\n\\r\\n    // inte...\n      PUSH [tag] 185\t\t\th;\\r\\n    }\\r\\n\\r\\n    // inte...\n      JUMPI \t\t\th;\\r\\n    }\\r\\n\\r\\n    // inte...\n      DUP1 \t\t\t\n      DUP3 \t\t\t\n      ADD \t\t\t\n      MLOAD \t\t\t\n      DUP2 \t\t\t\\n\n      DUP5 \t\t\t\\n\\r\\n\n      ADD \t\t\tons\\r\\n\\r\\n}\\r\\n\n      MSTORE \t\t\t functions\\r\\n\\r\\n}\\r\\n\n      PUSH 20\t\t\t p\n      DUP2 \t\t\t \n      ADD \t\t\t\\n    // pr\n      SWAP1 \t\t\trnal\\r\\n    // pr\n      POP \t\t\trnal\\r\\n    // pr\n      PUSH [tag] 183\t\t\th;\\r\\n    }\\r\\n\\r\\n    // inte...\n      JUMP \t\t\th;\\r\\n    }\\r\\n\\r\\n    // inte...\n    tag 185\t\t\th;\\r\\n    }\\r\\n\\r\\n    // inte...\n      JUMPDEST \t\t\th;\\r\\n    }\\r\\n\\r\\n    // inte...\n      DUP4 \t\t\t\n      DUP2 \t\t\t\n      GT \t\t\t\n      ISZERO \t\t\t\n      PUSH [tag] 186\t\t\t\n      JUMPI \t\t\t\n      PUSH 0\t\t\t\n      DUP5 \t\t\t\n      DUP5 \t\t\t\n      ADD \t\t\t\n      MSTORE \t\t\t\n    tag 186\t\t\t\n      JUMPDEST \t\t\t\n      POP \t\t\tlength;\\r\\n        return leng...\n      POP \t\t\tuint256) {\\r\\n        uint256 ...\n      POP \t\t\tuint256) {\\r\\n        uint256 ...\n      POP \t\t\tuint256) {\\r\\n        uint256 ...\n      JUMP [out]\t\t\tuint256) {\\r\\n        uint256 ...\n    tag 123\t\t\t\n      JUMPDEST \t\t\t\n      PUSH 0\t\t\t\n      PUSH 1F\t\t\t\n      NOT \t\t\t\n      PUSH 1F\t\t\t\n      DUP4 \t\t\t\n      ADD \t\t\t\n      AND \t\t\t\n      SWAP1 \t\t\t\n      POP \t\t\t\n      SWAP2 \t\t\t\n      SWAP1 \t\t\t\n      POP \t\t\t\n      JUMP [out]\t\t\t\n    tag 124\t\t\t\n      JUMPDEST \t\t\t\n      PUSH 0\t\t\t\n      PUSH [tag] 189\t\t\t\n      DUP3 \t\t\t\n      PUSH [tag] 120\t\t\t\n      JUMP [in]\t\t\t\n    tag 189\t\t\t\n      JUMPDEST \t\t\t\n      PUSH [tag] 190\t\t\t\n      DUP2 \t\t\t\n      DUP6 \t\t\t\n      PUSH [tag] 121\t\t\t\n      JUMP [in]\t\t\t\n    tag 190\t\t\t\n      JUMPDEST \t\t\t\n      SWAP4 \t\t\t\n      POP \t\t\t\n      PUSH [tag] 191\t\t\t\n      DUP2 \t\t\t\n      DUP6 \t\t\t\n      PUSH 20\t\t\t\n      DUP7 \t\t\t\n      ADD \t\t\t\n      PUSH [tag] 122\t\t\t\n      JUMP [in]\t\t\t\n    tag 191\t\t\t\n      JUMPDEST \t\t\t\n      PUSH [tag] 192\t\t\t\n      DUP2 \t\t\t\n      PUSH [tag] 123\t\t\t\n      JUMP [in]\t\t\t\n    tag 192\t\t\t\n      JUMPDEST \t\t\t\n      DUP5 \t\t\t\n      ADD \t\t\t\n      SWAP2 \t\t\t\n      POP \t\t\t\n      POP \t\t\t\n      SWAP3 \t\t\t\n      SWAP2 \t\t\t\n      POP \t\t\t\n      POP \t\t\t\n      JUMP [out]\t\t\t\n    tag 18\t\t\t\n      JUMPDEST \t\t\t\n      PUSH 0\t\t\t\n      PUSH 20\t\t\t\n      DUP3 \t\t\t\n      ADD \t\t\t\n      SWAP1 \t\t\t\n      POP \t\t\t\n      DUP2 \t\t\t\n      DUP2 \t\t\t\n      SUB \t\t\t\n      PUSH 0\t\t\t\n      DUP4 \t\t\t\n      ADD \t\t\t\n      MSTORE \t\t\t\n      PUSH [tag] 194\t\t\t\n      DUP2 \t\t\t\n      DUP5 \t\t\t\n      PUSH [tag] 124\t\t\t\n      JUMP [in]\t\t\t\n    tag 194\t\t\t\n      JUMPDEST \t\t\t\n      SWAP1 \t\t\t\n      POP \t\t\t\n      SWAP3 \t\t\t\n      SWAP2 \t\t\t\n      POP \t\t\t\n      POP \t\t\t\n      JUMP [out]\t\t\t\n    tag 125\t\t\t\n      JUMPDEST \t\t\t\n      PUSH 0\t\t\t\n      DUP1 \t\t\t\n      REVERT \t\t\t\n    tag 75\t\t\t\n      JUMPDEST \t\t\t\n      PUSH 4E487B7100000000000000000000000000000000000000000000000000000000\t\t\t\n      PUSH 0\t\t\t\n      MSTORE \t\t\t\n      PUSH 41\t\t\t\n      PUSH 4\t\t\t\n      MSTORE \t\t\t\n      PUSH 24\t\t\t\n      PUSH 0\t\t\t\n      REVERT \t\t\t\n    tag 126\t\t\t\n      JUMPDEST \t\t\t\n      PUSH [tag] 198\t\t\t\n      DUP3 \t\t\t\n      PUSH [tag] 123\t\t\t\n      JUMP [in]\t\t\t\n    tag 198\t\t\t\n      JUMPDEST \t\t\t\n      DUP2 \t\t\t\n      ADD \t\t\t\n      DUP2 \t\t\t\n      DUP2 \t\t\t\n      LT \t\t\t\n      PUSH FFFFFFFFFFFFFFFF\t\t\t\n      DUP3 \t\t\t\n      GT \t\t\t\n      OR \t\t\t\n      ISZERO \t\t\t\n      PUSH [tag] 199\t\t\t\n      JUMPI \t\t\t\n      PUSH [tag] 200\t\t\t\n      PUSH [tag] 75\t\t\t\n      JUMP [in]\t\t\t\n    tag 200\t\t\t\n      JUMPDEST \t\t\t\n    tag 199\t\t\t\n      JUMPDEST \t\t\t\n      DUP1 \t\t\t\n      PUSH 40\t\t\t\n      MSTORE \t\t\t\n      POP \t\t\t\n      POP \t\t\t\n      POP \t\t\t\n      JUMP [out]\t\t\t\n    tag 127\t\t\t\n      JUMPDEST \t\t\t\n      PUSH 0\t\t\t\n      PUSH [tag] 202\t\t\t\n      PUSH [tag] 110\t\t\t\n      JUMP [in]\t\t\t\n    tag 202\t\t\t\n      JUMPDEST \t\t\t\n      SWAP1 \t\t\t\n      POP \t\t\t\n      PUSH [tag] 203\t\t\t\n      DUP3 \t\t\t\n      DUP3 \t\t\t\n      PUSH [tag] 126\t\t\t\n      JUMP [in]\t\t\t\n    tag 203\t\t\t\n      JUMPDEST \t\t\t\n      SWAP2 \t\t\t\n      SWAP1 \t\t\t\n      POP \t\t\t\n      JUMP [out]\t\t\t\n    tag 128\t\t\t\n      JUMPDEST \t\t\t\n      PUSH 0\t\t\t\n      PUSH FFFFFFFFFFFFFFFF\t\t\t\n      DUP3 \t\t\t\n      GT \t\t\t\n      ISZERO \t\t\t\n      PUSH [tag] 205\t\t\t\n      JUMPI \t\t\t\n      PUSH [tag] 206\t\t\t\n      PUSH [tag] 75\t\t\t\n      JUMP [in]\t\t\t\n    tag 206\t\t\t\n      JUMPDEST \t\t\t\n    tag 205\t\t\t\n      JUMPDEST \t\t\t\n      PUSH [tag] 207\t\t\t\n      DUP3 \t\t\t\n      PUSH [tag] 123\t\t\t\n      JUMP [in]\t\t\t\n    tag 207\t\t\t\n      JUMPDEST \t\t\t\n      SWAP1 \t\t\t\n      POP \t\t\t\n      PUSH 20\t\t\t\n      DUP2 \t\t\t\n      ADD \t\t\t\n      SWAP1 \t\t\t\n      POP \t\t\t\n      SWAP2 \t\t\t\n      SWAP1 \t\t\t\n      POP \t\t\t\n      JUMP [out]\t\t\t\n    tag 129\t\t\t\n      JUMPDEST \t\t\t\n      DUP3 \t\t\t\n      DUP2 \t\t\t\n      DUP4 \t\t\t\n      CALLDATACOPY \t\t\t\n      PUSH 0\t\t\t\n      DUP4 \t\t\t\n      DUP4 \t\t\t\n      ADD \t\t\t\n      MSTORE \t\t\t\n      POP \t\t\t\n      POP \t\t\t\n      POP \t\t\t\n      JUMP [out]\t\t\t\n    tag 130\t\t\t\n      JUMPDEST \t\t\t\n      PUSH 0\t\t\t\n      PUSH [tag] 210\t\t\t\n      PUSH [tag] 211\t\t\t\n      DUP5 \t\t\t\n      PUSH [tag] 128\t\t\t\n      JUMP [in]\t\t\t\n    tag 211\t\t\t\n      JUMPDEST \t\t\t\n      PUSH [tag] 127\t\t\t\n      JUMP [in]\t\t\t\n    tag 210\t\t\t\n      JUMPDEST \t\t\t\n      SWAP1 \t\t\t\n      POP \t\t\t\n      DUP3 \t\t\t\n      DUP2 \t\t\t\n      MSTORE \t\t\t\n      PUSH 20\t\t\t\n      DUP2 \t\t\t\n      ADD \t\t\t\n      DUP5 \t\t\t\n      DUP5 \t\t\t\n      DUP5 \t\t\t\n      ADD \t\t\t\n      GT \t\t\t\n      ISZERO \t\t\t\n      PUSH [tag] 212\t\t\t\n      JUMPI \t\t\t\n      PUSH [tag] 213\t\t\t\n      PUSH [tag] 125\t\t\t\n      JUMP [in]\t\t\t\n    tag 213\t\t\t\n      JUMPDEST \t\t\t\n    tag 212\t\t\t\n      JUMPDEST \t\t\t\n      PUSH [tag] 214\t\t\t\n      DUP5 \t\t\t\n      DUP3 \t\t\t\n      DUP6 \t\t\t\n      PUSH [tag] 129\t\t\t\n      JUMP [in]\t\t\t\n    tag 214\t\t\t\n      JUMPDEST \t\t\t\n      POP \t\t\t\n      SWAP4 \t\t\t\n      SWAP3 \t\t\t\n      POP \t\t\t\n      POP \t\t\t\n      POP \t\t\t\n      JUMP [out]\t\t\t\n    tag 131\t\t\t\n      JUMPDEST \t\t\t\n      PUSH 0\t\t\t\n      DUP3 \t\t\t\n      PUSH 1F\t\t\t\n      DUP4 \t\t\t\n      ADD \t\t\t\n      SLT \t\t\t\n      PUSH [tag] 216\t\t\t\n      JUMPI \t\t\t\n      PUSH [tag] 217\t\t\t\n      PUSH [tag] 113\t\t\t\n      JUMP [in]\t\t\t\n    tag 217\t\t\t\n      JUMPDEST \t\t\t\n    tag 216\t\t\t\n      JUMPDEST \t\t\t\n      DUP2 \t\t\t\n      CALLDATALOAD \t\t\t\n      PUSH [tag] 218\t\t\t\n      DUP5 \t\t\t\n      DUP3 \t\t\t\n      PUSH 20\t\t\t\n      DUP7 \t\t\t\n      ADD \t\t\t\n      PUSH [tag] 130\t\t\t\n      JUMP [in]\t\t\t\n    tag 218\t\t\t\n      JUMPDEST \t\t\t\n      SWAP2 \t\t\t\n      POP \t\t\t\n      POP \t\t\t\n      SWAP3 \t\t\t\n      SWAP2 \t\t\t\n      POP \t\t\t\n      POP \t\t\t\n      JUMP [out]\t\t\t\n    tag 21\t\t\t\n      JUMPDEST \t\t\t\n      PUSH 0\t\t\t\n      DUP1 \t\t\t\n      PUSH 40\t\t\t\n      DUP4 \t\t\t\n      DUP6 \t\t\t\n      SUB \t\t\t\n      SLT \t\t\t\n      ISZERO \t\t\t\n      PUSH [tag] 220\t\t\t\n      JUMPI \t\t\t\n      PUSH [tag] 221\t\t\t\n      PUSH [tag] 111\t\t\t\n      JUMP [in]\t\t\t\n    tag 221\t\t\t\n      JUMPDEST \t\t\t\n    tag 220\t\t\t\n      JUMPDEST \t\t\t\n      PUSH 0\t\t\t\n      DUP4 \t\t\t\n      ADD \t\t\t\n      CALLDATALOAD \t\t\t\n      PUSH FFFFFFFFFFFFFFFF\t\t\t\n      DUP2 \t\t\t\n      GT \t\t\t\n      ISZERO \t\t\t\n      PUSH [tag] 222\t\t\t\n      JUMPI \t\t\t\n      PUSH [tag] 223\t\t\t\n      PUSH [tag] 112\t\t\t\n      JUMP [in]\t\t\t\n    tag 223\t\t\t\n      JUMPDEST \t\t\t\n    tag 222\t\t\t\n      JUMPDEST \t\t\t\n      PUSH [tag] 224\t\t\t\n      DUP6 \t\t\t\n      DUP3 \t\t\t\n      DUP7 \t\t\t\n      ADD \t\t\t\n      PUSH [tag] 131\t\t\t\n      JUMP [in]\t\t\t\n    tag 224\t\t\t\n      JUMPDEST \t\t\t\n      SWAP3 \t\t\t\n      POP \t\t\t\n      POP \t\t\t\n      PUSH 20\t\t\t\n      PUSH [tag] 225\t\t\t\n      DUP6 \t\t\t\n      DUP3 \t\t\t\n      DUP7 \t\t\t\n      ADD \t\t\t\n      PUSH [tag] 119\t\t\t\n      JUMP [in]\t\t\t\n    tag 225\t\t\t\n      JUMPDEST \t\t\t\n      SWAP2 \t\t\t\n      POP \t\t\t\n      POP \t\t\t\n      SWAP3 \t\t\t\n      POP \t\t\t\n      SWAP3 \t\t\t\n      SWAP1 \t\t\t\n      POP \t\t\t\n      JUMP [out]\t\t\t\n    tag 132\t\t\t\n      JUMPDEST \t\t\t\n      PUSH 0\t\t\t\n      PUSH FFFFFFFFFFFFFFFFFFFFFFFFFFFFFFFFFFFFFFFF\t\t\t\n      DUP3 \t\t\t\n      AND \t\t\t\n      SWAP1 \t\t\t\n      POP \t\t\t\n      SWAP2 \t\t\t\n      SWAP1 \t\t\t\n      POP \t\t\t\n      JUMP [out]\t\t\t\n    tag 133\t\t\t\n      JUMPDEST \t\t\t\n      PUSH 0\t\t\t\n      PUSH [tag] 228\t\t\t\n      DUP3 \t\t\t\n      PUSH [tag] 132\t\t\t\n      JUMP [in]\t\t\t\n    tag 228\t\t\t\n      JUMPDEST \t\t\t\n      SWAP1 \t\t\t\n      POP \t\t\t\n      SWAP2 \t\t\t\n      SWAP1 \t\t\t\n      POP \t\t\t\n      JUMP [out]\t\t\t\n    tag 134\t\t\t\n      JUMPDEST \t\t\t\n      PUSH [tag] 230\t\t\t\n      DUP2 \t\t\t\n      PUSH [tag] 133\t\t\t\n      JUMP [in]\t\t\t\n    tag 230\t\t\t\n      JUMPDEST \t\t\t\n      DUP3 \t\t\t\n      MSTORE \t\t\t\n      POP \t\t\t\n      POP \t\t\t\n      JUMP [out]\t\t\t\n    tag 24\t\t\t\n      JUMPDEST \t\t\t\n      PUSH 0\t\t\t\n      PUSH 40\t\t\t\n      DUP3 \t\t\t\n      ADD \t\t\t\n      SWAP1 \t\t\t\n      POP \t\t\t\n      PUSH [tag] 232\t\t\t\n      PUSH 0\t\t\t\n      DUP4 \t\t\t\n      ADD \t\t\t\n      DUP6 \t\t\t\n      PUSH [tag] 134\t\t\t\n      JUMP [in]\t\t\t\n    tag 232\t\t\t\n      JUMPDEST \t\t\t\n      DUP2 \t\t\t\n      DUP2 \t\t\t\n      SUB \t\t\t\n      PUSH 20\t\t\t\n      DUP4 \t\t\t\n      ADD \t\t\t\n      MSTORE \t\t\t\n      PUSH [tag] 233\t\t\t\n      DUP2 \t\t\t\n      DUP5 \t\t\t\n      PUSH [tag] 124\t\t\t\n      JUMP [in]\t\t\t\n    tag 233\t\t\t\n      JUMPDEST \t\t\t\n      SWAP1 \t\t\t\n      POP \t\t\t\n      SWAP4 \t\t\t\n      SWAP3 \t\t\t\n      POP \t\t\t\n      POP \t\t\t\n      POP \t\t\t\n      JUMP [out]\t\t\t\n    tag 135\t\t\t\n      JUMPDEST \t\t\t\n      PUSH [tag] 235\t\t\t\n      DUP2 \t\t\t\n      PUSH [tag] 117\t\t\t\n      JUMP [in]\t\t\t\n    tag 235\t\t\t\n      JUMPDEST \t\t\t\n      DUP3 \t\t\t\n      MSTORE \t\t\t\n      POP \t\t\t\n      POP \t\t\t\n      JUMP [out]\t\t\t\n    tag 28\t\t\t\n      JUMPDEST \t\t\t\n      PUSH 0\t\t\t\n      PUSH 20\t\t\t\n      DUP3 \t\t\t\n      ADD \t\t\t\n      SWAP1 \t\t\t\n      POP \t\t\t\n      PUSH [tag] 237\t\t\t\n      PUSH 0\t\t\t\n      DUP4 \t\t\t\n      ADD \t\t\t\n      DUP5 \t\t\t\n      PUSH [tag] 135\t\t\t\n      JUMP [in]\t\t\t\n    tag 237\t\t\t\n      JUMPDEST \t\t\t\n      SWAP3 \t\t\t\n      SWAP2 \t\t\t\n      POP \t\t\t\n      POP \t\t\t\n      JUMP [out]\t\t\t\n    tag 136\t\t\t\n      JUMPDEST \t\t\t\n      PUSH 0\t\t\t\n      DUP2 \t\t\t\n      MLOAD \t\t\t\n      SWAP1 \t\t\t\n      POP \t\t\t\n      SWAP2 \t\t\t\n      SWAP1 \t\t\t\n      POP \t\t\t\n      JUMP [out]\t\t\t\n    tag 137\t\t\t\n      JUMPDEST \t\t\t\n      PUSH 0\t\t\t\n      DUP3 \t\t\t\n      DUP3 \t\t\t\n      MSTORE \t\t\t\n      PUSH 20\t\t\t\n      DUP3 \t\t\t\n      ADD \t\t\t\n      SWAP1 \t\t\t\n      POP \t\t\t\n      SWAP3 \t\t\t\n      SWAP2 \t\t\t\n      POP \t\t\t\n      POP \t\t\t\n      JUMP [out]\t\t\t\n    tag 138\t\t\t\n      JUMPDEST \t\t\t\n      PUSH 0\t\t\t\n      DUP2 \t\t\t\n      SWAP1 \t\t\t\n      POP \t\t\t\n      PUSH 20\t\t\t\n      DUP3 \t\t\t\n      ADD \t\t\t\n      SWAP1 \t\t\t\n      POP \t\t\t\n      SWAP2 \t\t\t\n      SWAP1 \t\t\t\n      POP \t\t\t\n      JUMP [out]\t\t\t\n    tag 139\t\t\t\n      JUMPDEST \t\t\t\n      PUSH 0\t\t\t\n      DUP3 \t\t\t\n      DUP3 \t\t\t\n      MSTORE \t\t\t\n      PUSH 20\t\t\t\n      DUP3 \t\t\t\n      ADD \t\t\t\n      SWAP1 \t\t\t\n      POP \t\t\t\n      SWAP3 \t\t\t\n      SWAP2 \t\t\t\n      POP \t\t\t\n      POP \t\t\t\n      JUMP [out]\t\t\t\n    tag 140\t\t\t\n      JUMPDEST \t\t\t\n      PUSH 0\t\t\t\n      PUSH [tag] 243\t\t\t\n      DUP3 \t\t\t\n      PUSH [tag] 120\t\t\t\n      JUMP [in]\t\t\t\n    tag 243\t\t\t\n      JUMPDEST \t\t\t\n      PUSH [tag] 244\t\t\t\n      DUP2 \t\t\t\n      DUP6 \t\t\t\n      PUSH [tag] 139\t\t\t\n      JUMP [in]\t\t\t\n    tag 244\t\t\t\n      JUMPDEST \t\t\t\n      SWAP4 \t\t\t\n      POP \t\t\t\n      PUSH [tag] 245\t\t\t\n      DUP2 \t\t\t\n      DUP6 \t\t\t\n      PUSH 20\t\t\t\n      DUP7 \t\t\t\n      ADD \t\t\t\n      PUSH [tag] 122\t\t\t\n      JUMP [in]\t\t\t\n    tag 245\t\t\t\n      JUMPDEST \t\t\t\n      PUSH [tag] 246\t\t\t\n      DUP2 \t\t\t\n      PUSH [tag] 123\t\t\t\n      JUMP [in]\t\t\t\n    tag 246\t\t\t\n      JUMPDEST \t\t\t\n      DUP5 \t\t\t\n      ADD \t\t\t\n      SWAP2 \t\t\t\n      POP \t\t\t\n      POP \t\t\t\n      SWAP3 \t\t\t\n      SWAP2 \t\t\t\n      POP \t\t\t\n      POP \t\t\t\n      JUMP [out]\t\t\t\n    tag 141\t\t\t\n      JUMPDEST \t\t\t\n      PUSH 0\t\t\t\n      PUSH [tag] 248\t\t\t\n      DUP4 \t\t\t\n      DUP4 \t\t\t\n      PUSH [tag] 140\t\t\t\n      JUMP [in]\t\t\t\n    tag 248\t\t\t\n      JUMPDEST \t\t\t\n      SWAP1 \t\t\t\n      POP \t\t\t\n      SWAP3 \t\t\t\n      SWAP2 \t\t\t\n      POP \t\t\t\n      POP \t\t\t\n      JUMP [out]\t\t\t\n    tag 142\t\t\t\n      JUMPDEST \t\t\t\n      PUSH 0\t\t\t\n      PUSH 20\t\t\t\n      DUP3 \t\t\t\n      ADD \t\t\t\n      SWAP1 \t\t\t\n      POP \t\t\t\n      SWAP2 \t\t\t\n      SWAP1 \t\t\t\n      POP \t\t\t\n      JUMP [out]\t\t\t\n    tag 143\t\t\t\n      JUMPDEST \t\t\t\n      PUSH 0\t\t\t\n      PUSH [tag] 251\t\t\t\n      DUP3 \t\t\t\n      PUSH [tag] 136\t\t\t\n      JUMP [in]\t\t\t\n    tag 251\t\t\t\n      JUMPDEST \t\t\t\n      PUSH [tag] 252\t\t\t\n      DUP2 \t\t\t\n      DUP6 \t\t\t\n      PUSH [tag] 137\t\t\t\n      JUMP [in]\t\t\t\n    tag 252\t\t\t\n      JUMPDEST \t\t\t\n      SWAP4 \t\t\t\n      POP \t\t\t\n      DUP4 \t\t\t\n      PUSH 20\t\t\t\n      DUP3 \t\t\t\n      MUL \t\t\t\n      DUP6 \t\t\t\n      ADD \t\t\t\n      PUSH [tag] 253\t\t\t\n      DUP6 \t\t\t\n      PUSH [tag] 138\t\t\t\n      JUMP [in]\t\t\t\n    tag 253\t\t\t\n      JUMPDEST \t\t\t\n      DUP1 \t\t\t\n      PUSH 0\t\t\t\n    tag 254\t\t\t\n      JUMPDEST \t\t\t\n      DUP6 \t\t\t\n      DUP2 \t\t\t\n      LT \t\t\t\n      ISZERO \t\t\t\n      PUSH [tag] 256\t\t\t\n      JUMPI \t\t\t\n      DUP5 \t\t\t\n      DUP5 \t\t\t\n      SUB \t\t\t\n      DUP10 \t\t\t\n      MSTORE \t\t\t\n      DUP2 \t\t\t\n      MLOAD \t\t\t\n      PUSH [tag] 257\t\t\t\n      DUP6 \t\t\t\n      DUP3 \t\t\t\n      PUSH [tag] 141\t\t\t\n      JUMP [in]\t\t\t\n    tag 257\t\t\t\n      JUMPDEST \t\t\t\n      SWAP5 \t\t\t\n      POP \t\t\t\n      PUSH [tag] 258\t\t\t\n      DUP4 \t\t\t\n      PUSH [tag] 142\t\t\t\n      JUMP [in]\t\t\t\n    tag 258\t\t\t\n      JUMPDEST \t\t\t\n      SWAP3 \t\t\t\n      POP \t\t\t\n      PUSH 20\t\t\t\n      DUP11 \t\t\t\n      ADD \t\t\t\n      SWAP10 \t\t\t\n      POP \t\t\t\n      POP \t\t\t\n      PUSH 1\t\t\t\n      DUP2 \t\t\t\n      ADD \t\t\t\n      SWAP1 \t\t\t\n      POP \t\t\t\n      PUSH [tag] 254\t\t\t\n      JUMP \t\t\t\n    tag 256\t\t\t\n      JUMPDEST \t\t\t\n      POP \t\t\t\n      DUP3 \t\t\t\n      SWAP8 \t\t\t\n      POP \t\t\t\n      DUP8 \t\t\t\n      SWAP6 \t\t\t\n      POP \t\t\t\n      POP \t\t\t\n      POP \t\t\t\n      POP \t\t\t\n      POP \t\t\t\n      POP \t\t\t\n      SWAP3 \t\t\t\n      SWAP2 \t\t\t\n      POP \t\t\t\n      POP \t\t\t\n      JUMP [out]\t\t\t\n    tag 33\t\t\t\n      JUMPDEST \t\t\t\n      PUSH 0\t\t\t\n      PUSH 20\t\t\t\n      DUP3 \t\t\t\n      ADD \t\t\t\n      SWAP1 \t\t\t\n      POP \t\t\t\n      DUP2 \t\t\t\n      DUP2 \t\t\t\n      SUB \t\t\t\n      PUSH 0\t\t\t\n      DUP4 \t\t\t\n      ADD \t\t\t\n      MSTORE \t\t\t\n      PUSH [tag] 260\t\t\t\n      DUP2 \t\t\t\n      DUP5 \t\t\t\n      PUSH [tag] 143\t\t\t\n      JUMP [in]\t\t\t\n    tag 260\t\t\t\n      JUMPDEST \t\t\t\n      SWAP1 \t\t\t\n      POP \t\t\t\n      SWAP3 \t\t\t\n      SWAP2 \t\t\t\n      POP \t\t\t\n      POP \t\t\t\n      JUMP [out]\t\t\t\n    tag 36\t\t\t\n      JUMPDEST \t\t\t\n      PUSH 0\t\t\t\n      DUP1 \t\t\t\n      PUSH 0\t\t\t\n      DUP1 \t\t\t\n      PUSH 40\t\t\t\n      DUP6 \t\t\t\n      DUP8 \t\t\t\n      SUB \t\t\t\n      SLT \t\t\t\n      ISZERO \t\t\t\n      PUSH [tag] 262\t\t\t\n      JUMPI \t\t\t\n      PUSH [tag] 263\t\t\t\n      PUSH [tag] 111\t\t\t\n      JUMP [in]\t\t\t\n    tag 263\t\t\t\n      JUMPDEST \t\t\t\n    tag 262\t\t\t\n      JUMPDEST \t\t\t\n      PUSH 0\t\t\t\n      DUP6 \t\t\t\n      ADD \t\t\t\n      CALLDATALOAD \t\t\t\n      PUSH FFFFFFFFFFFFFFFF\t\t\t\n      DUP2 \t\t\t\n      GT \t\t\t\n      ISZERO \t\t\t\n      PUSH [tag] 264\t\t\t\n      JUMPI \t\t\t\n      PUSH [tag] 265\t\t\t\n      PUSH [tag] 112\t\t\t\n      JUMP [in]\t\t\t\n    tag 265\t\t\t\n      JUMPDEST \t\t\t\n    tag 264\t\t\t\n      JUMPDEST \t\t\t\n      PUSH [tag] 266\t\t\t\n      DUP8 \t\t\t\n      DUP3 \t\t\t\n      DUP9 \t\t\t\n      ADD \t\t\t\n      PUSH [tag] 116\t\t\t\n      JUMP [in]\t\t\t\n    tag 266\t\t\t\n      JUMPDEST \t\t\t\n      SWAP5 \t\t\t\n      POP \t\t\t\n      SWAP5 \t\t\t\n      POP \t\t\t\n      POP \t\t\t\n      PUSH 20\t\t\t\n      DUP6 \t\t\t\n      ADD \t\t\t\n      CALLDATALOAD \t\t\t\n      PUSH FFFFFFFFFFFFFFFF\t\t\t\n      DUP2 \t\t\t\n      GT \t\t\t\n      ISZERO \t\t\t\n      PUSH [tag] 267\t\t\t\n      JUMPI \t\t\t\n      PUSH [tag] 268\t\t\t\n      PUSH [tag] 112\t\t\t\n      JUMP [in]\t\t\t\n    tag 268\t\t\t\n      JUMPDEST \t\t\t\n    tag 267\t\t\t\n      JUMPDEST \t\t\t\n      PUSH [tag] 269\t\t\t\n      DUP8 \t\t\t\n      DUP3 \t\t\t\n      DUP9 \t\t\t\n      ADD \t\t\t\n      PUSH [tag] 116\t\t\t\n      JUMP [in]\t\t\t\n    tag 269\t\t\t\n      JUMPDEST \t\t\t\n      SWAP3 \t\t\t\n      POP \t\t\t\n      SWAP3 \t\t\t\n      POP \t\t\t\n      POP \t\t\t\n      SWAP3 \t\t\t\n      SWAP6 \t\t\t\n      SWAP2 \t\t\t\n      SWAP5 \t\t\t\n      POP \t\t\t\n      SWAP3 \t\t\t\n      POP \t\t\t\n      JUMP [out]\t\t\t\n    tag 144\t\t\t\n      JUMPDEST \t\t\t\n      PUSH 4F6E6C79204F776E657220416374696F6E210000000000000000000000000000\t\t\t\n      PUSH 0\t\t\t\n      DUP3 \t\t\t\n      ADD \t\t\t\n      MSTORE \t\t\t\n      POP \t\t\t\n      JUMP [out]\t\t\t\n    tag 145\t\t\t\n      JUMPDEST \t\t\t\n      PUSH 0\t\t\t\n      PUSH [tag] 272\t\t\t\n      PUSH 12\t\t\t\n      DUP4 \t\t\t\n      PUSH [tag] 121\t\t\t\n      JUMP [in]\t\t\t\n    tag 272\t\t\t\n      JUMPDEST \t\t\t\n      SWAP2 \t\t\t\n      POP \t\t\t\n      PUSH [tag] 273\t\t\t\n      DUP3 \t\t\t\n      PUSH [tag] 144\t\t\t\n      JUMP [in]\t\t\t\n    tag 273\t\t\t\n      JUMPDEST \t\t\t\n      PUSH 20\t\t\t\n      DUP3 \t\t\t\n      ADD \t\t\t\n      SWAP1 \t\t\t\n      POP \t\t\t\n      SWAP2 \t\t\t\n      SWAP1 \t\t\t\n      POP \t\t\t\n      JUMP [out]\t\t\t\n    tag 41\t\t\t\n      JUMPDEST \t\t\t\n      PUSH 0\t\t\t\n      PUSH 20\t\t\t\n      DUP3 \t\t\t\n      ADD \t\t\t\n      SWAP1 \t\t\t\n      POP \t\t\t\n      DUP2 \t\t\t\n      DUP2 \t\t\t\n      SUB \t\t\t\n      PUSH 0\t\t\t\n      DUP4 \t\t\t\n      ADD \t\t\t\n      MSTORE \t\t\t\n      PUSH [tag] 275\t\t\t\n      DUP2 \t\t\t\n      PUSH [tag] 145\t\t\t\n      JUMP [in]\t\t\t\n    tag 275\t\t\t\n      JUMPDEST \t\t\t\n      SWAP1 \t\t\t\n      POP \t\t\t\n      SWAP2 \t\t\t\n      SWAP1 \t\t\t\n      POP \t\t\t\n      JUMP [out]\t\t\t\n    tag 146\t\t\t\n      JUMPDEST \t\t\t\n      PUSH 4E487B7100000000000000000000000000000000000000000000000000000000\t\t\t\n      PUSH 0\t\t\t\n      MSTORE \t\t\t\n      PUSH 22\t\t\t\n      PUSH 4\t\t\t\n      MSTORE \t\t\t\n      PUSH 24\t\t\t\n      PUSH 0\t\t\t\n      REVERT \t\t\t\n    tag 49\t\t\t\n      JUMPDEST \t\t\t\n      PUSH 0\t\t\t\n      PUSH 2\t\t\t\n      DUP3 \t\t\t\n      DIV \t\t\t\n      SWAP1 \t\t\t\n      POP \t\t\t\n      PUSH 1\t\t\t\n      DUP3 \t\t\t\n      AND \t\t\t\n      DUP1 \t\t\t\n      PUSH [tag] 278\t\t\t\n      JUMPI \t\t\t\n      PUSH 7F\t\t\t\n      DUP3 \t\t\t\n      AND \t\t\t\n      SWAP2 \t\t\t\n      POP \t\t\t\n    tag 278\t\t\t\n      JUMPDEST \t\t\t\n      PUSH 20\t\t\t\n      DUP3 \t\t\t\n      LT \t\t\t\n      DUP2 \t\t\t\n      EQ \t\t\t\n      ISZERO \t\t\t\n      PUSH [tag] 279\t\t\t\n      JUMPI \t\t\t\n      PUSH [tag] 280\t\t\t\n      PUSH [tag] 146\t\t\t\n      JUMP [in]\t\t\t\n    tag 280\t\t\t\n      JUMPDEST \t\t\t\n    tag 279\t\t\t\n      JUMPDEST \t\t\t\n      POP \t\t\t\n      SWAP2 \t\t\t\n      SWAP1 \t\t\t\n      POP \t\t\t\n      JUMP [out]\t\t\t\n    tag 147\t\t\t\n      JUMPDEST \t\t\t\n      PUSH 0\t\t\t\n      DUP2 \t\t\t\n      SWAP1 \t\t\t\n      POP \t\t\t\n      SWAP3 \t\t\t\n      SWAP2 \t\t\t\n      POP \t\t\t\n      POP \t\t\t\n      JUMP [out]\t\t\t\n    tag 148\t\t\t\n      JUMPDEST \t\t\t\n      PUSH 0\t\t\t\n      PUSH [tag] 283\t\t\t\n      DUP4 \t\t\t\n      DUP6 \t\t\t\n      PUSH [tag] 147\t\t\t\n      JUMP [in]\t\t\t\n    tag 283\t\t\t\n      JUMPDEST \t\t\t\n      SWAP4 \t\t\t\n      POP \t\t\t\n      PUSH [tag] 284\t\t\t\n      DUP4 \t\t\t\n      DUP6 \t\t\t\n      DUP5 \t\t\t\n      PUSH [tag] 129\t\t\t\n      JUMP [in]\t\t\t\n    tag 284\t\t\t\n      JUMPDEST \t\t\t\n      DUP3 \t\t\t\n      DUP5 \t\t\t\n      ADD \t\t\t\n      SWAP1 \t\t\t\n      POP \t\t\t\n      SWAP4 \t\t\t\n      SWAP3 \t\t\t\n      POP \t\t\t\n      POP \t\t\t\n      POP \t\t\t\n      JUMP [out]\t\t\t\n    tag 64\t\t\t\n      JUMPDEST \t\t\t\n      PUSH 0\t\t\t\n      PUSH [tag] 286\t\t\t\n      DUP3 \t\t\t\n      DUP5 \t\t\t\n      DUP7 \t\t\t\n      PUSH [tag] 148\t\t\t\n      JUMP [in]\t\t\t\n    tag 286\t\t\t\n      JUMPDEST \t\t\t\n      SWAP2 \t\t\t\n      POP \t\t\t\n      DUP2 \t\t\t\n      SWAP1 \t\t\t\n      POP \t\t\t\n      SWAP4 \t\t\t\n      SWAP3 \t\t\t\n      POP \t\t\t\n      POP \t\t\t\n      POP \t\t\t\n      JUMP [out]\t\t\t\n    tag 83\t\t\t\n      JUMPDEST \t\t\t\n      PUSH 4E487B7100000000000000000000000000000000000000000000000000000000\t\t\t\n      PUSH 0\t\t\t\n      MSTORE \t\t\t\n      PUSH 32\t\t\t\n      PUSH 4\t\t\t\n      MSTORE \t\t\t\n      PUSH 24\t\t\t\n      PUSH 0\t\t\t\n      REVERT \t\t\t\n    tag 149\t\t\t\n      JUMPDEST \t\t\t\n      PUSH 4E487B7100000000000000000000000000000000000000000000000000000000\t\t\t\n      PUSH 0\t\t\t\n      MSTORE \t\t\t\n      PUSH 11\t\t\t\n      PUSH 4\t\t\t\n      MSTORE \t\t\t\n      PUSH 24\t\t\t\n      PUSH 0\t\t\t\n      REVERT \t\t\t\n    tag 87\t\t\t\n      JUMPDEST \t\t\t\n      PUSH 0\t\t\t\n      PUSH [tag] 290\t\t\t\n      DUP3 \t\t\t\n      PUSH [tag] 117\t\t\t\n      JUMP [in]\t\t\t\n    tag 290\t\t\t\n      JUMPDEST \t\t\t\n      SWAP2 \t\t\t\n      POP \t\t\t\n      PUSH FFFFFFFFFFFFFFFFFFFFFFFFFFFFFFFFFFFFFFFFFFFFFFFFFFFFFFFFFFFFFFFF\t\t\t\n      DUP3 \t\t\t\n      EQ \t\t\t\n      ISZERO \t\t\t\n      PUSH [tag] 291\t\t\t\n      JUMPI \t\t\t\n      PUSH [tag] 292\t\t\t\n      PUSH [tag] 149\t\t\t\n      JUMP [in]\t\t\t\n    tag 292\t\t\t\n      JUMPDEST \t\t\t\n    tag 291\t\t\t\n      JUMPDEST \t\t\t\n      PUSH 1\t\t\t\n      DUP3 \t\t\t\n      ADD \t\t\t\n      SWAP1 \t\t\t\n      POP \t\t\t\n      SWAP2 \t\t\t\n      SWAP1 \t\t\t\n      POP \t\t\t\n      JUMP [out]\t\t\t\n    .data\n"
}