{
  "contractName": "OpinioNect",
  "abi": [
    {
      "inputs": [],
      "stateMutability": "nonpayable",
      "type": "constructor"
    },
    {
      "inputs": [
        {
          "internalType": "uint256",
          "name": "",
          "type": "uint256"
        }
      ],
      "name": "articleHash",
      "outputs": [
        {
          "internalType": "string",
          "name": "",
          "type": "string"
        }
      ],
      "stateMutability": "view",
      "type": "function",
      "constant": true
    },
    {
      "inputs": [
        {
          "internalType": "string",
          "name": "",
          "type": "string"
        },
        {
          "internalType": "uint256",
          "name": "",
          "type": "uint256"
        }
      ],
      "name": "articleToUserComments",
      "outputs": [
        {
          "internalType": "address",
          "name": "userAddress",
          "type": "address"
        },
        {
          "internalType": "string",
          "name": "comment",
          "type": "string"
        }
      ],
      "stateMutability": "view",
      "type": "function",
      "constant": true
    },
    {
      "inputs": [
        {
          "internalType": "string",
          "name": "_articleHash",
          "type": "string"
        }
      ],
      "name": "addArticle",
      "outputs": [],
      "stateMutability": "nonpayable",
      "type": "function"
    },
    {
      "inputs": [
        {
          "internalType": "string",
          "name": "_articleHash",
          "type": "string"
        },
        {
          "internalType": "string",
          "name": "_userComment",
          "type": "string"
        }
      ],
      "name": "addComment",
      "outputs": [],
      "stateMutability": "nonpayable",
      "type": "function"
    },
    {
      "inputs": [
        {
          "internalType": "string",
          "name": "_articleHash",
          "type": "string"
        }
      ],
      "name": "getCommentsOnArticle",
      "outputs": [
        {
          "internalType": "string[]",
          "name": "",
          "type": "string[]"
        }
      ],
      "stateMutability": "view",
      "type": "function",
      "constant": true
    },
    {
      "inputs": [],
      "name": "articleHashLength",
      "outputs": [
        {
          "internalType": "uint256",
          "name": "",
          "type": "uint256"
        }
      ],
      "stateMutability": "view",
      "type": "function",
      "constant": true
    }
  ],
  "bytecode": "0x60a060405234801561001057600080fd5b503373ffffffffffffffffffffffffffffffffffffffff1660808173ffffffffffffffffffffffffffffffffffffffff1681525050608051611218610060600039600061015001526112186000f3fe608060405234801561001057600080fd5b50600436106100625760003560e01c80630c971a46146100675780630f4a52c7146100835780635ec30d25146100b3578063623ad5ba146100e45780636b76dba114610102578063ae5ff90514610132575b600080fd5b610081600480360381019061007c9190610796565b61014e565b005b61009d60048036038101906100989190610819565b61021e565b6040516100aa91906108d6565b60405180910390f35b6100cd60048036038101906100c89190610a28565b6102ca565b6040516100db929190610ac5565b60405180910390f35b6100ec6103c9565b6040516100f99190610b04565b60405180910390f35b61011c60048036038101906101179190610796565b6103db565b6040516101299190610c2b565b60405180910390f35b61014c60048036038101906101479190610c4d565b6105fa565b005b7f000000000000000000000000000000000000000000000000000000000000000073ffffffffffffffffffffffffffffffffffffffff163373ffffffffffffffffffffffffffffffffffffffff16146101dc576040517f08c379a00000000000000000000000000000000000000000000000000000000081526004016101d390610d1a565b60405180910390fd5b6000828290918060018154018082558091505060019003906000526020600020016000909192909192909192909192509182610219929190610f51565b505050565b6000818154811061022e57600080fd5b90600052602060002001600091509050805461024990610d74565b80601f016020809104026020016040519081016040528092919081815260200182805461027590610d74565b80156102c25780601f10610297576101008083540402835291602001916102c2565b820191906000526020600020905b8154815290600101906020018083116102a557829003601f168201915b505050505081565b60018280516020810182018051848252602083016020850120818352809550505050505081815481106102fc57600080fd5b9060005260206000209060020201600091509150508060000160009054906101000a900473ffffffffffffffffffffffffffffffffffffffff169080600101805461034690610d74565b80601f016020809104026020016040519081016040528092919081815260200182805461037290610d74565b80156103bf5780601f10610394576101008083540402835291602001916103bf565b820191906000526020600020905b8154815290600101906020018083116103a257829003601f168201915b5050505050905082565b60008060008054905090508091505090565b60606000600184846040516103f1929190611051565b9081526020016040518091039020805480602002602001604051908101604052809291908181526020016000905b8282101561053957838290600052602060002090600202016040518060400160405290816000820160009054906101000a900473ffffffffffffffffffffffffffffffffffffffff1673ffffffffffffffffffffffffffffffffffffffff1673ffffffffffffffffffffffffffffffffffffffff1681526020016001820180546104a890610d74565b80601f01602080910402602001604051908101604052809291908181526020018280546104d490610d74565b80156105215780601f106104f657610100808354040283529160200191610521565b820191906000526020600020905b81548152906001019060200180831161050457829003601f168201915b5050505050815250508152602001906001019061041f565b5050505090506000815167ffffffffffffffff81111561055c5761055b6108fd565b5b60405190808252806020026020018201604052801561058f57816020015b606081526020019060019003908161057a5790505b50905060005b82518110156105ee578281815181106105b1576105b061106a565b5b6020026020010151602001518282815181106105d0576105cf61106a565b5b602002602001018190525080806105e6906110c8565b915050610595565b50809250505092915050565b600060405180604001604052803373ffffffffffffffffffffffffffffffffffffffff16815260200184848080601f016020809104026020016040519081016040528093929190818152602001838380828437600081840152601f19601f8201169050808301925050505050505081525090506001858560405161067f929190611051565b908152602001604051809103902081908060018154018082558091505060019003906000526020600020906002020160009091909190915060008201518160000160006101000a81548173ffffffffffffffffffffffffffffffffffffffff021916908373ffffffffffffffffffffffffffffffffffffffff16021790555060208201518160010190816107139190611110565b5050505050505050565b6000604051905090565b600080fd5b600080fd5b600080fd5b600080fd5b600080fd5b60008083601f84011261075657610755610731565b5b8235905067ffffffffffffffff81111561077357610772610736565b5b60208301915083600182028301111561078f5761078e61073b565b5b9250929050565b600080602083850312156107ad576107ac610727565b5b600083013567ffffffffffffffff8111156107cb576107ca61072c565b5b6107d785828601610740565b92509250509250929050565b6000819050919050565b6107f6816107e3565b811461080157600080fd5b50565b600081359050610813816107ed565b92915050565b60006020828403121561082f5761082e610727565b5b600061083d84828501610804565b91505092915050565b600081519050919050565b600082825260208201905092915050565b60005b83811015610880578082015181840152602081019050610865565b60008484015250505050565b6000601f19601f8301169050919050565b60006108a882610846565b6108b28185610851565b93506108c2818560208601610862565b6108cb8161088c565b840191505092915050565b600060208201905081810360008301526108f0818461089d565b905092915050565b600080fd5b7f4e487b7100000000000000000000000000000000000000000000000000000000600052604160045260246000fd5b6109358261088c565b810181811067ffffffffffffffff82111715610954576109536108fd565b5b80604052505050565b600061096761071d565b9050610973828261092c565b919050565b600067ffffffffffffffff821115610993576109926108fd565b5b61099c8261088c565b9050602081019050919050565b82818337600083830152505050565b60006109cb6109c684610978565b61095d565b9050828152602081018484840111156109e7576109e66108f8565b5b6109f28482856109a9565b509392505050565b600082601f830112610a0f57610a0e610731565b5b8135610a1f8482602086016109b8565b91505092915050565b60008060408385031215610a3f57610a3e610727565b5b600083013567ffffffffffffffff811115610a5d57610a5c61072c565b5b610a69858286016109fa565b9250506020610a7a85828601610804565b9150509250929050565b600073ffffffffffffffffffffffffffffffffffffffff82169050919050565b6000610aaf82610a84565b9050919050565b610abf81610aa4565b82525050565b6000604082019050610ada6000830185610ab6565b8181036020830152610aec818461089d565b90509392505050565b610afe816107e3565b82525050565b6000602082019050610b196000830184610af5565b92915050565b600081519050919050565b600082825260208201905092915050565b6000819050602082019050919050565b600082825260208201905092915050565b6000610b6782610846565b610b718185610b4b565b9350610b81818560208601610862565b610b8a8161088c565b840191505092915050565b6000610ba18383610b5c565b905092915050565b6000602082019050919050565b6000610bc182610b1f565b610bcb8185610b2a565b935083602082028501610bdd85610b3b565b8060005b85811015610c195784840389528151610bfa8582610b95565b9450610c0583610ba9565b925060208a01995050600181019050610be1565b50829750879550505050505092915050565b60006020820190508181036000830152610c458184610bb6565b905092915050565b60008060008060408587031215610c6757610c66610727565b5b600085013567ffffffffffffffff811115610c8557610c8461072c565b5b610c9187828801610740565b9450945050602085013567ffffffffffffffff811115610cb457610cb361072c565b5b610cc087828801610740565b925092505092959194509250565b7f4f6e6c79204f776e657220416374696f6e210000000000000000000000000000600082015250565b6000610d04601283610851565b9150610d0f82610cce565b602082019050919050565b60006020820190508181036000830152610d3381610cf7565b9050919050565b600082905092915050565b7f4e487b7100000000000000000000000000000000000000000000000000000000600052602260045260246000fd5b60006002820490506001821680610d8c57607f821691505b602082108103610d9f57610d9e610d45565b5b50919050565b60008190508160005260206000209050919050565b60006020601f8301049050919050565b600082821b905092915050565b600060088302610e077fffffffffffffffffffffffffffffffffffffffffffffffffffffffffffffffff82610dca565b610e118683610dca565b95508019841693508086168417925050509392505050565b6000819050919050565b6000610e4e610e49610e44846107e3565b610e29565b6107e3565b9050919050565b6000819050919050565b610e6883610e33565b610e7c610e7482610e55565b848454610dd7565b825550505050565b600090565b610e91610e84565b610e9c818484610e5f565b505050565b5b81811015610ec057610eb5600082610e89565b600181019050610ea2565b5050565b601f821115610f0557610ed681610da5565b610edf84610dba565b81016020851015610eee578190505b610f02610efa85610dba565b830182610ea1565b50505b505050565b600082821c905092915050565b6000610f2860001984600802610f0a565b1980831691505092915050565b6000610f418383610f17565b9150826002028217905092915050565b610f5b8383610d3a565b67ffffffffffffffff811115610f7457610f736108fd565b5b610f7e8254610d74565b610f89828285610ec4565b6000601f831160018114610fb85760008415610fa6578287013590505b610fb08582610f35565b865550611018565b601f198416610fc686610da5565b60005b82811015610fee57848901358255600182019150602085019450602081019050610fc9565b8683101561100b5784890135611007601f891682610f17565b8355505b6001600288020188555050505b50505050505050565b600081905092915050565b60006110388385611021565b93506110458385846109a9565b82840190509392505050565b600061105e82848661102c565b91508190509392505050565b7f4e487b7100000000000000000000000000000000000000000000000000000000600052603260045260246000fd5b7f4e487b7100000000000000000000000000000000000000000000000000000000600052601160045260246000fd5b60006110d3826107e3565b91507fffffffffffffffffffffffffffffffffffffffffffffffffffffffffffffffff820361110557611104611099565b5b600182019050919050565b61111982610846565b67ffffffffffffffff811115611132576111316108fd565b5b61113c8254610d74565b611147828285610ec4565b600060209050601f83116001811461117a5760008415611168578287015190505b6111728582610f35565b8655506111da565b601f19841661118886610da5565b60005b828110156111b05784890151825560018201915060208501945060208101905061118b565b868310156111cd57848901516111c9601f891682610f17565b8355505b6001600288020188555050505b50505050505056fea2646970667358221220f60d152ab211d55af21680da3ca0544638b9897c64bd5491fda9c4c841c6a30764736f6c63430008120033",
  "immutableReferences": {
    "4": [
      {
        "length": 32,
        "start": 336
      }
    ]
  },
  "source": "// Layout of Contract:\r\n// SPDX-License-Identifier: MIT\r\n\r\n// version\r\npragma solidity ^0.8.18;\r\n\r\n// imports\r\n\r\n// errors\r\n\r\n// interfaces, libraries, contracts\r\n// error FundMe__NotOwner();\r\n\r\n/**\r\n * @title OpinioNect Smart Contract\r\n * @author Jaskirat Singh\r\n * @notice This contract is for giving your comments/opinions on an article\r\n * @dev Does not implement anything\r\n */\r\ncontract OpinioNect{\r\n    // Type declarations\r\n    // mapping(address => mapping(uint256 => uint256)) public outerMappings;\r\n    // State variables\r\n    address private immutable i_owner;\r\n    string[] public articleHash;\r\n    struct UserComment{\r\n        // mapping(address => string) userToarticleHash;\r\n        address userAddress;\r\n        string comment;\r\n    }\r\n    \r\n    mapping(string => UserComment[]) public articleToUserComments;\r\n\r\n    // Events\r\n    // Modifiers\r\n    modifier onlyOwner() {\r\n        require(msg.sender == i_owner, \"Only Owner Action!\");\r\n        // if (msg.sender != i_owner) revert FundMe__NotOwner();\r\n        _;\r\n    }\r\n    // modifier oneUserOneComment(string memory _articleHash) {\r\n    //     if(articleToUserComments[_articleHash].userAddress){\r\n    //         _;\r\n    //     }\r\n    // }\r\n    modifier oneUserOneComment(string memory _articleHash) {\r\n    bool hasCommented = false;\r\n    \r\n    // Iterate through existing comments for the article\r\n    UserComment[] memory comments = articleToUserComments[_articleHash];\r\n    for (uint256 i = 0; i < comments.length; i++) {\r\n        if (comments[i].userAddress == msg.sender) {\r\n            hasCommented = true;\r\n            break;\r\n        }\r\n    }\r\n\r\n    require(!hasCommented, \"You have already commented on this article.\");\r\n    _;\r\n    }\r\n\r\n\r\n    // Functions\r\n    // Layout of Functions:\r\n    // constructor\r\n    constructor() {\r\n        i_owner = msg.sender;\r\n    }\r\n\r\n    // receive function (if exists)\r\n    // fallback function (if exists)\r\n    // external\r\n    // public\r\n    function addArticle(string calldata _articleHash) public onlyOwner {\r\n        articleHash.push(_articleHash);\r\n    }\r\n\r\n    function addComment(string calldata _articleHash, string calldata _userComment) public {\r\n        UserComment memory userComment = UserComment(msg.sender, _userComment);\r\n        articleToUserComments[_articleHash].push(userComment);\r\n    }\r\n\r\n    function getCommentsOnArticle(string calldata _articleHash) view public returns (string[] memory) {\r\n    UserComment[] memory comments = articleToUserComments[_articleHash];\r\n    string[] memory commentsArray = new string[](comments.length);\r\n\r\n    for (uint256 i = 0; i < comments.length; i++) {\r\n        commentsArray[i] = comments[i].comment;\r\n    }\r\n\r\n    return commentsArray;\r\n    }\r\n\r\n    function articleHashLength() view public returns (uint256) {\r\n        uint256 length = articleHash.length;\r\n        return length;\r\n    }\r\n\r\n    // internal\r\n    // private\r\n    // view & pure functions\r\n\r\n}\r\n",
  "sourcePath": "C:\\Users\\temporary\\Documents\\OpinioNect\\OpinioNect\\web3\\contracts\\OpinioNect.sol",
  "compiler": {
    "name": "solc",
    "version": "0.8.18+commit.87f61d96.Emscripten.clang"
  },
  "schemaVersion": "3.4.16",
  "updatedAt": "2024-01-22T10:03:37.317Z",
  "networkType": "ethereum",
  "devdoc": {
    "author": "Jaskirat Singh",
    "details": "Does not implement anything",
    "kind": "dev",
    "methods": {},
    "title": "OpinioNect Smart Contract",
    "version": 1
  },
  "userdoc": {
    "kind": "user",
    "methods": {},
    "notice": "This contract is for giving your comments/opinions on an article",
    "version": 1
  }
}